{
  "contractName": "DeFi",
  "abi": [
    {
      "inputs": [
        {
          "internalType": "address",
          "name": "_address",
          "type": "address"
        }
      ],
      "stateMutability": "nonpayable",
      "type": "constructor"
    },
    {
      "anonymous": false,
      "inputs": [
        {
          "indexed": false,
          "internalType": "uint256",
          "name": "trade_id",
          "type": "uint256"
        }
      ],
      "name": "ClosedTrade",
      "type": "event"
    },
    {
      "anonymous": false,
      "inputs": [
        {
          "indexed": false,
          "internalType": "uint256",
          "name": "trade_id",
          "type": "uint256"
        }
      ],
      "name": "LiquidatedTrade",
      "type": "event"
    },
    {
      "anonymous": false,
      "inputs": [
        {
          "indexed": false,
          "internalType": "uint256",
          "name": "trade_id",
          "type": "uint256"
        }
      ],
      "name": "OpenedTrade",
      "type": "event"
    },
    {
      "anonymous": false,
      "inputs": [
        {
          "indexed": false,
          "internalType": "uint256",
          "name": "trade_id",
          "type": "uint256"
        },
        {
          "indexed": false,
          "internalType": "uint256",
          "name": "amount",
          "type": "uint256"
        }
      ],
      "name": "PaidInterest",
      "type": "event"
    },
    {
      "anonymous": false,
      "inputs": [
        {
          "indexed": false,
          "internalType": "uint256",
          "name": "trade_id",
          "type": "uint256"
        }
      ],
      "name": "TradeFinanced",
      "type": "event"
    },
    {
      "inputs": [],
      "name": "tokensContract",
      "outputs": [
        {
          "internalType": "contract Tokens",
          "name": "",
          "type": "address"
        }
      ],
      "stateMutability": "view",
      "type": "function",
      "constant": true
    },
    {
      "inputs": [
        {
          "internalType": "uint256",
          "name": "",
          "type": "uint256"
        }
      ],
      "name": "trades",
      "outputs": [
        {
          "internalType": "uint256",
          "name": "nft_id",
          "type": "uint256"
        },
        {
          "internalType": "address",
          "name": "lender",
          "type": "address"
        },
        {
          "internalType": "address",
          "name": "borrower",
          "type": "address"
        },
        {
          "internalType": "uint256",
          "name": "borrowing_amount",
          "type": "uint256"
        },
        {
          "internalType": "uint256",
          "name": "apy",
          "type": "uint256"
        },
        {
          "internalType": "uint256",
          "name": "start_time",
          "type": "uint256"
        },
        {
          "internalType": "uint256",
          "name": "paid_back_amount",
          "type": "uint256"
        },
        {
          "internalType": "enum DeFi.State",
          "name": "state",
          "type": "uint8"
        }
      ],
      "stateMutability": "view",
      "type": "function",
      "constant": true
    },
    {
      "inputs": [
        {
          "internalType": "uint256",
          "name": "nft_id",
          "type": "uint256"
        },
        {
          "internalType": "address",
          "name": "borrower",
          "type": "address"
        },
        {
          "internalType": "uint256",
          "name": "borrowing_amount",
          "type": "uint256"
        },
        {
          "internalType": "uint256",
          "name": "apy",
          "type": "uint256"
        }
      ],
      "name": "openTrade",
      "outputs": [
        {
          "internalType": "uint256",
          "name": "",
          "type": "uint256"
        }
      ],
      "stateMutability": "nonpayable",
      "type": "function"
    },
    {
      "inputs": [
        {
          "internalType": "uint256",
          "name": "trade_id",
          "type": "uint256"
        }
      ],
      "name": "lendToTrade",
      "outputs": [
        {
          "internalType": "bool",
          "name": "",
          "type": "bool"
        }
      ],
      "stateMutability": "nonpayable",
      "type": "function"
    },
    {
      "inputs": [
        {
          "internalType": "uint256",
          "name": "trade_id",
          "type": "uint256"
        },
        {
          "internalType": "uint256",
          "name": "amount",
          "type": "uint256"
        }
      ],
      "name": "payInterest",
      "outputs": [
        {
          "internalType": "bool",
          "name": "",
          "type": "bool"
        }
      ],
      "stateMutability": "nonpayable",
      "type": "function"
    },
    {
      "inputs": [
        {
          "internalType": "uint256",
          "name": "trade_id",
          "type": "uint256"
        }
      ],
      "name": "liquidateTrade",
      "outputs": [
        {
          "internalType": "bool",
          "name": "",
          "type": "bool"
        }
      ],
      "stateMutability": "nonpayable",
      "type": "function"
    }
  ],
  "bytecode": "0x608060405234801561001057600080fd5b50604051611d8a380380611d8a8339818101604052602081101561003357600080fd5b810190808051906020019092919050505080600160006101000a81548173ffffffffffffffffffffffffffffffffffffffff021916908373ffffffffffffffffffffffffffffffffffffffff1602179055506000808190555050611cee8061009c6000396000f3fe608060405234801561001057600080fd5b50600436106100625760003560e01c80631e6c598e1461006757806328e10fdf1461011157806357b8c349146101555780637518fa98146101cb578063f5b5adf2146101ff578063ff4ba23d14610243575b600080fd5b6100936004803603602081101561007d57600080fd5b8101908080359060200190929190505050610291565b604051808981526020018873ffffffffffffffffffffffffffffffffffffffff1681526020018773ffffffffffffffffffffffffffffffffffffffff1681526020018681526020018581526020018481526020018381526020018260038111156100f957fe5b81526020019850505050505050505060405180910390f35b61013d6004803603602081101561012757600080fd5b8101908080359060200190929190505050610326565b60405180821515815260200191505060405180910390f35b6101b56004803603608081101561016b57600080fd5b8101908080359060200190929190803573ffffffffffffffffffffffffffffffffffffffff1690602001909291908035906020019092919080359060200190929190505050610a15565b6040518082815260200191505060405180910390f35b6101d3610dc6565b604051808273ffffffffffffffffffffffffffffffffffffffff16815260200191505060405180910390f35b61022b6004803603602081101561021557600080fd5b8101908080359060200190929190505050610dec565b60405180821515815260200191505060405180910390f35b6102796004803603604081101561025957600080fd5b8101908080359060200190929190803590602001909291905050506113a4565b60405180821515815260200191505060405180910390f35b60026020528060005260406000206000915090508060000154908060010160009054906101000a900473ffffffffffffffffffffffffffffffffffffffff16908060020160009054906101000a900473ffffffffffffffffffffffffffffffffffffffff16908060030154908060040154908060050154908060060154908060070160009054906101000a900460ff16905088565b600080600381111561033457fe5b6002600084815260200190815260200160002060070160009054906101000a900460ff16600381111561036357fe5b146103d6576040517f08c379a000000000000000000000000000000000000000000000000000000000815260040180806020018281038252600f8152602001807f5472616465206e6f74206f70656e2e000000000000000000000000000000000081525060200191505060405180910390fd5b60018060009054906101000a900473ffffffffffffffffffffffffffffffffffffffff1673ffffffffffffffffffffffffffffffffffffffff1662fdd58e6002600086815260200190815260200160002060020160009054906101000a900473ffffffffffffffffffffffffffffffffffffffff1660026000878152602001908152602001600020600001546040518363ffffffff1660e01b8152600401808373ffffffffffffffffffffffffffffffffffffffff1681526020018281526020019250505060206040518083038186803b1580156104b357600080fd5b505afa1580156104c7573d6000803e3d6000fd5b505050506040513d60208110156104dd57600080fd5b81019080805190602001909291905050501015610545576040517f08c379a0000000000000000000000000000000000000000000000000000000008152600401808060200182810382526022815260200180611c976022913960400191505060405180910390fd5b6002600083815260200190815260200160002060030154600160009054906101000a900473ffffffffffffffffffffffffffffffffffffffff1673ffffffffffffffffffffffffffffffffffffffff1662fdd58e3360006040518363ffffffff1660e01b8152600401808373ffffffffffffffffffffffffffffffffffffffff1681526020018281526020019250505060206040518083038186803b1580156105ed57600080fd5b505afa158015610601573d6000803e3d6000fd5b505050506040513d602081101561061757600080fd5b8101908080519060200190929190505050101561067f576040517f08c379a0000000000000000000000000000000000000000000000000000000008152600401808060200182810382526029815260200180611c6e6029913960400191505060405180910390fd5b336002600084815260200190815260200160002060010160006101000a81548173ffffffffffffffffffffffffffffffffffffffff021916908373ffffffffffffffffffffffffffffffffffffffff16021790555060016002600084815260200190815260200160002060070160006101000a81548160ff0219169083600381111561070757fe5b0217905550426002600084815260200190815260200160002060050181905550600160009054906101000a900473ffffffffffffffffffffffffffffffffffffffff1673ffffffffffffffffffffffffffffffffffffffff1663f242432a6002600085815260200190815260200160002060020160009054906101000a900473ffffffffffffffffffffffffffffffffffffffff1630600260008781526020019081526020016000206000015460016040518563ffffffff1660e01b8152600401808573ffffffffffffffffffffffffffffffffffffffff1681526020018473ffffffffffffffffffffffffffffffffffffffff16815260200183815260200182815260200180602001828103825260038152602001807f307830000000000000000000000000000000000000000000000000000000000081525060200195505050505050600060405180830381600087803b15801561086657600080fd5b505af115801561087a573d6000803e3d6000fd5b50505050600160009054906101000a900473ffffffffffffffffffffffffffffffffffffffff1673ffffffffffffffffffffffffffffffffffffffff1663f242432a6002600085815260200190815260200160002060010160009054906101000a900473ffffffffffffffffffffffffffffffffffffffff1630600060026000888152602001908152602001600020600301546040518563ffffffff1660e01b8152600401808573ffffffffffffffffffffffffffffffffffffffff1681526020018473ffffffffffffffffffffffffffffffffffffffff16815260200183815260200182815260200180602001828103825260038152602001807f307830000000000000000000000000000000000000000000000000000000000081525060200195505050505050600060405180830381600087803b1580156109bd57600080fd5b505af11580156109d1573d6000803e3d6000fd5b505050507f64b29278572264547a9b59e27408f2d487f0d4dbe21deb0a84a292f4d0b4960f826040518082815260200191505060405180910390a160019050919050565b60008373ffffffffffffffffffffffffffffffffffffffff163373ffffffffffffffffffffffffffffffffffffffff1614610ab8576040517f08c379a00000000000000000000000000000000000000000000000000000000081526004018080602001828103825260108152602001807f4e6f742074686520626f72726f7765720000000000000000000000000000000081525060200191505060405180910390fd5b60018060009054906101000a900473ffffffffffffffffffffffffffffffffffffffff1673ffffffffffffffffffffffffffffffffffffffff1662fdd58e86886040518363ffffffff1660e01b8152600401808373ffffffffffffffffffffffffffffffffffffffff1681526020018281526020019250505060206040518083038186803b158015610b4957600080fd5b505afa158015610b5d573d6000803e3d6000fd5b505050506040513d6020811015610b7357600080fd5b81019080805190602001909291905050501015610bf8576040517f08c379a00000000000000000000000000000000000000000000000000000000081526004018080602001828103825260188152602001807f496e73756666696369656e74204e46542062616c616e6365000000000000000081525060200191505060405180910390fd5b600080549050604051806101000160405280878152602001600073ffffffffffffffffffffffffffffffffffffffff1681526020018673ffffffffffffffffffffffffffffffffffffffff168152602001858152602001848152602001600081526020016000815260200160006003811115610c7057fe5b815250600260008381526020019081526020016000206000820151816000015560208201518160010160006101000a81548173ffffffffffffffffffffffffffffffffffffffff021916908373ffffffffffffffffffffffffffffffffffffffff16021790555060408201518160020160006101000a81548173ffffffffffffffffffffffffffffffffffffffff021916908373ffffffffffffffffffffffffffffffffffffffff160217905550606082015181600301556080820151816004015560a0820151816005015560c0820151816006015560e08201518160070160006101000a81548160ff02191690836003811115610d6a57fe5b021790555090505060008081548092919060010191905055507f43f9ba287b861d4cba1b8180d27de743073c39d88b83dfa197b9844eed0de184816040518082815260200191505060405180910390a180915050949350505050565b600160009054906101000a900473ffffffffffffffffffffffffffffffffffffffff1681565b60006002600083815260200190815260200160002060010160009054906101000a900473ffffffffffffffffffffffffffffffffffffffff1673ffffffffffffffffffffffffffffffffffffffff163373ffffffffffffffffffffffffffffffffffffffff1614610e5c57600080fd5b6000600260008481526020019081526020016000206005015442039050600060026000858152602001908152602001600020600401546301e185588381610e9f57fe5b040260030a6002600086815260200190815260200160002060030154029050600060019050801561138f5760018060009054906101000a900473ffffffffffffffffffffffffffffffffffffffff1673ffffffffffffffffffffffffffffffffffffffff1662fdd58e30600260008a8152602001908152602001600020600001546040518363ffffffff1660e01b8152600401808373ffffffffffffffffffffffffffffffffffffffff1681526020018281526020019250505060206040518083038186803b158015610f7157600080fd5b505afa158015610f85573d6000803e3d6000fd5b505050506040513d6020811015610f9b57600080fd5b81019080805190602001909291905050501015610fb757600080fd5b6002600086815260200190815260200160002060060154600160009054906101000a900473ffffffffffffffffffffffffffffffffffffffff1673ffffffffffffffffffffffffffffffffffffffff1662fdd58e3060006040518363ffffffff1660e01b8152600401808373ffffffffffffffffffffffffffffffffffffffff1681526020018281526020019250505060206040518083038186803b15801561105f57600080fd5b505afa158015611073573d6000803e3d6000fd5b505050506040513d602081101561108957600080fd5b810190808051906020019092919050505010156110a557600080fd5b600160009054906101000a900473ffffffffffffffffffffffffffffffffffffffff1673ffffffffffffffffffffffffffffffffffffffff1663f242432a306002600089815260200190815260200160002060010160009054906101000a900473ffffffffffffffffffffffffffffffffffffffff16600260008a81526020019081526020016000206000015460016040518563ffffffff1660e01b8152600401808573ffffffffffffffffffffffffffffffffffffffff1681526020018473ffffffffffffffffffffffffffffffffffffffff16815260200183815260200182815260200180602001828103825260038152602001807f307830000000000000000000000000000000000000000000000000000000000081525060200195505050505050600060405180830381600087803b1580156111e457600080fd5b505af11580156111f8573d6000803e3d6000fd5b50505050600160009054906101000a900473ffffffffffffffffffffffffffffffffffffffff1673ffffffffffffffffffffffffffffffffffffffff1663f242432a306002600089815260200190815260200160002060010160009054906101000a900473ffffffffffffffffffffffffffffffffffffffff166000600260008b8152602001908152602001600020600601546040518563ffffffff1660e01b8152600401808573ffffffffffffffffffffffffffffffffffffffff1681526020018473ffffffffffffffffffffffffffffffffffffffff16815260200183815260200182815260200180602001828103825260038152602001807f307830000000000000000000000000000000000000000000000000000000000081525060200195505050505050600060405180830381600087803b15801561133b57600080fd5b505af115801561134f573d6000803e3d6000fd5b505050507f23e82051487d5db44eb520eb79ace3df40a8e978aa477a271a4f622c377dcdbe856040518082815260200191505060405180910390a161139b565b6000935050505061139f565b5050505b919050565b6000600160038111156113b357fe5b6002600085815260200190815260200160002060070160009054906101000a900460ff1660038111156113e257fe5b146113ec57600080fd5b6002600084815260200190815260200160002060020160009054906101000a900473ffffffffffffffffffffffffffffffffffffffff1673ffffffffffffffffffffffffffffffffffffffff163373ffffffffffffffffffffffffffffffffffffffff161461145a57600080fd5b81600160009054906101000a900473ffffffffffffffffffffffffffffffffffffffff1673ffffffffffffffffffffffffffffffffffffffff1662fdd58e3360006040518363ffffffff1660e01b8152600401808373ffffffffffffffffffffffffffffffffffffffff1681526020018281526020019250505060206040518083038186803b1580156114ec57600080fd5b505afa158015611500573d6000803e3d6000fd5b505050506040513d602081101561151657600080fd5b8101908080519060200190929190505050101561153257600080fd5b816002600085815260200190815260200160002060060160008282540192505081905550600160009054906101000a900473ffffffffffffffffffffffffffffffffffffffff1673ffffffffffffffffffffffffffffffffffffffff1663f242432a33306000866040518563ffffffff1660e01b8152600401808573ffffffffffffffffffffffffffffffffffffffff1681526020018473ffffffffffffffffffffffffffffffffffffffff16815260200183815260200182815260200180602001828103825260038152602001807f307830000000000000000000000000000000000000000000000000000000000081525060200195505050505050600060405180830381600087803b15801561164957600080fd5b505af115801561165d573d6000803e3d6000fd5b505050507fa6433e052d3ec1c5a37fc02e253a4fda8de4777e2a3f929e5f9418bdb21afa1b8383604051808381526020018281526020019250505060405180910390a16002600084815260200190815260200160002060030154600260008581526020019081526020016000206006015410611760576000600260008581526020019081526020016000206005015442039050600060026000868152602001908152602001600020600401546301e18558838161171657fe5b040260030a60026000878152602001908152602001600020600301540290508060026000878152602001908152602001600020600601541061175d5761175b8561176a565b505b50505b6001905092915050565b600060018060009054906101000a900473ffffffffffffffffffffffffffffffffffffffff1673ffffffffffffffffffffffffffffffffffffffff1662fdd58e3060026000878152602001908152602001600020600001546040518363ffffffff1660e01b8152600401808373ffffffffffffffffffffffffffffffffffffffff1681526020018281526020019250505060206040518083038186803b15801561181357600080fd5b505afa158015611827573d6000803e3d6000fd5b505050506040513d602081101561183d57600080fd5b8101908080519060200190929190505050101561185957600080fd5b6002600083815260200190815260200160002060060154600160009054906101000a900473ffffffffffffffffffffffffffffffffffffffff1673ffffffffffffffffffffffffffffffffffffffff1662fdd58e3060006040518363ffffffff1660e01b8152600401808373ffffffffffffffffffffffffffffffffffffffff1681526020018281526020019250505060206040518083038186803b15801561190157600080fd5b505afa158015611915573d6000803e3d6000fd5b505050506040513d602081101561192b57600080fd5b8101908080519060200190929190505050101561194757600080fd5b600160009054906101000a900473ffffffffffffffffffffffffffffffffffffffff1673ffffffffffffffffffffffffffffffffffffffff1663f242432a306002600086815260200190815260200160002060020160009054906101000a900473ffffffffffffffffffffffffffffffffffffffff16600260008781526020019081526020016000206000015460016040518563ffffffff1660e01b8152600401808573ffffffffffffffffffffffffffffffffffffffff1681526020018473ffffffffffffffffffffffffffffffffffffffff16815260200183815260200182815260200180602001828103825260038152602001807f307830000000000000000000000000000000000000000000000000000000000081525060200195505050505050600060405180830381600087803b158015611a8657600080fd5b505af1158015611a9a573d6000803e3d6000fd5b50505050600160009054906101000a900473ffffffffffffffffffffffffffffffffffffffff1673ffffffffffffffffffffffffffffffffffffffff1663f242432a306002600086815260200190815260200160002060010160009054906101000a900473ffffffffffffffffffffffffffffffffffffffff16600060026000888152602001908152602001600020600601546040518563ffffffff1660e01b8152600401808573ffffffffffffffffffffffffffffffffffffffff1681526020018473ffffffffffffffffffffffffffffffffffffffff16815260200183815260200182815260200180602001828103825260038152602001807f307830000000000000000000000000000000000000000000000000000000000081525060200195505050505050600060405180830381600087803b158015611bdd57600080fd5b505af1158015611bf1573d6000803e3d6000fd5b5050505060036002600084815260200190815260200160002060070160006101000a81548160ff02191690836003811115611c2857fe5b02179055507f6cf09acb794bf223899fc9e5e68e691bfc1f84aacaedd5697dee9c3ad99e42d3826040518082815260200191505060405180910390a16001905091905056fe4c656e64657220646f6573206e6f7420686176652073756666696369656e742066756e64696e67732e426f72726f77657220646f6573206e6f74206861766520636f6c6c61746f72616c2ea26469706673582212208e276e2b882d8c7e7276afc3540669e985430d7445e5accc5e2a7d354a3b32e164736f6c634300060c0033",
  "immutableReferences": {},
  "source": "// Contract allowing Lending of Fungible token in exchange for an NFT\n\npragma solidity ^0.6.0;\n\n// import \"@openzeppelin/contracts/token/ERC1155/ERC1155Holder.sol\"; // uncomment this to implement.\nimport \"./Tokens.sol\";\n\ncontract DeFi {\n  uint256 trade_ids;\n  Tokens public tokensContract;\n\n  // Trade data struct \n  struct Trade {\n    uint256 nft_id; // NFT id\n    address lender; // The lender of the NFT\n    address borrower; // The borrower of the NFT\n    uint256 borrowing_amount; // The amount needed to be borrowed\n    uint256 apy; // The rate of interest of lending of the NFT\n    uint256 start_time;\n    uint256 paid_back_amount; // The amount paid back to the escrow\n    State state;\n  }\n\n  enum State {\n    OPEN,\n    FINANCED,\n    LIQUIDATED,\n    CLOSED\n  }\n  \n  // List of trades\n  mapping(uint256 => Trade) public trades;\n\n  // A trade was opened by a borrower\n  event OpenedTrade(uint256 trade_id);\n  // A lender has lended money and the trade is now in operation\n  event TradeFinanced(uint256 trade_id);\n  // A trade was closed\n  event ClosedTrade(uint256 trade_id);\n  // Interest paid\n  event PaidInterest(uint256 trade_id, uint256 amount);\n  // Trade Liquidated\n  event LiquidatedTrade(uint256 trade_id);\n\n  constructor(address _address) public {\n    tokensContract = Tokens(_address);\n    trade_ids = 0;\n  }\n\n  function openTrade(uint256 nft_id, address borrower, uint256 borrowing_amount, uint256 apy) public returns (uint256) {\n    // verify borrower.\n    require(msg.sender == borrower, \"Not the borrower\");\n    // Check if the borrower has atleast one of NFT\n    require(tokensContract.balanceOf(borrower, nft_id) >= 1, \"Insufficient NFT balance\");\n    \n    // Create a trade with the current avaiable trade id\n    uint256 trade_id = trade_ids;\n    trades[trade_id] = Trade(nft_id, address(0x0), borrower, borrowing_amount, apy, 0, 0, State.OPEN);\n    trade_ids++; // Increase the trade id by 1 for the next trade\n\n    // Emit that a trade has been opened\n    emit OpenedTrade(trade_id); \n    return trade_id;\n  }\n\n  function lendToTrade(uint256 trade_id) public returns (bool) {\n    // Check if the trade is still open\n    require(trades[trade_id].state == State.OPEN, \"Trade not open.\");\n    // Check if the borrower still has the NFT\n    require(tokensContract.balanceOf(trades[trade_id].borrower, trades[trade_id].nft_id) >= 1, \"Borrower does not have collatoral.\");\n    // Check if the lender has that much Fungible tokens\n    require(tokensContract.balanceOf(msg.sender, 0) >= trades[trade_id].borrowing_amount, \"Lender does not have sufficient fundings.\");\n\n    // Assign the lender, set the state of the trade to FINANCED and start the time\n    trades[trade_id].lender = msg.sender;\n    trades[trade_id].state = State.FINANCED;\n    trades[trade_id].start_time = now;\n\n    // Transfer the NFT from the borrower to this contract\n    tokensContract.safeTransferFrom(trades[trade_id].borrower, address(this), trades[trade_id].nft_id, 1, \"0x0\");\n    // Transfer the Fungible tokens from the lender to this contract\n    tokensContract.safeTransferFrom(trades[trade_id].lender, address(this), 0, trades[trade_id].borrowing_amount, \"0x0\");\n\n    // Emit that the trade has been financed\n    emit TradeFinanced(trade_id);\n    return true;\n  }\n\n  function payInterest(uint256 trade_id, uint256 amount) public returns (bool) {\n    // Make sure the state of the trade is FINANCED\n    require(trades[trade_id].state == State.FINANCED);\n    // Make sure the caller is the trade's borrower\n    require(msg.sender == trades[trade_id].borrower);\n    // Make sure the borrower has enough funds\n    require(tokensContract.balanceOf(msg.sender, 0) >= amount);\n\n    trades[trade_id].paid_back_amount += amount;\n    tokensContract.safeTransferFrom(msg.sender, address(this), 0, amount, \"0x0\");\n    emit PaidInterest(trade_id, amount);\n\n    // Only if the amount paid back is more than the principal could the transaction be complete\n    // Thus we check only if that is the case\n    if (trades[trade_id].paid_back_amount >= trades[trade_id].borrowing_amount) {\n      uint256 seconds_since_start = now - trades[trade_id].start_time;\n      // Formula for Continous compound interest\n      // https://www.investopedia.com/terms/c/continuouscompounding.asp#:~:text=Calculating%20the%20limit%20of%20this,mathematical%20constant%20approximated%20as%202.7183.\n      uint256 amount_to_be_paid = trades[trade_id].borrowing_amount * (uint256(3) ** ((seconds_since_start/31556952) \n        * trades[trade_id].apy));\n      \n\n      if (trades[trade_id].paid_back_amount >= amount_to_be_paid) {\n        completeTrade(trade_id);\n      }\n    }\n\n    return true;\n  }\n\n  function completeTrade(uint256 trade_id) private returns (bool) {\n    // Makes sure the contract still has the NFT and the money - Theoretically always true\n    require(tokensContract.balanceOf(address(this), trades[trade_id].nft_id) >= 1);\n    require(tokensContract.balanceOf(address(this), 0) >= trades[trade_id].paid_back_amount);\n\n    // Transfer the NFT and fungible tokens from the contract to the borrower and lender respectively\n    tokensContract.safeTransferFrom(address(this), trades[trade_id].borrower, trades[trade_id].nft_id, 1, \"0x0\");  \n    tokensContract.safeTransferFrom(address(this), trades[trade_id].lender, 0, trades[trade_id].paid_back_amount, \"0x0\");  \n\n    // Set trade to close state\n    trades[trade_id].state = State.CLOSED;\n\n    // Emit the close trade event\n    emit ClosedTrade(trade_id);\n    return true;\n  }\n\n  function liquidateTrade(uint256 trade_id) public returns (bool) {\n    require(msg.sender == trades[trade_id].lender);\n\n    // Amount to be paid by the borrower to the lender\n    uint256 seconds_since_start = now - trades[trade_id].start_time;\n    uint256 amount_to_be_paid = trades[trade_id].borrowing_amount * (uint256(3) ** ((seconds_since_start/31556952) \n      * trades[trade_id].apy));\n\n    // Condition for liquidity still not determined. For the purpose of initial testing, trade can be liquidated any time.\n    // Later on we need to make so after x amount of interest is acrued, then the contract can be liquidated\n\n    bool can_be_liquidated = true;\n\n    if (can_be_liquidated) {\n      // Makes sure the contract still has the NFT and the money - Theoretically always true\n      require(tokensContract.balanceOf(address(this), trades[trade_id].nft_id) >= 1);\n      require(tokensContract.balanceOf(address(this), 0) >= trades[trade_id].paid_back_amount);\n\n      tokensContract.safeTransferFrom(address(this), trades[trade_id].lender, trades[trade_id].nft_id, 1, \"0x0\");  \n      tokensContract.safeTransferFrom(address(this), trades[trade_id].lender, 0, trades[trade_id].paid_back_amount, \"0x0\");  \n\n      emit LiquidatedTrade(trade_id);\n    } else {\n      return false;\n    }\n  } \n}",
  "sourcePath": "/mnt/d/Projects/Solidity/minecraft-nft/Minecraft-NFT-Server/smart-contracts/contracts/DeFi.sol",
  "compiler": {
    "name": "solc",
    "version": "0.6.12+commit.27d51765.Emscripten.clang"
  },
  "schemaVersion": "3.3.2",
  "updatedAt": "2020-12-04T18:58:05.719Z",
  "networkType": "ethereum",
  "devdoc": {
    "kind": "dev",
    "methods": {},
    "version": 1
  },
  "userdoc": {
    "kind": "user",
    "methods": {},
    "version": 1
  }
}