{
  "contractName": "DeFi",
  "abi": [
    {
      "inputs": [
        {
          "internalType": "address",
          "name": "_address",
          "type": "address"
        }
      ],
      "stateMutability": "nonpayable",
      "type": "constructor"
    },
    {
      "anonymous": false,
      "inputs": [
        {
          "indexed": false,
          "internalType": "uint256",
          "name": "trade_id",
          "type": "uint256"
        }
      ],
      "name": "ClosedTrade",
      "type": "event"
    },
    {
      "anonymous": false,
      "inputs": [
        {
          "indexed": false,
          "internalType": "uint256",
          "name": "trade_id",
          "type": "uint256"
        }
      ],
      "name": "LiquidatedTrade",
      "type": "event"
    },
    {
      "anonymous": false,
      "inputs": [
        {
          "indexed": false,
          "internalType": "uint256",
          "name": "trade_id",
          "type": "uint256"
        }
      ],
      "name": "OpenedTrade",
      "type": "event"
    },
    {
      "anonymous": false,
      "inputs": [
        {
          "indexed": false,
          "internalType": "uint256",
          "name": "trade_id",
          "type": "uint256"
        },
        {
          "indexed": false,
          "internalType": "uint256",
          "name": "amount",
          "type": "uint256"
        }
      ],
      "name": "PaidInterest",
      "type": "event"
    },
    {
      "anonymous": false,
      "inputs": [
        {
          "indexed": false,
          "internalType": "uint256",
          "name": "trade_id",
          "type": "uint256"
        }
      ],
      "name": "TradeFinanced",
      "type": "event"
    },
    {
      "inputs": [
        {
          "internalType": "address",
          "name": "",
          "type": "address"
        },
        {
          "internalType": "address",
          "name": "",
          "type": "address"
        },
        {
          "internalType": "uint256[]",
          "name": "",
          "type": "uint256[]"
        },
        {
          "internalType": "uint256[]",
          "name": "",
          "type": "uint256[]"
        },
        {
          "internalType": "bytes",
          "name": "",
          "type": "bytes"
        }
      ],
      "name": "onERC1155BatchReceived",
      "outputs": [
        {
          "internalType": "bytes4",
          "name": "",
          "type": "bytes4"
        }
      ],
      "stateMutability": "nonpayable",
      "type": "function"
    },
    {
      "inputs": [
        {
          "internalType": "address",
          "name": "",
          "type": "address"
        },
        {
          "internalType": "address",
          "name": "",
          "type": "address"
        },
        {
          "internalType": "uint256",
          "name": "",
          "type": "uint256"
        },
        {
          "internalType": "uint256",
          "name": "",
          "type": "uint256"
        },
        {
          "internalType": "bytes",
          "name": "",
          "type": "bytes"
        }
      ],
      "name": "onERC1155Received",
      "outputs": [
        {
          "internalType": "bytes4",
          "name": "",
          "type": "bytes4"
        }
      ],
      "stateMutability": "nonpayable",
      "type": "function"
    },
    {
      "inputs": [
        {
          "internalType": "bytes4",
          "name": "interfaceId",
          "type": "bytes4"
        }
      ],
      "name": "supportsInterface",
      "outputs": [
        {
          "internalType": "bool",
          "name": "",
          "type": "bool"
        }
      ],
      "stateMutability": "view",
      "type": "function",
      "constant": true
    },
    {
      "inputs": [],
      "name": "tokensContract",
      "outputs": [
        {
          "internalType": "contract Tokens",
          "name": "",
          "type": "address"
        }
      ],
      "stateMutability": "view",
      "type": "function",
      "constant": true
    },
    {
      "inputs": [
        {
          "internalType": "uint256",
          "name": "",
          "type": "uint256"
        }
      ],
      "name": "trades",
      "outputs": [
        {
          "internalType": "uint256",
          "name": "nft_id",
          "type": "uint256"
        },
        {
          "internalType": "address",
          "name": "lender",
          "type": "address"
        },
        {
          "internalType": "address",
          "name": "borrower",
          "type": "address"
        },
        {
          "internalType": "uint256",
          "name": "borrowing_amount",
          "type": "uint256"
        },
        {
          "internalType": "uint256",
          "name": "apy",
          "type": "uint256"
        },
        {
          "internalType": "uint256",
          "name": "start_time",
          "type": "uint256"
        },
        {
          "internalType": "uint256",
          "name": "paid_back_amount",
          "type": "uint256"
        },
        {
          "internalType": "enum DeFi.State",
          "name": "state",
          "type": "uint8"
        }
      ],
      "stateMutability": "view",
      "type": "function",
      "constant": true
    },
    {
      "inputs": [
        {
          "internalType": "uint256",
          "name": "nft_id",
          "type": "uint256"
        },
        {
          "internalType": "address",
          "name": "borrower",
          "type": "address"
        },
        {
          "internalType": "uint256",
          "name": "borrowing_amount",
          "type": "uint256"
        },
        {
          "internalType": "uint256",
          "name": "apy",
          "type": "uint256"
        }
      ],
      "name": "openTrade",
      "outputs": [
        {
          "internalType": "uint256",
          "name": "",
          "type": "uint256"
        }
      ],
      "stateMutability": "nonpayable",
      "type": "function"
    },
    {
      "inputs": [
        {
          "internalType": "uint256",
          "name": "trade_id",
          "type": "uint256"
        }
      ],
      "name": "lendToTrade",
      "outputs": [
        {
          "internalType": "bool",
          "name": "",
          "type": "bool"
        }
      ],
      "stateMutability": "nonpayable",
      "type": "function"
    },
    {
      "inputs": [
        {
          "internalType": "uint256",
          "name": "trade_id",
          "type": "uint256"
        },
        {
          "internalType": "uint256",
          "name": "amount",
          "type": "uint256"
        }
      ],
      "name": "payInterest",
      "outputs": [
        {
          "internalType": "bool",
          "name": "",
          "type": "bool"
        }
      ],
      "stateMutability": "nonpayable",
      "type": "function"
    },
    {
      "inputs": [
        {
          "internalType": "uint256",
          "name": "trade_id",
          "type": "uint256"
        }
      ],
      "name": "liquidateTrade",
      "outputs": [
        {
          "internalType": "bool",
          "name": "",
          "type": "bool"
        }
      ],
      "stateMutability": "nonpayable",
      "type": "function"
    }
  ],
  "bytecode": "0x60806040523480156200001157600080fd5b50604051620022ba380380620022ba833981810160405260208110156200003757600080fd5b8101908080519060200190929190505050620000606301ffc9a760e01b620000d160201b60201c565b6200008163bc197c8160e01b63f23a6e6160e01b18620000d160201b60201c565b80600260006101000a81548173ffffffffffffffffffffffffffffffffffffffff021916908373ffffffffffffffffffffffffffffffffffffffff160217905550600060018190555050620001da565b63ffffffff60e01b817bffffffffffffffffffffffffffffffffffffffffffffffffffffffff191614156200016e576040517f08c379a000000000000000000000000000000000000000000000000000000000815260040180806020018281038252601c8152602001807f4552433136353a20696e76616c696420696e746572666163652069640000000081525060200191505060405180910390fd5b6001600080837bffffffffffffffffffffffffffffffffffffffffffffffffffffffff19167bffffffffffffffffffffffffffffffffffffffffffffffffffffffff1916815260200190815260200160002060006101000a81548160ff02191690831515021790555050565b6120d080620001ea6000396000f3fe608060405234801561001057600080fd5b50600436106100935760003560e01c80637518fa98116100665780637518fa981461025f578063bc197c8114610293578063f23a6e61146104e9578063f5b5adf21461062b578063ff4ba23d1461066f57610093565b806301ffc9a7146100985780631e6c598e146100fb57806328e10fdf146101a557806357b8c349146101e9575b600080fd5b6100e3600480360360208110156100ae57600080fd5b8101908080357bffffffffffffffffffffffffffffffffffffffffffffffffffffffff191690602001909291905050506106bd565b60405180821515815260200191505060405180910390f35b6101276004803603602081101561011157600080fd5b8101908080359060200190929190505050610724565b604051808981526020018873ffffffffffffffffffffffffffffffffffffffff1681526020018773ffffffffffffffffffffffffffffffffffffffff16815260200186815260200185815260200184815260200183815260200182600381111561018d57fe5b81526020019850505050505050505060405180910390f35b6101d1600480360360208110156101bb57600080fd5b81019080803590602001909291905050506107b9565b60405180821515815260200191505060405180910390f35b610249600480360360808110156101ff57600080fd5b8101908080359060200190929190803573ffffffffffffffffffffffffffffffffffffffff1690602001909291908035906020019092919080359060200190929190505050610bac565b6040518082815260200191505060405180910390f35b6102676110af565b604051808273ffffffffffffffffffffffffffffffffffffffff16815260200191505060405180910390f35b6104b4600480360360a08110156102a957600080fd5b81019080803573ffffffffffffffffffffffffffffffffffffffff169060200190929190803573ffffffffffffffffffffffffffffffffffffffff1690602001909291908035906020019064010000000081111561030657600080fd5b82018360208201111561031857600080fd5b8035906020019184602083028401116401000000008311171561033a57600080fd5b919080806020026020016040519081016040528093929190818152602001838360200280828437600081840152601f19601f8201169050808301925050505050505091929192908035906020019064010000000081111561039a57600080fd5b8201836020820111156103ac57600080fd5b803590602001918460208302840111640100000000831117156103ce57600080fd5b919080806020026020016040519081016040528093929190818152602001838360200280828437600081840152601f19601f8201169050808301925050505050505091929192908035906020019064010000000081111561042e57600080fd5b82018360208201111561044057600080fd5b8035906020019184600183028401116401000000008311171561046257600080fd5b91908080601f016020809104026020016040519081016040528093929190818152602001838380828437600081840152601f19601f8201169050808301925050505050505091929192905050506110d5565b60405180827bffffffffffffffffffffffffffffffffffffffffffffffffffffffff1916815260200191505060405180910390f35b6105f6600480360360a08110156104ff57600080fd5b81019080803573ffffffffffffffffffffffffffffffffffffffff169060200190929190803573ffffffffffffffffffffffffffffffffffffffff16906020019092919080359060200190929190803590602001909291908035906020019064010000000081111561057057600080fd5b82018360208201111561058257600080fd5b803590602001918460018302840111640100000000831117156105a457600080fd5b91908080601f016020809104026020016040519081016040528093929190818152602001838380828437600081840152601f19601f8201169050808301925050505050505091929192905050506110ea565b60405180827bffffffffffffffffffffffffffffffffffffffffffffffffffffffff1916815260200191505060405180910390f35b6106576004803603602081101561064157600080fd5b81019080803590602001909291905050506110ff565b60405180821515815260200191505060405180910390f35b6106a56004803603604081101561068557600080fd5b8101908080359060200190929190803590602001909291905050506116b8565b60405180821515815260200191505060405180910390f35b6000806000837bffffffffffffffffffffffffffffffffffffffffffffffffffffffff19167bffffffffffffffffffffffffffffffffffffffffffffffffffffffff1916815260200190815260200160002060009054906101000a900460ff169050919050565b60036020528060005260406000206000915090508060000154908060010160009054906101000a900473ffffffffffffffffffffffffffffffffffffffff16908060020160009054906101000a900473ffffffffffffffffffffffffffffffffffffffff16908060030154908060040154908060050154908060060154908060070160009054906101000a900460ff16905088565b60008060038111156107c757fe5b6003600084815260200190815260200160002060070160009054906101000a900460ff1660038111156107f657fe5b14610869576040517f08c379a000000000000000000000000000000000000000000000000000000000815260040180806020018281038252600f8152602001807f5472616465206e6f74206f70656e2e000000000000000000000000000000000081525060200191505060405180910390fd5b6003600083815260200190815260200160002060030154600260009054906101000a900473ffffffffffffffffffffffffffffffffffffffff1673ffffffffffffffffffffffffffffffffffffffff1662fdd58e3360006040518363ffffffff1660e01b8152600401808373ffffffffffffffffffffffffffffffffffffffff1681526020018281526020019250505060206040518083038186803b15801561091157600080fd5b505afa158015610925573d6000803e3d6000fd5b505050506040513d602081101561093b57600080fd5b810190808051906020019092919050505010156109a3576040517f08c379a000000000000000000000000000000000000000000000000000000000815260040180806020018281038252602981526020018061201a6029913960400191505060405180910390fd5b336003600084815260200190815260200160002060010160006101000a81548173ffffffffffffffffffffffffffffffffffffffff021916908373ffffffffffffffffffffffffffffffffffffffff16021790555060016003600084815260200190815260200160002060070160006101000a81548160ff02191690836003811115610a2b57fe5b0217905550426003600084815260200190815260200160002060050181905550600260009054906101000a900473ffffffffffffffffffffffffffffffffffffffff1673ffffffffffffffffffffffffffffffffffffffff1663f242432a3330600060036000888152602001908152602001600020600301546040518563ffffffff1660e01b8152600401808573ffffffffffffffffffffffffffffffffffffffff1681526020018473ffffffffffffffffffffffffffffffffffffffff16815260200183815260200182815260200180602001828103825260038152602001807f307830000000000000000000000000000000000000000000000000000000000081525060200195505050505050600060405180830381600087803b158015610b5457600080fd5b505af1158015610b68573d6000803e3d6000fd5b505050507f64b29278572264547a9b59e27408f2d487f0d4dbe21deb0a84a292f4d0b4960f826040518082815260200191505060405180910390a160019050919050565b60008373ffffffffffffffffffffffffffffffffffffffff163373ffffffffffffffffffffffffffffffffffffffff1614610c4f576040517f08c379a000000000000000000000000000000000000000000000000000000000815260040180806020018281038252601b8152602001807f556e617574686f72697a65642046756e6374696f6e2043616c6c2e000000000081525060200191505060405180910390fd5b6001600260009054906101000a900473ffffffffffffffffffffffffffffffffffffffff1673ffffffffffffffffffffffffffffffffffffffff1662fdd58e86886040518363ffffffff1660e01b8152600401808373ffffffffffffffffffffffffffffffffffffffff1681526020018281526020019250505060206040518083038186803b158015610ce157600080fd5b505afa158015610cf5573d6000803e3d6000fd5b505050506040513d6020811015610d0b57600080fd5b81019080805190602001909291905050501015610d90576040517f08c379a00000000000000000000000000000000000000000000000000000000081526004018080602001828103825260188152602001807f496e73756666696369656e74204e46542062616c616e6365000000000000000081525060200191505060405180910390fd5b60006001549050604051806101000160405280878152602001600073ffffffffffffffffffffffffffffffffffffffff1681526020018673ffffffffffffffffffffffffffffffffffffffff168152602001858152602001848152602001600081526020016000815260200160006003811115610e0957fe5b815250600360008381526020019081526020016000206000820151816000015560208201518160010160006101000a81548173ffffffffffffffffffffffffffffffffffffffff021916908373ffffffffffffffffffffffffffffffffffffffff16021790555060408201518160020160006101000a81548173ffffffffffffffffffffffffffffffffffffffff021916908373ffffffffffffffffffffffffffffffffffffffff160217905550606082015181600301556080820151816004015560a0820151816005015560c0820151816006015560e08201518160070160006101000a81548160ff02191690836003811115610f0357fe5b0217905550905050600160008154809291906001019190505550600260009054906101000a900473ffffffffffffffffffffffffffffffffffffffff1673ffffffffffffffffffffffffffffffffffffffff1663f242432a33308960016040518563ffffffff1660e01b8152600401808573ffffffffffffffffffffffffffffffffffffffff1681526020018473ffffffffffffffffffffffffffffffffffffffff16815260200183815260200182815260200180602001828103825260038152602001807f307830000000000000000000000000000000000000000000000000000000000081525060200195505050505050600060405180830381600087803b15801561101057600080fd5b505af1158015611024573d6000803e3d6000fd5b5050505061106b33868860016040518060400160405280600381526020017f30783000000000000000000000000000000000000000000000000000000000008152506110ea565b507f43f9ba287b861d4cba1b8180d27de743073c39d88b83dfa197b9844eed0de184816040518082815260200191505060405180910390a180915050949350505050565b600260009054906101000a900473ffffffffffffffffffffffffffffffffffffffff1681565b600063bc197c8160e01b905095945050505050565b600063f23a6e6160e01b905095945050505050565b60006003600083815260200190815260200160002060010160009054906101000a900473ffffffffffffffffffffffffffffffffffffffff1673ffffffffffffffffffffffffffffffffffffffff163373ffffffffffffffffffffffffffffffffffffffff161461116f57600080fd5b6000600360008481526020019081526020016000206005015442039050600060036000858152602001908152602001600020600401546301e1855883816111b257fe5b040260030a600360008681526020019081526020016000206003015402905060006001905080156116a3576001600260009054906101000a900473ffffffffffffffffffffffffffffffffffffffff1673ffffffffffffffffffffffffffffffffffffffff1662fdd58e30600360008a8152602001908152602001600020600001546040518363ffffffff1660e01b8152600401808373ffffffffffffffffffffffffffffffffffffffff1681526020018281526020019250505060206040518083038186803b15801561128557600080fd5b505afa158015611299573d6000803e3d6000fd5b505050506040513d60208110156112af57600080fd5b810190808051906020019092919050505010156112cb57600080fd5b6003600086815260200190815260200160002060060154600260009054906101000a900473ffffffffffffffffffffffffffffffffffffffff1673ffffffffffffffffffffffffffffffffffffffff1662fdd58e3060006040518363ffffffff1660e01b8152600401808373ffffffffffffffffffffffffffffffffffffffff1681526020018281526020019250505060206040518083038186803b15801561137357600080fd5b505afa158015611387573d6000803e3d6000fd5b505050506040513d602081101561139d57600080fd5b810190808051906020019092919050505010156113b957600080fd5b600260009054906101000a900473ffffffffffffffffffffffffffffffffffffffff1673ffffffffffffffffffffffffffffffffffffffff1663f242432a306003600089815260200190815260200160002060010160009054906101000a900473ffffffffffffffffffffffffffffffffffffffff16600360008a81526020019081526020016000206000015460016040518563ffffffff1660e01b8152600401808573ffffffffffffffffffffffffffffffffffffffff1681526020018473ffffffffffffffffffffffffffffffffffffffff16815260200183815260200182815260200180602001828103825260038152602001807f307830000000000000000000000000000000000000000000000000000000000081525060200195505050505050600060405180830381600087803b1580156114f857600080fd5b505af115801561150c573d6000803e3d6000fd5b50505050600260009054906101000a900473ffffffffffffffffffffffffffffffffffffffff1673ffffffffffffffffffffffffffffffffffffffff1663f242432a306003600089815260200190815260200160002060010160009054906101000a900473ffffffffffffffffffffffffffffffffffffffff166000600360008b8152602001908152602001600020600601546040518563ffffffff1660e01b8152600401808573ffffffffffffffffffffffffffffffffffffffff1681526020018473ffffffffffffffffffffffffffffffffffffffff16815260200183815260200182815260200180602001828103825260038152602001807f307830000000000000000000000000000000000000000000000000000000000081525060200195505050505050600060405180830381600087803b15801561164f57600080fd5b505af1158015611663573d6000803e3d6000fd5b505050507f23e82051487d5db44eb520eb79ace3df40a8e978aa477a271a4f622c377dcdbe856040518082815260200191505060405180910390a16116af565b600093505050506116b3565b5050505b919050565b6000600160038111156116c757fe5b6003600085815260200190815260200160002060070160009054906101000a900460ff1660038111156116f657fe5b1461170057600080fd5b6003600084815260200190815260200160002060020160009054906101000a900473ffffffffffffffffffffffffffffffffffffffff1673ffffffffffffffffffffffffffffffffffffffff163373ffffffffffffffffffffffffffffffffffffffff161461176e57600080fd5b81600260009054906101000a900473ffffffffffffffffffffffffffffffffffffffff1673ffffffffffffffffffffffffffffffffffffffff1662fdd58e3360006040518363ffffffff1660e01b8152600401808373ffffffffffffffffffffffffffffffffffffffff1681526020018281526020019250505060206040518083038186803b15801561180057600080fd5b505afa158015611814573d6000803e3d6000fd5b505050506040513d602081101561182a57600080fd5b8101908080519060200190929190505050101561184657600080fd5b816003600085815260200190815260200160002060060160008282540192505081905550600260009054906101000a900473ffffffffffffffffffffffffffffffffffffffff1673ffffffffffffffffffffffffffffffffffffffff1663f242432a33306000866040518563ffffffff1660e01b8152600401808573ffffffffffffffffffffffffffffffffffffffff1681526020018473ffffffffffffffffffffffffffffffffffffffff16815260200183815260200182815260200180602001828103825260038152602001807f307830000000000000000000000000000000000000000000000000000000000081525060200195505050505050600060405180830381600087803b15801561195d57600080fd5b505af1158015611971573d6000803e3d6000fd5b505050507fa6433e052d3ec1c5a37fc02e253a4fda8de4777e2a3f929e5f9418bdb21afa1b8383604051808381526020018281526020019250505060405180910390a16003600084815260200190815260200160002060030154600360008581526020019081526020016000206006015410611a74576000600360008581526020019081526020016000206005015442039050600060036000868152602001908152602001600020600401546301e185588381611a2a57fe5b040260030a600360008781526020019081526020016000206003015402905080600360008781526020019081526020016000206006015410611a7157611a6f85611a7e565b505b50505b6001905092915050565b60006001600260009054906101000a900473ffffffffffffffffffffffffffffffffffffffff1673ffffffffffffffffffffffffffffffffffffffff1662fdd58e3060036000878152602001908152602001600020600001546040518363ffffffff1660e01b8152600401808373ffffffffffffffffffffffffffffffffffffffff1681526020018281526020019250505060206040518083038186803b158015611b2857600080fd5b505afa158015611b3c573d6000803e3d6000fd5b505050506040513d6020811015611b5257600080fd5b81019080805190602001909291905050501015611bba576040517f08c379a00000000000000000000000000000000000000000000000000000000081526004018080602001828103825260268152602001806120756026913960400191505060405180910390fd5b6003600083815260200190815260200160002060060154600260009054906101000a900473ffffffffffffffffffffffffffffffffffffffff1673ffffffffffffffffffffffffffffffffffffffff1662fdd58e3060006040518363ffffffff1660e01b8152600401808373ffffffffffffffffffffffffffffffffffffffff1681526020018281526020019250505060206040518083038186803b158015611c6257600080fd5b505afa158015611c76573d6000803e3d6000fd5b505050506040513d6020811015611c8c57600080fd5b81019080805190602001909291905050501015611cf4576040517f08c379a00000000000000000000000000000000000000000000000000000000081526004018080602001828103825260328152602001806120436032913960400191505060405180910390fd5b600260009054906101000a900473ffffffffffffffffffffffffffffffffffffffff1673ffffffffffffffffffffffffffffffffffffffff1663f242432a306003600086815260200190815260200160002060020160009054906101000a900473ffffffffffffffffffffffffffffffffffffffff16600360008781526020019081526020016000206000015460016040518563ffffffff1660e01b8152600401808573ffffffffffffffffffffffffffffffffffffffff1681526020018473ffffffffffffffffffffffffffffffffffffffff16815260200183815260200182815260200180602001828103825260038152602001807f307830000000000000000000000000000000000000000000000000000000000081525060200195505050505050600060405180830381600087803b158015611e3357600080fd5b505af1158015611e47573d6000803e3d6000fd5b50505050600260009054906101000a900473ffffffffffffffffffffffffffffffffffffffff1673ffffffffffffffffffffffffffffffffffffffff1663f242432a306003600086815260200190815260200160002060010160009054906101000a900473ffffffffffffffffffffffffffffffffffffffff16600060036000888152602001908152602001600020600601546040518563ffffffff1660e01b8152600401808573ffffffffffffffffffffffffffffffffffffffff1681526020018473ffffffffffffffffffffffffffffffffffffffff16815260200183815260200182815260200180602001828103825260038152602001807f307830000000000000000000000000000000000000000000000000000000000081525060200195505050505050600060405180830381600087803b158015611f8a57600080fd5b505af1158015611f9e573d6000803e3d6000fd5b50505050600380600084815260200190815260200160002060070160006101000a81548160ff02191690836003811115611fd457fe5b02179055507f6cf09acb794bf223899fc9e5e68e691bfc1f84aacaedd5697dee9c3ad99e42d3826040518082815260200191505060405180910390a16001905091905056fe4c656e64657220646f6573206e6f7420686176652073756666696369656e742066756e64696e67732e436f6e747261637420646f6573206e6f7420686176652073756666696369656e742066756e6769626c6520746f6b656e732e436f6e747261637420646f6573206e6f7420686176652073756666696369656e74204e46542ea2646970667358221220edc77891b8cacda72feb0eea9aaf06e9c01f549f7e31398b845592774f279a0864736f6c634300060c0033",
  "immutableReferences": {},
  "source": "// Contract allowing Lending of Fungible token in exchange for an NFT\n\npragma solidity ^0.6.0;\n\nimport \"@openzeppelin/contracts/token/ERC1155/ERC1155Holder.sol\";\nimport \"./Tokens.sol\";\n\ncontract DeFi is ERC1155Holder {\n  uint256 trade_ids;\n  Tokens public tokensContract;\n  // address admin;\n\n  // Trade data struct \n  struct Trade {\n    uint256 nft_id; // NFT id\n    address lender; // The lender of the NFT\n    address borrower; // The borrower of the NFT\n    uint256 borrowing_amount; // The amount needed to be borrowed\n    uint256 apy; // The rate of interest of lending of the NFT\n    uint256 start_time;\n    uint256 paid_back_amount; // The amount paid back to the escrow\n    State state;\n  }\n\n  enum State {\n    OPEN,\n    FINANCED,\n    LIQUIDATED,\n    CLOSED\n  }\n  \n  // List of trades\n  mapping(uint256 => Trade) public trades;\n\n  // A trade was opened by a borrower\n  event OpenedTrade(uint256 trade_id);\n  // A lender has lended money and the trade is now in operation\n  event TradeFinanced(uint256 trade_id);\n  // A trade was closed\n  event ClosedTrade(uint256 trade_id);\n  // Interest paid\n  event PaidInterest(uint256 trade_id, uint256 amount);\n  // Trade Liquidated\n  event LiquidatedTrade(uint256 trade_id);\n\n  constructor(address _address) public {\n    tokensContract = Tokens(_address);\n    trade_ids = 0;\n    // admin = msg.sender;\n  }\n\n  function openTrade(uint256 nft_id, address borrower, uint256 borrowing_amount, uint256 apy) public returns (uint256) {\n    // verify borrower.\n    require(msg.sender == borrower, \"Unauthorized Function Call.\");\n    // Check if the borrower has atleast one of NFT\n    require(tokensContract.balanceOf(borrower, nft_id) >= 1, \"Insufficient NFT balance\");\n    \n    // Create a trade with the current avaiable trade id\n    uint256 trade_id = trade_ids;\n    trades[trade_id] = Trade(nft_id, address(0x0), borrower, borrowing_amount, apy, 0, 0, State.OPEN);\n    trade_ids++; // Increase the trade id by 1 for the next trade\n\n    // Give the contract permission to transfer the borrowers NFT tokens\n    // NOTE: Code for this is temporary and for testing-only\n    // tokensContract.setApprovalForAll(address(this), true);\n\n    // Transfer the NFT from the borrower to this contract\n    tokensContract.safeTransferFrom(msg.sender, address(this), nft_id, 1, \"0x0\");\n    onERC1155Received(msg.sender, borrower, nft_id, 1, \"0x0\");\n\n    // Emit that a trade has been opened\n    emit OpenedTrade(trade_id); \n    return trade_id;\n  }\n\n  function lendToTrade(uint256 trade_id) public returns (bool) {\n    // Check if the trade is still open\n    require(trades[trade_id].state == State.OPEN, \"Trade not open.\");\n    // // Check if the borrower still has the NFT\n    // require(tokensContract.balanceOf(trades[trade_id].borrower, trades[trade_id].nft_id) >= 1, \"Borrower does not have collatoral.\");\n    // Check if the lender has that much Fungible tokens\n    require(tokensContract.balanceOf(msg.sender, 0) >= trades[trade_id].borrowing_amount, \"Lender does not have sufficient fundings.\");\n\n    // Assign the lender, set the state of the trade to FINANCED and start the time\n    trades[trade_id].lender = msg.sender;\n    trades[trade_id].state = State.FINANCED;\n    trades[trade_id].start_time = now;\n\n    // // Give the contract permission to transfer the lenders fungible tokens\n    // // NOTE: Code for this is temporary and for testing-only\n    // tokensContract.setApprovalForAll(address(this), true);\n\n    // Transfer the Fungible tokens from the lender to this contract\n    tokensContract.safeTransferFrom(msg.sender, address(this), 0, trades[trade_id].borrowing_amount, \"0x0\");\n\n    // Emit that the trade has been financed\n    emit TradeFinanced(trade_id);\n    return true;\n  }\n\n  function payInterest(uint256 trade_id, uint256 amount) public returns (bool) {\n    // Make sure the state of the trade is FINANCED\n    require(trades[trade_id].state == State.FINANCED);\n    // Make sure the caller is the trade's borrower\n    require(msg.sender == trades[trade_id].borrower);\n    // Make sure the borrower has enough funds\n    require(tokensContract.balanceOf(msg.sender, 0) >= amount);\n\n    trades[trade_id].paid_back_amount += amount;\n    tokensContract.safeTransferFrom(msg.sender, address(this), 0, amount, \"0x0\");\n    emit PaidInterest(trade_id, amount);\n\n    // Only if the amount paid back is more than the principal could the transaction be complete\n    // Thus we check only if that is the case\n    if (trades[trade_id].paid_back_amount >= trades[trade_id].borrowing_amount) {\n      uint256 seconds_since_start = now - trades[trade_id].start_time;\n      // Formula for Continous compound interest\n      // https://www.investopedia.com/terms/c/continuouscompounding.asp#:~:text=Calculating%20the%20limit%20of%20this,mathematical%20constant%20approximated%20as%202.7183.\n      uint256 amount_to_be_paid = trades[trade_id].borrowing_amount * (uint256(3) ** ((seconds_since_start/31556952) \n        * trades[trade_id].apy));\n      \n\n      if (trades[trade_id].paid_back_amount >= amount_to_be_paid) {\n        completeTrade(trade_id);\n      }\n    }\n\n    return true;\n  }\n\n  function completeTrade(uint256 trade_id) private returns (bool) {\n    // Makes sure the contract still has the NFT and the money - Theoretically always true\n    require(tokensContract.balanceOf(address(this), trades[trade_id].nft_id) >= 1, \"Contract does not have sufficient NFT.\");\n    require(tokensContract.balanceOf(address(this), 0) >= trades[trade_id].paid_back_amount, \"Contract does not have sufficient fungible tokens.\");\n\n    // Transfer the NFT and fungible tokens from the contract to the borrower and lender respectively\n    tokensContract.safeTransferFrom(address(this), trades[trade_id].borrower, trades[trade_id].nft_id, 1, \"0x0\");  \n    tokensContract.safeTransferFrom(address(this), trades[trade_id].lender, 0, trades[trade_id].paid_back_amount, \"0x0\");  \n\n    // Set trade to close state\n    trades[trade_id].state = State.CLOSED;\n\n    // Emit the close trade event\n    emit ClosedTrade(trade_id);\n    return true;\n  }\n\n  function liquidateTrade(uint256 trade_id) public returns (bool) {\n    require(msg.sender == trades[trade_id].lender);\n\n    // Amount to be paid by the borrower to the lender\n    uint256 seconds_since_start = now - trades[trade_id].start_time;\n    uint256 amount_to_be_paid = trades[trade_id].borrowing_amount * (uint256(3) ** ((seconds_since_start/31556952) \n      * trades[trade_id].apy));\n\n    // Condition for liquidity still not determined. For the purpose of initial testing, trade can be liquidated any time.\n    // Later on we need to make so after x amount of interest is acrued, then the contract can be liquidated\n\n    bool can_be_liquidated = true;\n\n    if (can_be_liquidated) {\n      // Makes sure the contract still has the NFT and the money - Theoretically always true\n      require(tokensContract.balanceOf(address(this), trades[trade_id].nft_id) >= 1);\n      require(tokensContract.balanceOf(address(this), 0) >= trades[trade_id].paid_back_amount);\n\n      tokensContract.safeTransferFrom(address(this), trades[trade_id].lender, trades[trade_id].nft_id, 1, \"0x0\");  \n      tokensContract.safeTransferFrom(address(this), trades[trade_id].lender, 0, trades[trade_id].paid_back_amount, \"0x0\");  \n\n      emit LiquidatedTrade(trade_id);\n    } else {\n      return false;\n    }\n  } \n}",
  "sourcePath": "/mnt/d/Projects/Solidity/minecraft-nft/Minecraft-NFT-Server/smart-contracts/contracts/DeFi.sol",
  "compiler": {
    "name": "solc",
    "version": "0.6.12+commit.27d51765.Emscripten.clang"
  },
  "schemaVersion": "3.3.2",
  "updatedAt": "2020-12-07T01:30:16.507Z",
  "networkType": "ethereum",
  "devdoc": {
    "kind": "dev",
    "methods": {
      "supportsInterface(bytes4)": {
        "details": "See {IERC165-supportsInterface}. Time complexity O(1), guaranteed to always use less than 30 000 gas."
      }
    },
    "version": 1
  },
  "userdoc": {
    "kind": "user",
    "methods": {},
    "version": 1
  }
}