{
  "contractName": "DeFi",
  "abi": [
    {
      "inputs": [],
      "stateMutability": "nonpayable",
      "type": "constructor"
    },
    {
      "anonymous": false,
      "inputs": [
        {
          "indexed": true,
          "internalType": "address",
          "name": "account",
          "type": "address"
        },
        {
          "indexed": true,
          "internalType": "address",
          "name": "operator",
          "type": "address"
        },
        {
          "indexed": false,
          "internalType": "bool",
          "name": "approved",
          "type": "bool"
        }
      ],
      "name": "ApprovalForAll",
      "type": "event"
    },
    {
      "anonymous": false,
      "inputs": [
        {
          "indexed": false,
          "internalType": "uint256",
          "name": "trade_id",
          "type": "uint256"
        }
      ],
      "name": "ClosedTrade",
      "type": "event"
    },
    {
      "anonymous": false,
      "inputs": [
        {
          "indexed": false,
          "internalType": "uint256",
          "name": "trade_id",
          "type": "uint256"
        }
      ],
      "name": "LiquidatedTrade",
      "type": "event"
    },
    {
      "anonymous": false,
      "inputs": [
        {
          "indexed": false,
          "internalType": "uint256",
          "name": "trade_id",
          "type": "uint256"
        }
      ],
      "name": "OpenedTrade",
      "type": "event"
    },
    {
      "anonymous": false,
      "inputs": [
        {
          "indexed": false,
          "internalType": "uint256",
          "name": "trade_id",
          "type": "uint256"
        },
        {
          "indexed": false,
          "internalType": "uint256",
          "name": "amount",
          "type": "uint256"
        }
      ],
      "name": "PaidInterest",
      "type": "event"
    },
    {
      "anonymous": false,
      "inputs": [
        {
          "indexed": false,
          "internalType": "uint256",
          "name": "trade_id",
          "type": "uint256"
        }
      ],
      "name": "TradeFinanced",
      "type": "event"
    },
    {
      "anonymous": false,
      "inputs": [
        {
          "indexed": true,
          "internalType": "address",
          "name": "operator",
          "type": "address"
        },
        {
          "indexed": true,
          "internalType": "address",
          "name": "from",
          "type": "address"
        },
        {
          "indexed": true,
          "internalType": "address",
          "name": "to",
          "type": "address"
        },
        {
          "indexed": false,
          "internalType": "uint256[]",
          "name": "ids",
          "type": "uint256[]"
        },
        {
          "indexed": false,
          "internalType": "uint256[]",
          "name": "values",
          "type": "uint256[]"
        }
      ],
      "name": "TransferBatch",
      "type": "event"
    },
    {
      "anonymous": false,
      "inputs": [
        {
          "indexed": true,
          "internalType": "address",
          "name": "operator",
          "type": "address"
        },
        {
          "indexed": true,
          "internalType": "address",
          "name": "from",
          "type": "address"
        },
        {
          "indexed": true,
          "internalType": "address",
          "name": "to",
          "type": "address"
        },
        {
          "indexed": false,
          "internalType": "uint256",
          "name": "id",
          "type": "uint256"
        },
        {
          "indexed": false,
          "internalType": "uint256",
          "name": "value",
          "type": "uint256"
        }
      ],
      "name": "TransferSingle",
      "type": "event"
    },
    {
      "anonymous": false,
      "inputs": [
        {
          "indexed": false,
          "internalType": "string",
          "name": "value",
          "type": "string"
        },
        {
          "indexed": true,
          "internalType": "uint256",
          "name": "id",
          "type": "uint256"
        }
      ],
      "name": "URI",
      "type": "event"
    },
    {
      "inputs": [],
      "name": "EMERALDS",
      "outputs": [
        {
          "internalType": "uint256",
          "name": "",
          "type": "uint256"
        }
      ],
      "stateMutability": "view",
      "type": "function",
      "constant": true
    },
    {
      "inputs": [],
      "name": "EMERALDS_total_supply",
      "outputs": [
        {
          "internalType": "uint256",
          "name": "",
          "type": "uint256"
        }
      ],
      "stateMutability": "view",
      "type": "function",
      "constant": true
    },
    {
      "inputs": [],
      "name": "LUCKY_POTION",
      "outputs": [
        {
          "internalType": "uint256",
          "name": "",
          "type": "uint256"
        }
      ],
      "stateMutability": "view",
      "type": "function",
      "constant": true
    },
    {
      "inputs": [],
      "name": "LUCKY_POTION_total_supply",
      "outputs": [
        {
          "internalType": "uint256",
          "name": "",
          "type": "uint256"
        }
      ],
      "stateMutability": "view",
      "type": "function",
      "constant": true
    },
    {
      "inputs": [],
      "name": "SWORD",
      "outputs": [
        {
          "internalType": "uint256",
          "name": "",
          "type": "uint256"
        }
      ],
      "stateMutability": "view",
      "type": "function",
      "constant": true
    },
    {
      "inputs": [],
      "name": "SWORD_total_supply",
      "outputs": [
        {
          "internalType": "uint256",
          "name": "",
          "type": "uint256"
        }
      ],
      "stateMutability": "view",
      "type": "function",
      "constant": true
    },
    {
      "inputs": [
        {
          "internalType": "address",
          "name": "account",
          "type": "address"
        },
        {
          "internalType": "uint256",
          "name": "id",
          "type": "uint256"
        }
      ],
      "name": "balanceOf",
      "outputs": [
        {
          "internalType": "uint256",
          "name": "",
          "type": "uint256"
        }
      ],
      "stateMutability": "view",
      "type": "function",
      "constant": true
    },
    {
      "inputs": [
        {
          "internalType": "address[]",
          "name": "accounts",
          "type": "address[]"
        },
        {
          "internalType": "uint256[]",
          "name": "ids",
          "type": "uint256[]"
        }
      ],
      "name": "balanceOfBatch",
      "outputs": [
        {
          "internalType": "uint256[]",
          "name": "",
          "type": "uint256[]"
        }
      ],
      "stateMutability": "view",
      "type": "function",
      "constant": true
    },
    {
      "inputs": [
        {
          "internalType": "address",
          "name": "account",
          "type": "address"
        },
        {
          "internalType": "address",
          "name": "operator",
          "type": "address"
        }
      ],
      "name": "isApprovedForAll",
      "outputs": [
        {
          "internalType": "bool",
          "name": "",
          "type": "bool"
        }
      ],
      "stateMutability": "view",
      "type": "function",
      "constant": true
    },
    {
      "inputs": [
        {
          "internalType": "address",
          "name": "from",
          "type": "address"
        },
        {
          "internalType": "address",
          "name": "to",
          "type": "address"
        },
        {
          "internalType": "uint256[]",
          "name": "ids",
          "type": "uint256[]"
        },
        {
          "internalType": "uint256[]",
          "name": "amounts",
          "type": "uint256[]"
        },
        {
          "internalType": "bytes",
          "name": "data",
          "type": "bytes"
        }
      ],
      "name": "safeBatchTransferFrom",
      "outputs": [],
      "stateMutability": "nonpayable",
      "type": "function"
    },
    {
      "inputs": [
        {
          "internalType": "address",
          "name": "from",
          "type": "address"
        },
        {
          "internalType": "address",
          "name": "to",
          "type": "address"
        },
        {
          "internalType": "uint256",
          "name": "id",
          "type": "uint256"
        },
        {
          "internalType": "uint256",
          "name": "amount",
          "type": "uint256"
        },
        {
          "internalType": "bytes",
          "name": "data",
          "type": "bytes"
        }
      ],
      "name": "safeTransferFrom",
      "outputs": [],
      "stateMutability": "nonpayable",
      "type": "function"
    },
    {
      "inputs": [
        {
          "internalType": "address",
          "name": "operator",
          "type": "address"
        },
        {
          "internalType": "bool",
          "name": "approved",
          "type": "bool"
        }
      ],
      "name": "setApprovalForAll",
      "outputs": [],
      "stateMutability": "nonpayable",
      "type": "function"
    },
    {
      "inputs": [
        {
          "internalType": "bytes4",
          "name": "interfaceId",
          "type": "bytes4"
        }
      ],
      "name": "supportsInterface",
      "outputs": [
        {
          "internalType": "bool",
          "name": "",
          "type": "bool"
        }
      ],
      "stateMutability": "view",
      "type": "function",
      "constant": true
    },
    {
      "inputs": [
        {
          "internalType": "uint256",
          "name": "",
          "type": "uint256"
        }
      ],
      "name": "trades",
      "outputs": [
        {
          "internalType": "uint256",
          "name": "nft_id",
          "type": "uint256"
        },
        {
          "internalType": "address",
          "name": "lender",
          "type": "address"
        },
        {
          "internalType": "address",
          "name": "borrower",
          "type": "address"
        },
        {
          "internalType": "uint256",
          "name": "borrowing_amount",
          "type": "uint256"
        },
        {
          "internalType": "uint256",
          "name": "apy",
          "type": "uint256"
        },
        {
          "internalType": "uint256",
          "name": "start_time",
          "type": "uint256"
        },
        {
          "internalType": "uint256",
          "name": "paid_back_amount",
          "type": "uint256"
        },
        {
          "internalType": "enum DeFi.State",
          "name": "state",
          "type": "uint8"
        }
      ],
      "stateMutability": "view",
      "type": "function",
      "constant": true
    },
    {
      "inputs": [
        {
          "internalType": "uint256",
          "name": "",
          "type": "uint256"
        }
      ],
      "name": "uri",
      "outputs": [
        {
          "internalType": "string",
          "name": "",
          "type": "string"
        }
      ],
      "stateMutability": "view",
      "type": "function",
      "constant": true
    },
    {
      "inputs": [
        {
          "internalType": "uint256",
          "name": "nft_id",
          "type": "uint256"
        },
        {
          "internalType": "address",
          "name": "borrower",
          "type": "address"
        },
        {
          "internalType": "uint256",
          "name": "borrowing_amount",
          "type": "uint256"
        },
        {
          "internalType": "uint256",
          "name": "apy",
          "type": "uint256"
        }
      ],
      "name": "openTrade",
      "outputs": [
        {
          "internalType": "uint256",
          "name": "",
          "type": "uint256"
        }
      ],
      "stateMutability": "nonpayable",
      "type": "function"
    },
    {
      "inputs": [
        {
          "internalType": "uint256",
          "name": "trade_id",
          "type": "uint256"
        }
      ],
      "name": "lendToTrade",
      "outputs": [
        {
          "internalType": "bool",
          "name": "",
          "type": "bool"
        }
      ],
      "stateMutability": "nonpayable",
      "type": "function"
    },
    {
      "inputs": [
        {
          "internalType": "uint256",
          "name": "trade_id",
          "type": "uint256"
        },
        {
          "internalType": "uint256",
          "name": "amount",
          "type": "uint256"
        }
      ],
      "name": "payInterest",
      "outputs": [
        {
          "internalType": "bool",
          "name": "",
          "type": "bool"
        }
      ],
      "stateMutability": "nonpayable",
      "type": "function"
    },
    {
      "inputs": [
        {
          "internalType": "uint256",
          "name": "trade_id",
          "type": "uint256"
        }
      ],
      "name": "liquidateTrade",
      "outputs": [
        {
          "internalType": "bool",
          "name": "",
          "type": "bool"
        }
      ],
      "stateMutability": "nonpayable",
      "type": "function"
    }
  ],
  "bytecode": "0x60806040526509184e72a0006004556005805560026006553480156200002457600080fd5b506040518060400160405280602081526020017f687474703a2f2f6c6f63616c686f73743a383030302f6974656d2f7b69647d2f815250620000736301ffc9a760e01b6200013560201b60201c565b62000084816200023e60201b60201c565b6200009c63d9b67a2660e01b6200013560201b60201c565b620000b4630e89341c60e01b6200013560201b60201c565b50620000db336000600454604051806020016040528060008152506200025a60201b60201c565b62000101336005546005604051806020016040528060008152506200025a60201b60201c565b62000127336006546002604051806020016040528060008152506200025a60201b60201c565b600060078190555062000a61565b63ffffffff60e01b817bffffffffffffffffffffffffffffffffffffffffffffffffffffffff19161415620001d2576040517f08c379a000000000000000000000000000000000000000000000000000000000815260040180806020018281038252601c8152602001807f4552433136353a20696e76616c696420696e746572666163652069640000000081525060200191505060405180910390fd5b6001600080837bffffffffffffffffffffffffffffffffffffffffffffffffffffffff19167bffffffffffffffffffffffffffffffffffffffffffffffffffffffff1916815260200190815260200160002060006101000a81548160ff02191690831515021790555050565b806003908051906020019062000256929190620008d9565b5050565b600073ffffffffffffffffffffffffffffffffffffffff168473ffffffffffffffffffffffffffffffffffffffff161415620002e2576040517f08c379a000000000000000000000000000000000000000000000000000000000815260040180806020018281038252602181526020018062003b5e6021913960400191505060405180910390fd5b6000620002f46200048e60201b60201c565b90506200032d816000876200030f886200049660201b60201c565b62000320886200049660201b60201c565b876200050960201b60201c565b62000397836001600087815260200190815260200160002060008873ffffffffffffffffffffffffffffffffffffffff1673ffffffffffffffffffffffffffffffffffffffff168152602001908152602001600020546200051160201b620023421790919060201c565b6001600086815260200190815260200160002060008773ffffffffffffffffffffffffffffffffffffffff1673ffffffffffffffffffffffffffffffffffffffff168152602001908152602001600020819055508473ffffffffffffffffffffffffffffffffffffffff16600073ffffffffffffffffffffffffffffffffffffffff168273ffffffffffffffffffffffffffffffffffffffff167fc3d58168c5ae7397731d063d5bbf3d657854427343f4c083240f7aacaa2d0f628787604051808381526020018281526020019250505060405180910390a462000487816000878787876200059a60201b60201c565b5050505050565b600033905090565b606080600167ffffffffffffffff81118015620004b257600080fd5b50604051908082528060200260200182016040528015620004e25781602001602082028036833780820191505090505b5090508281600081518110620004f457fe5b60200260200101818152505080915050919050565b505050505050565b60008082840190508381101562000590576040517f08c379a000000000000000000000000000000000000000000000000000000000815260040180806020018281038252601b8152602001807f536166654d6174683a206164646974696f6e206f766572666c6f77000000000081525060200191505060405180910390fd5b8091505092915050565b620005c68473ffffffffffffffffffffffffffffffffffffffff16620008c660201b620023ca1760201c565b15620008be578373ffffffffffffffffffffffffffffffffffffffff1663f23a6e6187878686866040518663ffffffff1660e01b8152600401808673ffffffffffffffffffffffffffffffffffffffff1681526020018573ffffffffffffffffffffffffffffffffffffffff16815260200184815260200183815260200180602001828103825283818151815260200191508051906020019080838360005b838110156200068257808201518184015260208101905062000665565b50505050905090810190601f168015620006b05780820380516001836020036101000a031916815260200191505b509650505050505050602060405180830381600087803b158015620006d457600080fd5b505af19250505080156200070a57506040513d6020811015620006f657600080fd5b810190808051906020019092919050505060015b6200081d57620007196200099d565b80620007265750620007cb565b806040517f08c379a00000000000000000000000000000000000000000000000000000000081526004018080602001828103825283818151815260200191508051906020019080838360005b838110156200078f57808201518184015260208101905062000772565b50505050905090810190601f168015620007bd5780820380516001836020036101000a031916815260200191505b509250505060405180910390fd5b6040517f08c379a000000000000000000000000000000000000000000000000000000000815260040180806020018281038252603481526020018062003b026034913960400191505060405180910390fd5b63f23a6e6160e01b7bffffffffffffffffffffffffffffffffffffffffffffffffffffffff1916817bffffffffffffffffffffffffffffffffffffffffffffffffffffffff191614620008bc576040517f08c379a000000000000000000000000000000000000000000000000000000000815260040180806020018281038252602881526020018062003b366028913960400191505060405180910390fd5b505b505050505050565b600080823b905060008111915050919050565b828054600181600116156101000203166002900490600052602060002090601f016020900481019282601f106200091c57805160ff19168380011785556200094d565b828001600101855582156200094d579182015b828111156200094c5782518255916020019190600101906200092f565b5b5090506200095c919062000960565b5090565b5b808211156200097b57600081600090555060010162000961565b5090565b6000601f19601f8301169050919050565b60008160e01c9050919050565b600060443d1015620009af5762000a5e565b60046000803e620009c260005162000990565b6308c379a08114620009d5575062000a5e565b60405160043d036004823e80513d602482011167ffffffffffffffff8211171562000a035750505062000a5e565b808201805167ffffffffffffffff81111562000a2457505050505062000a5e565b8060208301013d850181111562000a415750505050505062000a5e565b62000a4c826200097f565b60208401016040528296505050505050505b90565b6130918062000a716000396000f3fe608060405234801561001057600080fd5b50600436106101205760003560e01c80632eb2c2d6116100ad578063a22cb46511610071578063a22cb4651461086d578063e985e9c5146108bd578063f242432a14610937578063f5b5adf214610a46578063ff4ba23d14610a8a57610120565b80632eb2c2d6146103f75780634b43c8101461061a5780634e1273f41461063857806357b8c349146107d95780639c1daa271461084f57610120565b8063183e6a69116100f4578063183e6a69146102af5780631d05b48f146102cd5780631e6c598e146102eb5780632623ac621461039557806328e10fdf146103b357610120565b8062fdd58e1461012557806301ffc9a7146101875780630e89341c146101ea57806313dc989f14610291575b600080fd5b6101716004803603604081101561013b57600080fd5b81019080803573ffffffffffffffffffffffffffffffffffffffff16906020019092919080359060200190929190505050610ad8565b6040518082815260200191505060405180910390f35b6101d26004803603602081101561019d57600080fd5b8101908080357bffffffffffffffffffffffffffffffffffffffffffffffffffffffff19169060200190929190505050610bb8565b60405180821515815260200191505060405180910390f35b6102166004803603602081101561020057600080fd5b8101908080359060200190929190505050610c1f565b6040518080602001828103825283818151815260200191508051906020019080838360005b8381101561025657808201518184015260208101905061023b565b50505050905090810190601f1680156102835780820380516001836020036101000a031916815260200191505b509250505060405180910390f35b610299610cc3565b6040518082815260200191505060405180910390f35b6102b7610cc8565b6040518082815260200191505060405180910390f35b6102d5610cce565b6040518082815260200191505060405180910390f35b6103176004803603602081101561030157600080fd5b8101908080359060200190929190505050610cd4565b604051808981526020018873ffffffffffffffffffffffffffffffffffffffff1681526020018773ffffffffffffffffffffffffffffffffffffffff16815260200186815260200185815260200184815260200183815260200182600381111561037d57fe5b81526020019850505050505050505060405180910390f35b61039d610d69565b6040518082815260200191505060405180910390f35b6103df600480360360208110156103c957600080fd5b8101908080359060200190929190505050610d6e565b60405180821515815260200191505060405180910390f35b610618600480360360a081101561040d57600080fd5b81019080803573ffffffffffffffffffffffffffffffffffffffff169060200190929190803573ffffffffffffffffffffffffffffffffffffffff1690602001909291908035906020019064010000000081111561046a57600080fd5b82018360208201111561047c57600080fd5b8035906020019184602083028401116401000000008311171561049e57600080fd5b919080806020026020016040519081016040528093929190818152602001838360200280828437600081840152601f19601f820116905080830192505050505050509192919290803590602001906401000000008111156104fe57600080fd5b82018360208201111561051057600080fd5b8035906020019184602083028401116401000000008311171561053257600080fd5b919080806020026020016040519081016040528093929190818152602001838360200280828437600081840152601f19601f8201169050808301925050505050505091929192908035906020019064010000000081111561059257600080fd5b8201836020820111156105a457600080fd5b803590602001918460018302840111640100000000831117156105c657600080fd5b91908080601f016020809104026020016040519081016040528093929190818152602001838380828437600081840152601f19601f82011690508083019250505050505050919291929050505061104b565b005b6106226114d6565b6040518082815260200191505060405180910390f35b6107826004803603604081101561064e57600080fd5b810190808035906020019064010000000081111561066b57600080fd5b82018360208201111561067d57600080fd5b8035906020019184602083028401116401000000008311171561069f57600080fd5b919080806020026020016040519081016040528093929190818152602001838360200280828437600081840152601f19601f820116905080830192505050505050509192919290803590602001906401000000008111156106ff57600080fd5b82018360208201111561071157600080fd5b8035906020019184602083028401116401000000008311171561073357600080fd5b919080806020026020016040519081016040528093929190818152602001838360200280828437600081840152601f19601f8201169050808301925050505050505091929192905050506114db565b6040518080602001828103825283818151815260200191508051906020019060200280838360005b838110156107c55780820151818401526020810190506107aa565b505050509050019250505060405180910390f35b610839600480360360808110156107ef57600080fd5b8101908080359060200190929190803573ffffffffffffffffffffffffffffffffffffffff16906020019092919080359060200190929190803590602001909291905050506116cd565b6040518082815260200191505060405180910390f35b6108576118b6565b6040518082815260200191505060405180910390f35b6108bb6004803603604081101561088357600080fd5b81019080803573ffffffffffffffffffffffffffffffffffffffff1690602001909291908035151590602001909291905050506118bc565b005b61091f600480360360408110156108d357600080fd5b81019080803573ffffffffffffffffffffffffffffffffffffffff169060200190929190803573ffffffffffffffffffffffffffffffffffffffff169060200190929190505050611a55565b60405180821515815260200191505060405180910390f35b610a44600480360360a081101561094d57600080fd5b81019080803573ffffffffffffffffffffffffffffffffffffffff169060200190929190803573ffffffffffffffffffffffffffffffffffffffff1690602001909291908035906020019092919080359060200190929190803590602001906401000000008111156109be57600080fd5b8201836020820111156109d057600080fd5b803590602001918460018302840111640100000000831117156109f257600080fd5b91908080601f016020809104026020016040519081016040528093929190818152602001838380828437600081840152601f19601f820116905080830192505050505050509192919290505050611ae9565b005b610a7260048036036020811015610a5c57600080fd5b8101908080359060200190929190505050611e5e565b60405180821515815260200191505060405180910390f35b610ac060048036036040811015610aa057600080fd5b810190808035906020019092919080359060200190929190505050612105565b60405180821515815260200191505060405180910390f35b60008073ffffffffffffffffffffffffffffffffffffffff168373ffffffffffffffffffffffffffffffffffffffff161415610b5f576040517f08c379a000000000000000000000000000000000000000000000000000000000815260040180806020018281038252602b815260200180612edc602b913960400191505060405180910390fd5b6001600083815260200190815260200160002060008473ffffffffffffffffffffffffffffffffffffffff1673ffffffffffffffffffffffffffffffffffffffff16815260200190815260200160002054905092915050565b6000806000837bffffffffffffffffffffffffffffffffffffffffffffffffffffffff19167bffffffffffffffffffffffffffffffffffffffffffffffffffffffff1916815260200190815260200160002060009054906101000a900460ff169050919050565b606060038054600181600116156101000203166002900480601f016020809104026020016040519081016040528092919081815260200182805460018160011615610100020316600290048015610cb75780601f10610c8c57610100808354040283529160200191610cb7565b820191906000526020600020905b815481529060010190602001808311610c9a57829003601f168201915b50505050509050919050565b600181565b60045481565b60065481565b60086020528060005260406000206000915090508060000154908060010160009054906101000a900473ffffffffffffffffffffffffffffffffffffffff16908060020160009054906101000a900473ffffffffffffffffffffffffffffffffffffffff16908060030154908060040154908060050154908060060154908060070160009054906101000a900460ff16905088565b600281565b6000806003811115610d7c57fe5b6008600084815260200190815260200160002060070160009054906101000a900460ff166003811115610dab57fe5b14610db557600080fd5b6001610e0d6008600085815260200190815260200160002060020160009054906101000a900473ffffffffffffffffffffffffffffffffffffffff166008600086815260200190815260200160002060000154610ad8565b1015610e1857600080fd5b6008600083815260200190815260200160002060030154610e3a336000610ad8565b1015610e4557600080fd5b336008600084815260200190815260200160002060010160006101000a81548173ffffffffffffffffffffffffffffffffffffffff021916908373ffffffffffffffffffffffffffffffffffffffff16021790555060016008600084815260200190815260200160002060070160006101000a81548160ff02191690836003811115610ecd57fe5b0217905550426008600084815260200190815260200160002060050181905550610f7c6008600084815260200190815260200160002060020160009054906101000a900473ffffffffffffffffffffffffffffffffffffffff1630600860008681526020019081526020016000206000015460016040518060400160405280600381526020017f3078300000000000000000000000000000000000000000000000000000000000815250611ae9565b61100b6008600084815260200190815260200160002060010160009054906101000a900473ffffffffffffffffffffffffffffffffffffffff1630600060086000878152602001908152602001600020600301546040518060400160405280600381526020017f3078300000000000000000000000000000000000000000000000000000000000815250611ae9565b7f64b29278572264547a9b59e27408f2d487f0d4dbe21deb0a84a292f4d0b4960f826040518082815260200191505060405180910390a160019050919050565b81518351146110a5576040517f08c379a00000000000000000000000000000000000000000000000000000000081526004018080602001828103825260288152602001806130346028913960400191505060405180910390fd5b600073ffffffffffffffffffffffffffffffffffffffff168473ffffffffffffffffffffffffffffffffffffffff16141561112b576040517f08c379a0000000000000000000000000000000000000000000000000000000008152600401808060200182810382526025815260200180612f616025913960400191505060405180910390fd5b6111336123dd565b73ffffffffffffffffffffffffffffffffffffffff168573ffffffffffffffffffffffffffffffffffffffff1614806111795750611178856111736123dd565b611a55565b5b6111ce576040517f08c379a0000000000000000000000000000000000000000000000000000000008152600401808060200182810382526032815260200180612f866032913960400191505060405180910390fd5b60006111d86123dd565b90506111e88187878787876123e5565b60005b84518110156113b957600085828151811061120257fe5b60200260200101519050600085838151811061121a57fe5b602002602001015190506112a1816040518060600160405280602a8152602001612fb8602a91396001600086815260200190815260200160002060008d73ffffffffffffffffffffffffffffffffffffffff1673ffffffffffffffffffffffffffffffffffffffff168152602001908152602001600020546123ed9092919063ffffffff16565b6001600084815260200190815260200160002060008b73ffffffffffffffffffffffffffffffffffffffff1673ffffffffffffffffffffffffffffffffffffffff16815260200190815260200160002081905550611358816001600085815260200190815260200160002060008b73ffffffffffffffffffffffffffffffffffffffff1673ffffffffffffffffffffffffffffffffffffffff1681526020019081526020016000205461234290919063ffffffff16565b6001600084815260200190815260200160002060008a73ffffffffffffffffffffffffffffffffffffffff1673ffffffffffffffffffffffffffffffffffffffff1681526020019081526020016000208190555050508060010190506111eb565b508473ffffffffffffffffffffffffffffffffffffffff168673ffffffffffffffffffffffffffffffffffffffff168273ffffffffffffffffffffffffffffffffffffffff167f4a39dc06d4c0dbc64b70af90fd698a233a518aa5d07e595d983b8c0526c8f7fb8787604051808060200180602001838103835285818151815260200191508051906020019060200280838360005b8381101561146957808201518184015260208101905061144e565b50505050905001838103825284818151815260200191508051906020019060200280838360005b838110156114ab578082015181840152602081019050611490565b5050505090500194505050505060405180910390a46114ce8187878787876124ad565b505050505050565b600081565b60608151835114611537576040517f08c379a000000000000000000000000000000000000000000000000000000000815260040180806020018281038252602981526020018061300b6029913960400191505060405180910390fd5b6060835167ffffffffffffffff8111801561155157600080fd5b506040519080825280602002602001820160405280156115805781602001602082028036833780820191505090505b50905060005b84518110156116c257600073ffffffffffffffffffffffffffffffffffffffff168582815181106115b357fe5b602002602001015173ffffffffffffffffffffffffffffffffffffffff161415611628576040517f08c379a0000000000000000000000000000000000000000000000000000000008152600401808060200182810382526031815260200180612f076031913960400191505060405180910390fd5b6001600085838151811061163857fe5b60200260200101518152602001908152602001600020600086838151811061165c57fe5b602002602001015173ffffffffffffffffffffffffffffffffffffffff1673ffffffffffffffffffffffffffffffffffffffff168152602001908152602001600020548282815181106116ab57fe5b602002602001018181525050806001019050611586565b508091505092915050565b600060016116db8587610ad8565b10156116e657600080fd5b60006007549050604051806101000160405280878152602001600073ffffffffffffffffffffffffffffffffffffffff1681526020018673ffffffffffffffffffffffffffffffffffffffff16815260200185815260200184815260200160008152602001600081526020016000600381111561175f57fe5b815250600860008381526020019081526020016000206000820151816000015560208201518160010160006101000a81548173ffffffffffffffffffffffffffffffffffffffff021916908373ffffffffffffffffffffffffffffffffffffffff16021790555060408201518160020160006101000a81548173ffffffffffffffffffffffffffffffffffffffff021916908373ffffffffffffffffffffffffffffffffffffffff160217905550606082015181600301556080820151816004015560a0820151816005015560c0820151816006015560e08201518160070160006101000a81548160ff0219169083600381111561185957fe5b02179055509050506007600081548092919060010191905055507f43f9ba287b861d4cba1b8180d27de743073c39d88b83dfa197b9844eed0de184816040518082815260200191505060405180910390a180915050949350505050565b60055481565b8173ffffffffffffffffffffffffffffffffffffffff166118db6123dd565b73ffffffffffffffffffffffffffffffffffffffff161415611948576040517f08c379a0000000000000000000000000000000000000000000000000000000008152600401808060200182810382526029815260200180612fe26029913960400191505060405180910390fd5b80600260006119556123dd565b73ffffffffffffffffffffffffffffffffffffffff1673ffffffffffffffffffffffffffffffffffffffff16815260200190815260200160002060008473ffffffffffffffffffffffffffffffffffffffff1673ffffffffffffffffffffffffffffffffffffffff16815260200190815260200160002060006101000a81548160ff0219169083151502179055508173ffffffffffffffffffffffffffffffffffffffff16611a026123dd565b73ffffffffffffffffffffffffffffffffffffffff167f17307eab39ab6107e8899845ad3d59bd9653f200f220920489ca2b5937696c318360405180821515815260200191505060405180910390a35050565b6000600260008473ffffffffffffffffffffffffffffffffffffffff1673ffffffffffffffffffffffffffffffffffffffff16815260200190815260200160002060008373ffffffffffffffffffffffffffffffffffffffff1673ffffffffffffffffffffffffffffffffffffffff16815260200190815260200160002060009054906101000a900460ff16905092915050565b600073ffffffffffffffffffffffffffffffffffffffff168473ffffffffffffffffffffffffffffffffffffffff161415611b6f576040517f08c379a0000000000000000000000000000000000000000000000000000000008152600401808060200182810382526025815260200180612f616025913960400191505060405180910390fd5b611b776123dd565b73ffffffffffffffffffffffffffffffffffffffff168573ffffffffffffffffffffffffffffffffffffffff161480611bbd5750611bbc85611bb76123dd565b611a55565b5b611c12576040517f08c379a0000000000000000000000000000000000000000000000000000000008152600401808060200182810382526029815260200180612f386029913960400191505060405180910390fd5b6000611c1c6123dd565b9050611c3c818787611c2d8861283c565b611c368861283c565b876123e5565b611cb9836040518060600160405280602a8152602001612fb8602a91396001600088815260200190815260200160002060008a73ffffffffffffffffffffffffffffffffffffffff1673ffffffffffffffffffffffffffffffffffffffff168152602001908152602001600020546123ed9092919063ffffffff16565b6001600086815260200190815260200160002060008873ffffffffffffffffffffffffffffffffffffffff1673ffffffffffffffffffffffffffffffffffffffff16815260200190815260200160002081905550611d70836001600087815260200190815260200160002060008873ffffffffffffffffffffffffffffffffffffffff1673ffffffffffffffffffffffffffffffffffffffff1681526020019081526020016000205461234290919063ffffffff16565b6001600086815260200190815260200160002060008773ffffffffffffffffffffffffffffffffffffffff1673ffffffffffffffffffffffffffffffffffffffff168152602001908152602001600020819055508473ffffffffffffffffffffffffffffffffffffffff168673ffffffffffffffffffffffffffffffffffffffff168273ffffffffffffffffffffffffffffffffffffffff167fc3d58168c5ae7397731d063d5bbf3d657854427343f4c083240f7aacaa2d0f628787604051808381526020018281526020019250505060405180910390a4611e568187878787876128ac565b505050505050565b60006008600083815260200190815260200160002060010160009054906101000a900473ffffffffffffffffffffffffffffffffffffffff1673ffffffffffffffffffffffffffffffffffffffff163373ffffffffffffffffffffffffffffffffffffffff1614611ece57600080fd5b6000600860008481526020019081526020016000206005015442039050600060086000858152602001908152602001600020600401546301e185588381611f1157fe5b040260030a600860008681526020019081526020016000206003015402905060006001905080156120f0576001611f5e306008600089815260200190815260200160002060000154610ad8565b1015611f6957600080fd5b6008600086815260200190815260200160002060060154611f8b306000610ad8565b1015611f9657600080fd5b612025306008600088815260200190815260200160002060010160009054906101000a900473ffffffffffffffffffffffffffffffffffffffff16600860008981526020019081526020016000206000015460016040518060400160405280600381526020017f3078300000000000000000000000000000000000000000000000000000000000815250611ae9565b6120b4306008600088815260200190815260200160002060010160009054906101000a900473ffffffffffffffffffffffffffffffffffffffff166000600860008a8152602001908152602001600020600601546040518060400160405280600381526020017f3078300000000000000000000000000000000000000000000000000000000000815250611ae9565b7f23e82051487d5db44eb520eb79ace3df40a8e978aa477a271a4f622c377dcdbe856040518082815260200191505060405180910390a16120fc565b60009350505050612100565b5050505b919050565b60006001600381111561211457fe5b6008600085815260200190815260200160002060070160009054906101000a900460ff16600381111561214357fe5b1461214d57600080fd5b6008600084815260200190815260200160002060020160009054906101000a900473ffffffffffffffffffffffffffffffffffffffff1673ffffffffffffffffffffffffffffffffffffffff163373ffffffffffffffffffffffffffffffffffffffff16146121bb57600080fd5b816121c7336000610ad8565b10156121d257600080fd5b81600860008581526020019081526020016000206006016000828254019250508190555061223933306000856040518060400160405280600381526020017f3078300000000000000000000000000000000000000000000000000000000000815250611ae9565b7fa6433e052d3ec1c5a37fc02e253a4fda8de4777e2a3f929e5f9418bdb21afa1b8383604051808381526020018281526020019250505060405180910390a16008600084815260200190815260200160002060030154600860008581526020019081526020016000206006015410612338576000600860008581526020019081526020016000206005015442039050600060086000868152602001908152602001600020600401546301e1855883816122ee57fe5b040260030a6008600087815260200190815260200160002060030154029050806008600087815260200190815260200160002060060154106123355761233385612bb9565b505b50505b6001905092915050565b6000808284019050838110156123c0576040517f08c379a000000000000000000000000000000000000000000000000000000000815260040180806020018281038252601b8152602001807f536166654d6174683a206164646974696f6e206f766572666c6f77000000000081525060200191505060405180910390fd5b8091505092915050565b600080823b905060008111915050919050565b600033905090565b505050505050565b600083831115829061249a576040517f08c379a00000000000000000000000000000000000000000000000000000000081526004018080602001828103825283818151815260200191508051906020019080838360005b8381101561245f578082015181840152602081019050612444565b50505050905090810190601f16801561248c5780820380516001836020036101000a031916815260200191505b509250505060405180910390fd5b5060008385039050809150509392505050565b6124cc8473ffffffffffffffffffffffffffffffffffffffff166123ca565b15612834578373ffffffffffffffffffffffffffffffffffffffff1663bc197c8187878686866040518663ffffffff1660e01b8152600401808673ffffffffffffffffffffffffffffffffffffffff1681526020018573ffffffffffffffffffffffffffffffffffffffff168152602001806020018060200180602001848103845287818151815260200191508051906020019060200280838360005b83811015612584578082015181840152602081019050612569565b50505050905001848103835286818151815260200191508051906020019060200280838360005b838110156125c65780820151818401526020810190506125ab565b50505050905001848103825285818151815260200191508051906020019080838360005b838110156126055780820151818401526020810190506125ea565b50505050905090810190601f1680156126325780820380516001836020036101000a031916815260200191505b5098505050505050505050602060405180830381600087803b15801561265757600080fd5b505af192505050801561268b57506040513d602081101561267757600080fd5b810190808051906020019092919050505060015b61279557612697612dc9565b806126a25750612744565b806040517f08c379a00000000000000000000000000000000000000000000000000000000081526004018080602001828103825283818151815260200191508051906020019080838360005b838110156127095780820151818401526020810190506126ee565b50505050905090810190601f1680156127365780820380516001836020036101000a031916815260200191505b509250505060405180910390fd5b6040517f08c379a0000000000000000000000000000000000000000000000000000000008152600401808060200182810382526034815260200180612e806034913960400191505060405180910390fd5b63bc197c8160e01b7bffffffffffffffffffffffffffffffffffffffffffffffffffffffff1916817bffffffffffffffffffffffffffffffffffffffffffffffffffffffff191614612832576040517f08c379a0000000000000000000000000000000000000000000000000000000008152600401808060200182810382526028815260200180612eb46028913960400191505060405180910390fd5b505b505050505050565b606080600167ffffffffffffffff8111801561285757600080fd5b506040519080825280602002602001820160405280156128865781602001602082028036833780820191505090505b509050828160008151811061289757fe5b60200260200101818152505080915050919050565b6128cb8473ffffffffffffffffffffffffffffffffffffffff166123ca565b15612bb1578373ffffffffffffffffffffffffffffffffffffffff1663f23a6e6187878686866040518663ffffffff1660e01b8152600401808673ffffffffffffffffffffffffffffffffffffffff1681526020018573ffffffffffffffffffffffffffffffffffffffff16815260200184815260200183815260200180602001828103825283818151815260200191508051906020019080838360005b83811015612984578082015181840152602081019050612969565b50505050905090810190601f1680156129b15780820380516001836020036101000a031916815260200191505b509650505050505050602060405180830381600087803b1580156129d457600080fd5b505af1925050508015612a0857506040513d60208110156129f457600080fd5b810190808051906020019092919050505060015b612b1257612a14612dc9565b80612a1f5750612ac1565b806040517f08c379a00000000000000000000000000000000000000000000000000000000081526004018080602001828103825283818151815260200191508051906020019080838360005b83811015612a86578082015181840152602081019050612a6b565b50505050905090810190601f168015612ab35780820380516001836020036101000a031916815260200191505b509250505060405180910390fd5b6040517f08c379a0000000000000000000000000000000000000000000000000000000008152600401808060200182810382526034815260200180612e806034913960400191505060405180910390fd5b63f23a6e6160e01b7bffffffffffffffffffffffffffffffffffffffffffffffffffffffff1916817bffffffffffffffffffffffffffffffffffffffffffffffffffffffff191614612baf576040517f08c379a0000000000000000000000000000000000000000000000000000000008152600401808060200182810382526028815260200180612eb46028913960400191505060405180910390fd5b505b505050505050565b60006001612bdd306008600086815260200190815260200160002060000154610ad8565b1015612be857600080fd5b6008600083815260200190815260200160002060060154612c0a306000610ad8565b1015612c1557600080fd5b612ca4306008600085815260200190815260200160002060020160009054906101000a900473ffffffffffffffffffffffffffffffffffffffff16600860008681526020019081526020016000206000015460016040518060400160405280600381526020017f3078300000000000000000000000000000000000000000000000000000000000815250611ae9565b612d33306008600085815260200190815260200160002060010160009054906101000a900473ffffffffffffffffffffffffffffffffffffffff16600060086000878152602001908152602001600020600601546040518060400160405280600381526020017f3078300000000000000000000000000000000000000000000000000000000000815250611ae9565b60036008600084815260200190815260200160002060070160006101000a81548160ff02191690836003811115612d6657fe5b02179055507f6cf09acb794bf223899fc9e5e68e691bfc1f84aacaedd5697dee9c3ad99e42d3826040518082815260200191505060405180910390a160019050919050565b6000601f19601f8301169050919050565b60008160e01c9050919050565b600060443d1015612dd957612e7c565b60046000803e612dea600051612dbc565b6308c379a08114612dfb5750612e7c565b60405160043d036004823e80513d602482011167ffffffffffffffff82111715612e2757505050612e7c565b808201805167ffffffffffffffff811115612e46575050505050612e7c565b8060208301013d8501811115612e6157505050505050612e7c565b612e6a82612dab565b60208401016040528296505050505050505b9056fe455243313135353a207472616e7366657220746f206e6f6e2045524331313535526563656976657220696d706c656d656e746572455243313135353a204552433131353552656365697665722072656a656374656420746f6b656e73455243313135353a2062616c616e636520717565727920666f7220746865207a65726f2061646472657373455243313135353a2062617463682062616c616e636520717565727920666f7220746865207a65726f2061646472657373455243313135353a2063616c6c6572206973206e6f74206f776e6572206e6f7220617070726f766564455243313135353a207472616e7366657220746f20746865207a65726f2061646472657373455243313135353a207472616e736665722063616c6c6572206973206e6f74206f776e6572206e6f7220617070726f766564455243313135353a20696e73756666696369656e742062616c616e636520666f72207472616e73666572455243313135353a2073657474696e6720617070726f76616c2073746174757320666f722073656c66455243313135353a206163636f756e747320616e6420696473206c656e677468206d69736d61746368455243313135353a2069647320616e6420616d6f756e7473206c656e677468206d69736d61746368a2646970667358221220c6063f73b257eb0b55976c765fa35786876ade01fc592069df7df29424f983a064736f6c634300060c0033455243313135353a207472616e7366657220746f206e6f6e2045524331313535526563656976657220696d706c656d656e746572455243313135353a204552433131353552656365697665722072656a656374656420746f6b656e73455243313135353a206d696e7420746f20746865207a65726f2061646472657373",
  "immutableReferences": {},
  "source": "// Contract allowing Lending of Fungible token in exchange for an NFT\n\npragma solidity ^0.6.0;\n\n// import \"@openzeppelin/contracts/token/ERC1155/ERC1155Holder.sol\"; // uncomment this to implement.\nimport \"./Tokens.sol\";\n\ncontract DeFi is Tokens {\n  uint256 trade_ids;\n\n  // Trade data struct \n  struct Trade {\n    uint256 nft_id; // NFT id\n    address lender; // The lender of the NFT\n    address borrower; // The borrower of the NFT\n    uint256 borrowing_amount; // The amount needed to be borrowed\n    uint256 apy; // The rate of interest of lending of the NFT\n    uint256 start_time;\n    uint256 paid_back_amount; // The amount paid back to the escrow\n    State state;\n  }\n\n  enum State {\n    OPEN,\n    FINANCED,\n    LIQUIDATED,\n    CLOSED\n  }\n  \n  // List of trades\n  mapping(uint256 => Trade) public trades;\n\n  // A trade was opened by a borrower\n  event OpenedTrade(uint256 trade_id);\n  // A lender has lended money and the trade is now in operation\n  event TradeFinanced(uint256 trade_id);\n  // A trade was closed\n  event ClosedTrade(uint256 trade_id);\n  // Interest paid\n  event PaidInterest(uint256 trade_id, uint256 amount);\n  // Trade Liquidated\n  event LiquidatedTrade(uint256 trade_id);\n\n  constructor() public {\n    trade_ids = 0;\n  }\n\n  function openTrade(uint256 nft_id, address borrower, uint256 borrowing_amount, uint256 apy) public returns (uint256) {\n    // Check if the borrower has atleast one of NFT\n    require(balanceOf(borrower, nft_id) >= 1);\n    \n    // Create a trade with the current avaiable trade id\n    uint256 trade_id = trade_ids;\n    trades[trade_id] = Trade(nft_id, address(0x0), borrower, borrowing_amount, apy, 0, 0, State.OPEN);\n    trade_ids++; // Increase the trade id by 1 for the next trade\n\n    // Emit that a trade has been opened\n    emit OpenedTrade(trade_id); \n    return trade_id;\n  }\n\n  function lendToTrade(uint256 trade_id) public returns (bool) {\n    // Check if the trade is still open\n    require(trades[trade_id].state == State.OPEN);\n    // Check if the borrower still has the NFT\n    require(balanceOf(trades[trade_id].borrower, trades[trade_id].nft_id) >= 1);\n    // Check if the lender has that much Fungible tokens\n    require(balanceOf(msg.sender, 0) >= trades[trade_id].borrowing_amount);\n\n    // Assign the lender, set the state of the trade to FINANCED and start the time\n    trades[trade_id].lender = msg.sender;\n    trades[trade_id].state = State.FINANCED;\n    trades[trade_id].start_time = now;\n\n    // Transfer the NFT from the borrower to this contract\n    safeTransferFrom(trades[trade_id].borrower, address(this), trades[trade_id].nft_id, 1, \"0x0\");\n    // Transfer the Fungible tokens from the lender to this contract\n    safeTransferFrom(trades[trade_id].lender, address(this), 0, trades[trade_id].borrowing_amount, \"0x0\");\n\n    // Emit that the trade has been financed\n    emit TradeFinanced(trade_id);\n    return true;\n  }\n\n  function payInterest(uint256 trade_id, uint256 amount) public returns (bool) {\n    // Make sure the state of the trade is FINANCED\n    require(trades[trade_id].state == State.FINANCED);\n    // Make sure the caller is the trade's borrower\n    require(msg.sender == trades[trade_id].borrower);\n    // Make sure the borrower has enough funds\n    require(balanceOf(msg.sender, 0) >= amount);\n\n    trades[trade_id].paid_back_amount += amount;\n    safeTransferFrom(msg.sender, address(this), 0, amount, \"0x0\");\n    emit PaidInterest(trade_id, amount);\n\n    // Only if the amount paid back is more than the principal could the transaction be complete\n    // Thus we check only if that is the case\n    if (trades[trade_id].paid_back_amount >= trades[trade_id].borrowing_amount) {\n      uint256 seconds_since_start = now - trades[trade_id].start_time;\n      // Formula for Continous compound interest\n      // https://www.investopedia.com/terms/c/continuouscompounding.asp#:~:text=Calculating%20the%20limit%20of%20this,mathematical%20constant%20approximated%20as%202.7183.\n      uint256 amount_to_be_paid = trades[trade_id].borrowing_amount * (uint256(3) ** ((seconds_since_start/31556952) \n        * trades[trade_id].apy));\n      \n\n      if (trades[trade_id].paid_back_amount >= amount_to_be_paid) {\n        completeTrade(trade_id);\n      }\n    }\n\n    return true;\n  }\n\n  function completeTrade(uint256 trade_id) private returns (bool) {\n    // Makes sure the contract still has the NFT and the money - Theoretically always true\n    require(balanceOf(address(this), trades[trade_id].nft_id) >= 1);\n    require(balanceOf(address(this), 0) >= trades[trade_id].paid_back_amount);\n\n    // Transfer the NFT and fungible tokens from the contract to the borrower and lender respectively\n    safeTransferFrom(address(this), trades[trade_id].borrower, trades[trade_id].nft_id, 1, \"0x0\");  \n    safeTransferFrom(address(this), trades[trade_id].lender, 0, trades[trade_id].paid_back_amount, \"0x0\");  \n\n    // Set trade to close state\n    trades[trade_id].state = State.CLOSED;\n\n    // Emit the close trade event\n    emit ClosedTrade(trade_id);\n    return true;\n  }\n\n  function liquidateTrade(uint256 trade_id) public returns (bool) {\n    require(msg.sender == trades[trade_id].lender);\n\n    // Amount to be paid by the borrower to the lender\n    uint256 seconds_since_start = now - trades[trade_id].start_time;\n    uint256 amount_to_be_paid = trades[trade_id].borrowing_amount * (uint256(3) ** ((seconds_since_start/31556952) \n      * trades[trade_id].apy));\n\n    // Condition for liquidity still not determined. For the purpose of initial testing, trade can be liquidated any time.\n    // Later on we need to make so after x amount of interest is acrued, then the contract can be liquidated\n\n    bool can_be_liquidated = true;\n\n    if (can_be_liquidated) {\n      // Makes sure the contract still has the NFT and the money - Theoretically always true\n      require(balanceOf(address(this), trades[trade_id].nft_id) >= 1);\n      require(balanceOf(address(this), 0) >= trades[trade_id].paid_back_amount);\n\n      safeTransferFrom(address(this), trades[trade_id].lender, trades[trade_id].nft_id, 1, \"0x0\");  \n      safeTransferFrom(address(this), trades[trade_id].lender, 0, trades[trade_id].paid_back_amount, \"0x0\");  \n\n      emit LiquidatedTrade(trade_id);\n    } else {\n      return false;\n    }\n  } \n}",
  "sourcePath": "/mnt/d/Projects/Solidity/minecraft-nft/Minecraft-NFT-Server/smart-contracts/contracts/DeFi.sol",
  "compiler": {
    "name": "solc",
    "version": "0.6.12+commit.27d51765.Emscripten.clang"
  },
  "schemaVersion": "3.3.2",
  "updatedAt": "2020-12-03T21:33:58.676Z",
  "networkType": "ethereum",
  "devdoc": {
    "kind": "dev",
    "methods": {
      "balanceOf(address,uint256)": {
        "details": "See {IERC1155-balanceOf}. Requirements: - `account` cannot be the zero address."
      },
      "balanceOfBatch(address[],uint256[])": {
        "details": "See {IERC1155-balanceOfBatch}. Requirements: - `accounts` and `ids` must have the same length."
      },
      "isApprovedForAll(address,address)": {
        "details": "See {IERC1155-isApprovedForAll}."
      },
      "safeBatchTransferFrom(address,address,uint256[],uint256[],bytes)": {
        "details": "See {IERC1155-safeBatchTransferFrom}."
      },
      "safeTransferFrom(address,address,uint256,uint256,bytes)": {
        "details": "See {IERC1155-safeTransferFrom}."
      },
      "setApprovalForAll(address,bool)": {
        "details": "See {IERC1155-setApprovalForAll}."
      },
      "supportsInterface(bytes4)": {
        "details": "See {IERC165-supportsInterface}. Time complexity O(1), guaranteed to always use less than 30 000 gas."
      },
      "uri(uint256)": {
        "details": "See {IERC1155MetadataURI-uri}. This implementation returns the same URI for *all* token types. It relies on the token type ID substitution mechanism https://eips.ethereum.org/EIPS/eip-1155#metadata[defined in the EIP]. Clients calling this function must replace the `\\{id\\}` substring with the actual token type ID."
      }
    },
    "version": 1
  },
  "userdoc": {
    "kind": "user",
    "methods": {},
    "version": 1
  }
}