{
  "contractName": "Governance",
  "abi": [
    {
      "inputs": [
        {
          "internalType": "address",
          "name": "_address",
          "type": "address"
        }
      ],
      "stateMutability": "nonpayable",
      "type": "constructor"
    },
    {
      "anonymous": false,
      "inputs": [
        {
          "indexed": false,
          "internalType": "uint256",
          "name": "proposal_id",
          "type": "uint256"
        }
      ],
      "name": "ProposalCreated",
      "type": "event"
    },
    {
      "anonymous": false,
      "inputs": [
        {
          "indexed": false,
          "internalType": "uint256",
          "name": "proposal_id",
          "type": "uint256"
        },
        {
          "indexed": false,
          "internalType": "address",
          "name": "voter",
          "type": "address"
        }
      ],
      "name": "Vote",
      "type": "event"
    },
    {
      "inputs": [],
      "name": "tokensContract",
      "outputs": [
        {
          "internalType": "contract Tokens",
          "name": "",
          "type": "address"
        }
      ],
      "stateMutability": "view",
      "type": "function",
      "constant": true
    },
    {
      "inputs": [
        {
          "internalType": "uint256",
          "name": "end_date",
          "type": "uint256"
        },
        {
          "internalType": "bytes32[140]",
          "name": "description",
          "type": "bytes32[140]"
        }
      ],
      "name": "createProposal",
      "outputs": [
        {
          "internalType": "uint256",
          "name": "",
          "type": "uint256"
        }
      ],
      "stateMutability": "nonpayable",
      "type": "function"
    },
    {
      "inputs": [
        {
          "internalType": "uint256",
          "name": "proposal_id",
          "type": "uint256"
        }
      ],
      "name": "voteAgainstProposal",
      "outputs": [
        {
          "internalType": "bool",
          "name": "",
          "type": "bool"
        }
      ],
      "stateMutability": "nonpayable",
      "type": "function"
    },
    {
      "inputs": [
        {
          "internalType": "uint256",
          "name": "proposal_id",
          "type": "uint256"
        }
      ],
      "name": "voteForProposal",
      "outputs": [
        {
          "internalType": "bool",
          "name": "",
          "type": "bool"
        }
      ],
      "stateMutability": "nonpayable",
      "type": "function"
    }
  ],
  "bytecode": "0x608060405234801561001057600080fd5b50604051610c78380380610c788339818101604052602081101561003357600080fd5b8101908080519060200190929190505050806000806101000a81548173ffffffffffffffffffffffffffffffffffffffff021916908373ffffffffffffffffffffffffffffffffffffffff160217905550600060018190555050610bdc8061009c6000396000f3fe608060405234801561001057600080fd5b506004361061004c5760003560e01c8063045c6ce0146100515780637518fa9814610095578063adea500b146100c9578063bbadf64c1461014e575b600080fd5b61007d6004803603602081101561006757600080fd5b8101908080359060200190929190505050610192565b60405180821515815260200191505060405180910390f35b61009d61053d565b604051808273ffffffffffffffffffffffffffffffffffffffff16815260200191505060405180910390f35b61013860048036036111a08110156100e057600080fd5b8101908080359060200190929190806111800190608c806020026040519081016040528092919082608c60200280828437600081840152601f19601f8201169050808301925050505050509192919290505050610561565b6040518082815260200191505060405180910390f35b61017a6004803603602081101561016457600080fd5b8101908080359060200190929190505050610759565b60405180821515815260200191505060405180910390f35b60004260026000848152602001908152602001600020608f0154116101b657600080fd5b600160008054906101000a900473ffffffffffffffffffffffffffffffffffffffff1673ffffffffffffffffffffffffffffffffffffffff1662fdd58e3360036040518363ffffffff1660e01b8152600401808373ffffffffffffffffffffffffffffffffffffffff1681526020018281526020019250505060206040518083038186803b15801561024757600080fd5b505afa15801561025b573d6000803e3d6000fd5b505050506040513d602081101561027157600080fd5b810190808051906020019092919050505010156102f6576040517f08c379a00000000000000000000000000000000000000000000000000000000081526004018080602001828103825260158152602001807f566f7465722062616c616e636520746f6f206c6f77000000000000000000000081525060200191505060405180910390fd5b60006002600084815260200190815260200160002060010160003373ffffffffffffffffffffffffffffffffffffffff1673ffffffffffffffffffffffffffffffffffffffff168152602001908152602001600020541461035657600080fd5b60006002600084815260200190815260200160002060000160003373ffffffffffffffffffffffffffffffffffffffff1673ffffffffffffffffffffffffffffffffffffffff16815260200190815260200160002054146103b657600080fd5b61048860008054906101000a900473ffffffffffffffffffffffffffffffffffffffff1673ffffffffffffffffffffffffffffffffffffffff1662fdd58e3360036040518363ffffffff1660e01b8152600401808373ffffffffffffffffffffffffffffffffffffffff1681526020018281526020019250505060206040518083038186803b15801561044857600080fd5b505afa15801561045c573d6000803e3d6000fd5b505050506040513d602081101561047257600080fd5b8101908080519060200190929190505050610b04565b6002600084815260200190815260200160002060010160003373ffffffffffffffffffffffffffffffffffffffff1673ffffffffffffffffffffffffffffffffffffffff168152602001908152602001600020819055507f10a412bf229fbac2408912cb271b8ff9eb39eb72da91dd0c8accab0fb10111358233604051808381526020018273ffffffffffffffffffffffffffffffffffffffff1681526020019250505060405180910390a160019050919050565b60008054906101000a900473ffffffffffffffffffffffffffffffffffffffff1681565b6000606460008054906101000a900473ffffffffffffffffffffffffffffffffffffffff1673ffffffffffffffffffffffffffffffffffffffff1662fdd58e3360036040518363ffffffff1660e01b8152600401808373ffffffffffffffffffffffffffffffffffffffff1681526020018281526020019250505060206040518083038186803b1580156105f457600080fd5b505afa158015610608573d6000803e3d6000fd5b505050506040513d602081101561061e57600080fd5b8101908080519060200190929190505050106106a2576040517f08c379a000000000000000000000000000000000000000000000000000000000815260040180806020018281038252601e8152602001807f496e73756666696369656e7420476f7665726e616e636520746f6b656e73000081525060200191505060405180910390fd5b600060015490506040518060600160405280848152602001428152602001858152506002600083815260200190815260200160002060008201518160020190608c6106ee929190610b49565b50602082015181608e0155604082015181608f01559050506001600081548092919060010191905055507fc2c021f5d73c63c481d336fbbafec58f694fc45095f00b02d2deb8cca59afe07816040518082815260200191505060405180910390a18091505092915050565b60004260026000848152602001908152602001600020608f01541161077d57600080fd5b600160008054906101000a900473ffffffffffffffffffffffffffffffffffffffff1673ffffffffffffffffffffffffffffffffffffffff1662fdd58e3360036040518363ffffffff1660e01b8152600401808373ffffffffffffffffffffffffffffffffffffffff1681526020018281526020019250505060206040518083038186803b15801561080e57600080fd5b505afa158015610822573d6000803e3d6000fd5b505050506040513d602081101561083857600080fd5b810190808051906020019092919050505010156108bd576040517f08c379a00000000000000000000000000000000000000000000000000000000081526004018080602001828103825260158152602001807f566f7465722062616c616e636520746f6f206c6f77000000000000000000000081525060200191505060405180910390fd5b60006002600084815260200190815260200160002060010160003373ffffffffffffffffffffffffffffffffffffffff1673ffffffffffffffffffffffffffffffffffffffff168152602001908152602001600020541461091d57600080fd5b60006002600084815260200190815260200160002060000160003373ffffffffffffffffffffffffffffffffffffffff1673ffffffffffffffffffffffffffffffffffffffff168152602001908152602001600020541461097d57600080fd5b610a4f60008054906101000a900473ffffffffffffffffffffffffffffffffffffffff1673ffffffffffffffffffffffffffffffffffffffff1662fdd58e3360036040518363ffffffff1660e01b8152600401808373ffffffffffffffffffffffffffffffffffffffff1681526020018281526020019250505060206040518083038186803b158015610a0f57600080fd5b505afa158015610a23573d6000803e3d6000fd5b505050506040513d6020811015610a3957600080fd5b8101908080519060200190929190505050610b04565b6002600084815260200190815260200160002060000160003373ffffffffffffffffffffffffffffffffffffffff1673ffffffffffffffffffffffffffffffffffffffff168152602001908152602001600020819055507f10a412bf229fbac2408912cb271b8ff9eb39eb72da91dd0c8accab0fb10111358233604051808381526020018273ffffffffffffffffffffffffffffffffffffffff1681526020019250505060405180910390a160019050919050565b60008060026001840181610b1457fe5b0490508291505b81811015610b4357809150600281828581610b3257fe5b040181610b3b57fe5b049050610b1b565b50919050565b82608c8101928215610b78579160200282015b82811115610b77578251825591602001919060010190610b5c565b5b509050610b859190610b89565b5090565b5b80821115610ba2576000816000905550600101610b8a565b509056fea26469706673582212206fdf7415ca136790ba2a055ce725c642103d5d7e87030600a91033e03cff619c64736f6c634300060c0033",
  "immutableReferences": {},
  "source": "// Contract for voting for the governance proposals of this project\n\npragma solidity ^0.6.0;\n\nimport \"./Tokens.sol\";\n\ncontract Governance {\n  Tokens public tokensContract;\n  uint256 proposal_ids;\n\n  struct Proposal {\n    mapping(address => uint256) votes_against; // Mapping user address to votes against\n    mapping(address => uint256) votes_for; // Mapping user address to votes for\n    bytes32[140] description; // An optional description for the proposal\n\n    uint256 start_date; // Start date of the proposal\n    uint256 end_date; // End date of the proposal\n  }\n\n  // Mapping proposal ids to Proposal\n  mapping(uint256 => Proposal) proposals;\n\n  // A proposal was created by a user owning > 100 governance tokens\n  event ProposalCreated(uint256 proposal_id);\n  // A user has voted on a proposal\n  event Vote(uint256 proposal_id, address voter);\n\n  constructor(address _address) public {\n    tokensContract = Tokens(_address);\n    proposal_ids = 0;\n  }\n\n  // Babylonian method of square root computation\n  // https://ethereum.stackexchange.com/questions/2910/can-i-square-root-in-solidity\n  function sqrt(uint256 x) internal pure returns (uint256 y) {\n    uint256 z = (x + 1) / 2;\n    y = x;\n    while (z < y) {\n      y = z;\n      z = (x / z + z) / 2;\n    }\n  }\n\n  function createProposal(uint256 end_date, bytes32[140] memory description) public returns(uint256) {\n    // Find out a way to require that the proposal creator has the most amount of tokens\n    // Currently requires that the user has a governance token balance >= 100\n    require(tokensContract.balanceOf(msg.sender, 3) < 100, \"Insufficient Governance tokens\");\n\n    // Get the proposal id\n    uint256 proposal_id = proposal_ids;\n\n    // Create a new proposal\n    proposals[proposal_id] = Proposal({\n      start_date: now,\n      end_date: end_date,\n      description: description\n    });\n\n    // Increment proposal ids count\n    proposal_ids++;\n\n    // Emit Proposal Creation event\n    emit ProposalCreated(proposal_id);\n    return proposal_id;\n  }\n\n  function voteAgainstProposal(uint256 proposal_id) public returns (bool) {\n    // Require the proposal is still open for voting\n    require(proposals[proposal_id].end_date > now);\n    // Voter governance token balance should be greater than or equal to 1\n    require(tokensContract.balanceOf(msg.sender, 3) >= 1, \"Voter balance too low\");\n    // Voter cannot revote if he has voted for \"for proposal\"\n    require(proposals[proposal_id].votes_for[msg.sender] == uint256(0));\n    // Voter cannot revote if he has voter for \"against proposal\"\n    require(proposals[proposal_id].votes_against[msg.sender] == uint256(0));\n\n    // Assign votes to the proposal\n    proposals[proposal_id].votes_against[msg.sender] = sqrt(tokensContract.balanceOf(msg.sender, 3));\n\n    // Emit the voting event\n    emit Vote(proposal_id, msg.sender);\n    return true;\n  }\n\n  function voteForProposal(uint256 proposal_id) public returns (bool) {\n    // Require the proposal is still open for voting\n    require(proposals[proposal_id].end_date > now);\n    // Voter governance token balance should be greater than or equal to 1\n    require(tokensContract.balanceOf(msg.sender, 3) >= 1, \"Voter balance too low\");\n    // Voter cannot revote if he has voted for \"for proposal\"\n    require(proposals[proposal_id].votes_for[msg.sender] == uint256(0));\n    // Voter cannot revote if he has voter for \"against proposal\"\n    require(proposals[proposal_id].votes_against[msg.sender] == uint256(0));\n\n    // Assign votes to the proposal\n    proposals[proposal_id].votes_for[msg.sender] = sqrt(tokensContract.balanceOf(msg.sender, 3));\n\n    // Emit the voting event\n    emit Vote(proposal_id, msg.sender);\n    return true;\n  }\n\n}",
  "sourcePath": "/mnt/d/Projects/Solidity/minecraft-nft/Minecraft-NFT-Server/smart-contracts/contracts/Governance.sol",
  "compiler": {
    "name": "solc",
    "version": "0.6.12+commit.27d51765.Emscripten.clang"
  },
  "schemaVersion": "3.3.2",
  "updatedAt": "2020-12-18T06:17:29.711Z",
  "networkType": "ethereum",
  "devdoc": {
    "kind": "dev",
    "methods": {},
    "version": 1
  },
  "userdoc": {
    "kind": "user",
    "methods": {},
    "version": 1
  }
}