{
  "contractName": "Governance",
  "abi": [
    {
      "inputs": [
        {
          "internalType": "address",
          "name": "_address",
          "type": "address"
        }
      ],
      "stateMutability": "nonpayable",
      "type": "constructor"
    },
    {
      "anonymous": false,
      "inputs": [
        {
          "indexed": false,
          "internalType": "uint256",
          "name": "proposal_id",
          "type": "uint256"
        }
      ],
      "name": "ProposalCreated",
      "type": "event"
    },
    {
      "anonymous": false,
      "inputs": [
        {
          "indexed": false,
          "internalType": "uint256",
          "name": "proposal_id",
          "type": "uint256"
        },
        {
          "indexed": false,
          "internalType": "address",
          "name": "voter",
          "type": "address"
        }
      ],
      "name": "Vote",
      "type": "event"
    },
    {
      "inputs": [
        {
          "internalType": "uint256",
          "name": "",
          "type": "uint256"
        }
      ],
      "name": "proposals",
      "outputs": [
        {
          "internalType": "uint256",
          "name": "start_date",
          "type": "uint256"
        },
        {
          "internalType": "uint256",
          "name": "end_date",
          "type": "uint256"
        }
      ],
      "stateMutability": "view",
      "type": "function"
    },
    {
      "inputs": [],
      "name": "tokensContract",
      "outputs": [
        {
          "internalType": "contract Tokens",
          "name": "",
          "type": "address"
        }
      ],
      "stateMutability": "view",
      "type": "function"
    },
    {
      "inputs": [
        {
          "internalType": "uint256",
          "name": "x",
          "type": "uint256"
        }
      ],
      "name": "sqrt",
      "outputs": [
        {
          "internalType": "uint256",
          "name": "y",
          "type": "uint256"
        }
      ],
      "stateMutability": "pure",
      "type": "function"
    },
    {
      "inputs": [
        {
          "internalType": "uint256",
          "name": "end_date",
          "type": "uint256"
        },
        {
          "internalType": "bytes32[140]",
          "name": "description",
          "type": "bytes32[140]"
        }
      ],
      "name": "createProposal",
      "outputs": [
        {
          "internalType": "uint256",
          "name": "",
          "type": "uint256"
        }
      ],
      "stateMutability": "nonpayable",
      "type": "function"
    },
    {
      "inputs": [
        {
          "internalType": "uint256",
          "name": "proposal_id",
          "type": "uint256"
        }
      ],
      "name": "voteAgainstProposal",
      "outputs": [
        {
          "internalType": "bool",
          "name": "",
          "type": "bool"
        }
      ],
      "stateMutability": "nonpayable",
      "type": "function"
    },
    {
      "inputs": [
        {
          "internalType": "uint256",
          "name": "proposal_id",
          "type": "uint256"
        }
      ],
      "name": "voteForProposal",
      "outputs": [
        {
          "internalType": "bool",
          "name": "",
          "type": "bool"
        }
      ],
      "stateMutability": "nonpayable",
      "type": "function"
    }
  ],
  "bytecode": "0x608060405234801561001057600080fd5b50604051610e72380380610e728339818101604052602081101561003357600080fd5b8101908080519060200190929190505050806000806101000a81548173ffffffffffffffffffffffffffffffffffffffff021916908373ffffffffffffffffffffffffffffffffffffffff160217905550600060018190555050610dd68061009c6000396000f3fe608060405234801561001057600080fd5b50600436106100625760003560e01c8063013cf08b14610067578063045c6ce0146100b0578063677342ce146100f45780637518fa9814610136578063adea500b1461016a578063bbadf64c146101ef575b600080fd5b6100936004803603602081101561007d57600080fd5b8101908080359060200190929190505050610233565b604051808381526020018281526020019250505060405180910390f35b6100dc600480360360208110156100c657600080fd5b8101908080359060200190929190505050610257565b60405180821515815260200191505060405180910390f35b6101206004803603602081101561010a57600080fd5b8101908080359060200190929190505050610671565b6040518082815260200191505060405180910390f35b61013e6106b6565b604051808273ffffffffffffffffffffffffffffffffffffffff16815260200191505060405180910390f35b6101d960048036036111a081101561018157600080fd5b8101908080359060200190929190806111800190608c806020026040519081016040528092919082608c60200280828437600081840152601f19601f82011690508083019250505050505091929192905050506106da565b6040518082815260200191505060405180910390f35b61021b6004803603602081101561020557600080fd5b81019080803590602001909291905050506108df565b60405180821515815260200191505060405180910390f35b600260205280600052604060002060009150905080608e01549080608f0154905082565b60004260026000848152602001908152602001600020608f0154116102e4576040517f08c379a00000000000000000000000000000000000000000000000000000000081526004018080602001828103825260118152602001807f546f6f206c61746520746f20766f74652e00000000000000000000000000000081525060200191505060405180910390fd5b600160008054906101000a900473ffffffffffffffffffffffffffffffffffffffff1673ffffffffffffffffffffffffffffffffffffffff1662fdd58e3360036040518363ffffffff1660e01b8152600401808373ffffffffffffffffffffffffffffffffffffffff1681526020018281526020019250505060206040518083038186803b15801561037557600080fd5b505afa158015610389573d6000803e3d6000fd5b505050506040513d602081101561039f57600080fd5b81019080805190602001909291905050501015610424576040517f08c379a00000000000000000000000000000000000000000000000000000000081526004018080602001828103825260158152602001807f566f7465722062616c616e636520746f6f206c6f77000000000000000000000081525060200191505060405180910390fd5b60006002600084815260200190815260200160002060010160003373ffffffffffffffffffffffffffffffffffffffff1673ffffffffffffffffffffffffffffffffffffffff168152602001908152602001600020541461048457600080fd5b60006002600084815260200190815260200160002060000160003373ffffffffffffffffffffffffffffffffffffffff1673ffffffffffffffffffffffffffffffffffffffff16815260200190815260200160002054146104e457600080fd5b60006002600084815260200190815260200160002090506105cd60008054906101000a900473ffffffffffffffffffffffffffffffffffffffff1673ffffffffffffffffffffffffffffffffffffffff1662fdd58e3360036040518363ffffffff1660e01b8152600401808373ffffffffffffffffffffffffffffffffffffffff1681526020018281526020019250505060206040518083038186803b15801561058d57600080fd5b505afa1580156105a1573d6000803e3d6000fd5b505050506040513d60208110156105b757600080fd5b8101908080519060200190929190505050610671565b8160010160003373ffffffffffffffffffffffffffffffffffffffff1673ffffffffffffffffffffffffffffffffffffffff168152602001908152602001600020819055507f10a412bf229fbac2408912cb271b8ff9eb39eb72da91dd0c8accab0fb10111358333604051808381526020018273ffffffffffffffffffffffffffffffffffffffff1681526020019250505060405180910390a16001915050919050565b6000806002600184018161068157fe5b0490508291505b818110156106b05780915060028182858161069f57fe5b0401816106a857fe5b049050610688565b50919050565b60008054906101000a900473ffffffffffffffffffffffffffffffffffffffff1681565b6000606460008054906101000a900473ffffffffffffffffffffffffffffffffffffffff1673ffffffffffffffffffffffffffffffffffffffff1662fdd58e3360036040518363ffffffff1660e01b8152600401808373ffffffffffffffffffffffffffffffffffffffff1681526020018281526020019250505060206040518083038186803b15801561076d57600080fd5b505afa158015610781573d6000803e3d6000fd5b505050506040513d602081101561079757600080fd5b8101908080519060200190929190505050101561081c576040517f08c379a000000000000000000000000000000000000000000000000000000000815260040180806020018281038252601e8152602001807f496e73756666696369656e7420476f7665726e616e636520746f6b656e73000081525060200191505060405180910390fd5b6000600154905061082b610cf9565b6040518060600160405280858152602001428152602001868152509050806002600084815260200190815260200160002060008201518160020190608c610873929190610d20565b50602082015181608e0155604082015181608f01559050506001600081548092919060010191905055507fc2c021f5d73c63c481d336fbbafec58f694fc45095f00b02d2deb8cca59afe07826040518082815260200191505060405180910390a1819250505092915050565b60004260026000848152602001908152602001600020608f01541161096c576040517f08c379a00000000000000000000000000000000000000000000000000000000081526004018080602001828103825260118152602001807f546f6f206c61746520746f20766f74652e00000000000000000000000000000081525060200191505060405180910390fd5b600160008054906101000a900473ffffffffffffffffffffffffffffffffffffffff1673ffffffffffffffffffffffffffffffffffffffff1662fdd58e3360036040518363ffffffff1660e01b8152600401808373ffffffffffffffffffffffffffffffffffffffff1681526020018281526020019250505060206040518083038186803b1580156109fd57600080fd5b505afa158015610a11573d6000803e3d6000fd5b505050506040513d6020811015610a2757600080fd5b81019080805190602001909291905050501015610aac576040517f08c379a00000000000000000000000000000000000000000000000000000000081526004018080602001828103825260158152602001807f566f7465722062616c616e636520746f6f206c6f77000000000000000000000081525060200191505060405180910390fd5b60006002600084815260200190815260200160002060010160003373ffffffffffffffffffffffffffffffffffffffff1673ffffffffffffffffffffffffffffffffffffffff1681526020019081526020016000205414610b0c57600080fd5b60006002600084815260200190815260200160002060000160003373ffffffffffffffffffffffffffffffffffffffff1673ffffffffffffffffffffffffffffffffffffffff1681526020019081526020016000205414610b6c57600080fd5b6000600260008481526020019081526020016000209050610c5560008054906101000a900473ffffffffffffffffffffffffffffffffffffffff1673ffffffffffffffffffffffffffffffffffffffff1662fdd58e3360036040518363ffffffff1660e01b8152600401808373ffffffffffffffffffffffffffffffffffffffff1681526020018281526020019250505060206040518083038186803b158015610c1557600080fd5b505afa158015610c29573d6000803e3d6000fd5b505050506040513d6020811015610c3f57600080fd5b8101908080519060200190929190505050610671565b8160000160003373ffffffffffffffffffffffffffffffffffffffff1673ffffffffffffffffffffffffffffffffffffffff168152602001908152602001600020819055507f10a412bf229fbac2408912cb271b8ff9eb39eb72da91dd0c8accab0fb10111358333604051808381526020018273ffffffffffffffffffffffffffffffffffffffff1681526020019250505060405180910390a16001915050919050565b6040518060600160405280610d0c610d60565b815260200160008152602001600081525090565b82608c8101928215610d4f579160200282015b82811115610d4e578251825591602001919060010190610d33565b5b509050610d5c9190610d83565b5090565b604051806111800160405280608c90602082028036833780820191505090505090565b5b80821115610d9c576000816000905550600101610d84565b509056fea26469706673582212200054245bfd60a99245fadca814bfe045373e6c23d487b7957cbca308e68cb53864736f6c634300060c0033",
  "immutableReferences": {},
  "source": "// Contract for voting for the governance proposals of this project\n\npragma solidity ^0.6.0;\n\nimport \"./Tokens.sol\";\n\ncontract Governance {\n  Tokens public tokensContract;\n  uint256 proposal_ids;\n\n  struct Proposal {\n    mapping(address => uint256) votes_against; // Mapping user address to votes against\n    mapping(address => uint256) votes_for; // Mapping user address to votes for\n    bytes32[140] description; // An optional description for the proposal\n\n    uint256 start_date; // Start date of the proposal\n    uint256 end_date; // End date of the proposal\n  }\n\n  // Mapping proposal ids to Proposal\n  mapping(uint256 => Proposal) public proposals;\n\n  // A proposal was created by a user owning > 100 governance tokens\n  event ProposalCreated(uint256 proposal_id);\n  // A user has voted on a proposal\n  event Vote(uint256 proposal_id, address voter);\n\n  constructor(address _address) public {\n    tokensContract = Tokens(_address);\n    proposal_ids = 0;\n  }\n\n  // Babylonian method of square root computation\n  // https://ethereum.stackexchange.com/questions/2910/can-i-square-root-in-solidity\n  function sqrt(uint256 x) public pure returns (uint256 y) {\n    uint256 z = (x + 1) / 2;\n    y = x;\n    while (z < y) {\n      y = z;\n      z = (x / z + z) / 2;\n    }\n  }\n\n  function createProposal(uint256 end_date, bytes32[140] memory description) public returns(uint256) {\n    // Find out a way to require that the proposal creator has the most amount of tokens\n    // Currently requires that the user has a governance token balance >= 100\n    require(tokensContract.balanceOf(msg.sender, 3) >= 100, \"Insufficient Governance tokens\");\n\n    // Get the proposal id\n    uint256 proposal_id = proposal_ids;\n\n    // Create a new proposal\n    Proposal memory newProposal = Proposal(\n      {\n        start_date: now,\n        end_date: end_date,\n        description: description\n      }\n    );\n\n    proposals[proposal_id] = newProposal;\n\n    // Increment proposal ids count\n    proposal_ids++;\n\n    // Emit Proposal Creation event\n    emit ProposalCreated(proposal_id);\n    return proposal_id;\n  }\n\n  function voteAgainstProposal(uint256 proposal_id) public returns (bool) {\n    // Require the proposal is still open for voting\n    require(proposals[proposal_id].end_date > now, \"Too late to vote.\");\n    // Voter governance token balance should be greater than or equal to 1\n    require(tokensContract.balanceOf(msg.sender, 3) >= 1, \"Voter balance too low\");\n    // Voter cannot revote if he has voted for \"for proposal\"\n    require(proposals[proposal_id].votes_for[msg.sender] == uint256(0));\n    // Voter cannot revote if he has voter for \"against proposal\"\n    require(proposals[proposal_id].votes_against[msg.sender] == uint256(0));\n\n    // Assign votes to the proposal\n    Proposal storage proposal = proposals[proposal_id];\n    proposal.votes_against[msg.sender] = sqrt(tokensContract.balanceOf(msg.sender, 3));\n\n    // Emit the voting event\n    emit Vote(proposal_id, msg.sender);\n    return true;\n  }\n\n  function voteForProposal(uint256 proposal_id) public returns (bool) {\n    // Require the proposal is still open for voting\n    require(proposals[proposal_id].end_date > now, \"Too late to vote.\");\n    // Voter governance token balance should be greater than or equal to 1\n    require(tokensContract.balanceOf(msg.sender, 3) >= 1, \"Voter balance too low\");\n    // Voter cannot revote if he has voted for \"for proposal\"\n    require(proposals[proposal_id].votes_for[msg.sender] == uint256(0));\n    // Voter cannot revote if he has voter for \"against proposal\"\n    require(proposals[proposal_id].votes_against[msg.sender] == uint256(0));\n\n    // Assign votes to the proposal\n    Proposal storage proposal = proposals[proposal_id];\n    proposal.votes_for[msg.sender] = sqrt(tokensContract.balanceOf(msg.sender, 3));\n\n    // Emit the voting event\n    emit Vote(proposal_id, msg.sender);\n    return true;\n  }\n}",
  "sourcePath": "/mnt/d/Projects/Solidity/minecraft-nft/Minecraft-NFT-Server/smart-contracts/contracts/Governance.sol",
  "compiler": {
    "name": "solc",
    "version": "0.6.12+commit.27d51765.Emscripten.clang"
  },
  "schemaVersion": "3.3.2",
  "updatedAt": "2020-12-19T12:48:56.363Z",
  "devdoc": {
    "kind": "dev",
    "methods": {},
    "version": 1
  },
  "userdoc": {
    "kind": "user",
    "methods": {},
    "version": 1
  }
}