{
  "contractName": "Governance",
  "abi": [
    {
      "inputs": [
        {
          "internalType": "address",
          "name": "_address",
          "type": "address"
        }
      ],
      "stateMutability": "nonpayable",
      "type": "constructor"
    },
    {
      "anonymous": false,
      "inputs": [
        {
          "indexed": false,
          "internalType": "uint256",
          "name": "proposal_id",
          "type": "uint256"
        }
      ],
      "name": "ProposalCreated",
      "type": "event"
    },
    {
      "anonymous": false,
      "inputs": [
        {
          "indexed": false,
          "internalType": "uint256",
          "name": "proposal_id",
          "type": "uint256"
        },
        {
          "indexed": false,
          "internalType": "address",
          "name": "voter",
          "type": "address"
        }
      ],
      "name": "Vote",
      "type": "event"
    },
    {
      "inputs": [
        {
          "internalType": "uint256",
          "name": "",
          "type": "uint256"
        }
      ],
      "name": "proposals",
      "outputs": [
        {
          "internalType": "uint256",
          "name": "votes_against",
          "type": "uint256"
        },
        {
          "internalType": "uint256",
          "name": "votes_for",
          "type": "uint256"
        },
        {
          "internalType": "bytes32",
          "name": "description",
          "type": "bytes32"
        },
        {
          "internalType": "uint256",
          "name": "start_date",
          "type": "uint256"
        },
        {
          "internalType": "uint256",
          "name": "end_date",
          "type": "uint256"
        }
      ],
      "stateMutability": "view",
      "type": "function"
    },
    {
      "inputs": [],
      "name": "tokensContract",
      "outputs": [
        {
          "internalType": "contract Tokens",
          "name": "",
          "type": "address"
        }
      ],
      "stateMutability": "view",
      "type": "function"
    },
    {
      "inputs": [
        {
          "internalType": "uint256",
          "name": "x",
          "type": "uint256"
        }
      ],
      "name": "sqrt",
      "outputs": [
        {
          "internalType": "uint256",
          "name": "y",
          "type": "uint256"
        }
      ],
      "stateMutability": "pure",
      "type": "function"
    },
    {
      "inputs": [
        {
          "internalType": "uint256",
          "name": "end_date",
          "type": "uint256"
        },
        {
          "internalType": "bytes32",
          "name": "description",
          "type": "bytes32"
        }
      ],
      "name": "createProposal",
      "outputs": [
        {
          "internalType": "uint256",
          "name": "",
          "type": "uint256"
        }
      ],
      "stateMutability": "nonpayable",
      "type": "function"
    },
    {
      "inputs": [
        {
          "internalType": "uint256",
          "name": "proposal_id",
          "type": "uint256"
        }
      ],
      "name": "voteAgainstProposal",
      "outputs": [
        {
          "internalType": "bool",
          "name": "",
          "type": "bool"
        }
      ],
      "stateMutability": "nonpayable",
      "type": "function"
    },
    {
      "inputs": [
        {
          "internalType": "uint256",
          "name": "proposal_id",
          "type": "uint256"
        }
      ],
      "name": "voteForProposal",
      "outputs": [
        {
          "internalType": "bool",
          "name": "",
          "type": "bool"
        }
      ],
      "stateMutability": "nonpayable",
      "type": "function"
    },
    {
      "inputs": [
        {
          "internalType": "address",
          "name": "addr",
          "type": "address"
        },
        {
          "internalType": "uint256",
          "name": "id",
          "type": "uint256"
        }
      ],
      "name": "verify_votes",
      "outputs": [
        {
          "internalType": "bool",
          "name": "",
          "type": "bool"
        }
      ],
      "stateMutability": "view",
      "type": "function"
    }
  ],
  "bytecode": "0x608060405234801561001057600080fd5b50604051610f72380380610f728339818101604052602081101561003357600080fd5b8101908080519060200190929190505050806000806101000a81548173ffffffffffffffffffffffffffffffffffffffff021916908373ffffffffffffffffffffffffffffffffffffffff160217905550600060018190555050610ed68061009c6000396000f3fe608060405234801561001057600080fd5b506004361061007d5760003560e01c8063677342ce1161005b578063677342ce146101705780637518fa98146101b25780638b47df50146101e6578063bbadf64c1461024a5761007d565b8063013cf08b14610082578063045c6ce0146100e05780631617f2ae14610124575b600080fd5b6100ae6004803603602081101561009857600080fd5b810190808035906020019092919050505061028e565b604051808681526020018581526020018481526020018381526020018281526020019550505050505060405180910390f35b61010c600480360360208110156100f657600080fd5b81019080803590602001909291905050506102c4565b60405180821515815260200191505060405180910390f35b61015a6004803603604081101561013a57600080fd5b810190808035906020019092919080359060200190929190505050610724565b6040518082815260200191505060405180910390f35b61019c6004803603602081101561018657600080fd5b810190808035906020019092919050505061093d565b6040518082815260200191505060405180910390f35b6101ba610982565b604051808273ffffffffffffffffffffffffffffffffffffffff16815260200191505060405180910390f35b610232600480360360408110156101fc57600080fd5b81019080803573ffffffffffffffffffffffffffffffffffffffff169060200190929190803590602001909291905050506109a6565b60405180821515815260200191505060405180910390f35b6102766004803603602081101561026057600080fd5b8101908080359060200190929190505050610a0e565b60405180821515815260200191505060405180910390f35b60026020528060005260406000206000915090508060000154908060010154908060020154908060030154908060040154905085565b600042600260008481526020019081526020016000206004015411610351576040517f08c379a00000000000000000000000000000000000000000000000000000000081526004018080602001828103825260118152602001807f546f6f206c61746520746f20766f74652e00000000000000000000000000000081525060200191505060405180910390fd5b600160008054906101000a900473ffffffffffffffffffffffffffffffffffffffff1673ffffffffffffffffffffffffffffffffffffffff1662fdd58e3360036040518363ffffffff1660e01b8152600401808373ffffffffffffffffffffffffffffffffffffffff1681526020018281526020019250505060206040518083038186803b1580156103e257600080fd5b505afa1580156103f6573d6000803e3d6000fd5b505050506040513d602081101561040c57600080fd5b81019080805190602001909291905050501015610491576040517f08c379a00000000000000000000000000000000000000000000000000000000081526004018080602001828103825260158152602001807f566f7465722062616c616e636520746f6f206c6f77000000000000000000000081525060200191505060405180910390fd5b600360003373ffffffffffffffffffffffffffffffffffffffff1673ffffffffffffffffffffffffffffffffffffffff168152602001908152602001600020600083815260200190815260200160002060009054906101000a900460ff1615610562576040517f08c379a00000000000000000000000000000000000000000000000000000000081526004018080602001828103825260198152602001807f566f7465722063616e206e6f7420766f74652074776963652e0000000000000081525060200191505060405180910390fd5b600060026000848152602001908152602001600020905061064b60008054906101000a900473ffffffffffffffffffffffffffffffffffffffff1673ffffffffffffffffffffffffffffffffffffffff1662fdd58e3360036040518363ffffffff1660e01b8152600401808373ffffffffffffffffffffffffffffffffffffffff1681526020018281526020019250505060206040518083038186803b15801561060b57600080fd5b505afa15801561061f573d6000803e3d6000fd5b505050506040513d602081101561063557600080fd5b810190808051906020019092919050505061093d565b81600101600082825401925050819055506001600360003373ffffffffffffffffffffffffffffffffffffffff1673ffffffffffffffffffffffffffffffffffffffff168152602001908152602001600020600085815260200190815260200160002060006101000a81548160ff0219169083151502179055507f10a412bf229fbac2408912cb271b8ff9eb39eb72da91dd0c8accab0fb10111358333604051808381526020018273ffffffffffffffffffffffffffffffffffffffff1681526020019250505060405180910390a16001915050919050565b6000606460008054906101000a900473ffffffffffffffffffffffffffffffffffffffff1673ffffffffffffffffffffffffffffffffffffffff1662fdd58e3360036040518363ffffffff1660e01b8152600401808373ffffffffffffffffffffffffffffffffffffffff1681526020018281526020019250505060206040518083038186803b1580156107b757600080fd5b505afa1580156107cb573d6000803e3d6000fd5b505050506040513d60208110156107e157600080fd5b81019080805190602001909291905050501015610866576040517f08c379a000000000000000000000000000000000000000000000000000000000815260040180806020018281038252601e8152602001807f496e73756666696369656e7420476f7665726e616e636520746f6b656e73000081525060200191505060405180910390fd5b60006001549050610875610e6e565b6040518060a001604052806000815260200160008152602001858152602001428152602001868152509050806002600084815260200190815260200160002060008201518160000155602082015181600101556040820151816002015560608201518160030155608082015181600401559050506001600081548092919060010191905055507fc2c021f5d73c63c481d336fbbafec58f694fc45095f00b02d2deb8cca59afe07826040518082815260200191505060405180910390a1819250505092915050565b6000806002600184018161094d57fe5b0490508291505b8181101561097c5780915060028182858161096b57fe5b04018161097457fe5b049050610954565b50919050565b60008054906101000a900473ffffffffffffffffffffffffffffffffffffffff1681565b6000600360008473ffffffffffffffffffffffffffffffffffffffff1673ffffffffffffffffffffffffffffffffffffffff168152602001908152602001600020600083815260200190815260200160002060009054906101000a900460ff16905092915050565b600042600260008481526020019081526020016000206004015411610a9b576040517f08c379a00000000000000000000000000000000000000000000000000000000081526004018080602001828103825260118152602001807f546f6f206c61746520746f20766f74652e00000000000000000000000000000081525060200191505060405180910390fd5b600160008054906101000a900473ffffffffffffffffffffffffffffffffffffffff1673ffffffffffffffffffffffffffffffffffffffff1662fdd58e3360036040518363ffffffff1660e01b8152600401808373ffffffffffffffffffffffffffffffffffffffff1681526020018281526020019250505060206040518083038186803b158015610b2c57600080fd5b505afa158015610b40573d6000803e3d6000fd5b505050506040513d6020811015610b5657600080fd5b81019080805190602001909291905050501015610bdb576040517f08c379a00000000000000000000000000000000000000000000000000000000081526004018080602001828103825260158152602001807f566f7465722062616c616e636520746f6f206c6f77000000000000000000000081525060200191505060405180910390fd5b600360003373ffffffffffffffffffffffffffffffffffffffff1673ffffffffffffffffffffffffffffffffffffffff168152602001908152602001600020600083815260200190815260200160002060009054906101000a900460ff1615610cac576040517f08c379a00000000000000000000000000000000000000000000000000000000081526004018080602001828103825260198152602001807f566f7465722063616e206e6f7420766f74652074776963652e0000000000000081525060200191505060405180910390fd5b6000600260008481526020019081526020016000209050610d9560008054906101000a900473ffffffffffffffffffffffffffffffffffffffff1673ffffffffffffffffffffffffffffffffffffffff1662fdd58e3360036040518363ffffffff1660e01b8152600401808373ffffffffffffffffffffffffffffffffffffffff1681526020018281526020019250505060206040518083038186803b158015610d5557600080fd5b505afa158015610d69573d6000803e3d6000fd5b505050506040513d6020811015610d7f57600080fd5b810190808051906020019092919050505061093d565b81600001600082825401925050819055506001600360003373ffffffffffffffffffffffffffffffffffffffff1673ffffffffffffffffffffffffffffffffffffffff168152602001908152602001600020600085815260200190815260200160002060006101000a81548160ff0219169083151502179055507f10a412bf229fbac2408912cb271b8ff9eb39eb72da91dd0c8accab0fb10111358333604051808381526020018273ffffffffffffffffffffffffffffffffffffffff1681526020019250505060405180910390a16001915050919050565b6040518060a001604052806000815260200160008152602001600080191681526020016000815260200160008152509056fea2646970667358221220b20622de722f179ee99c1ff0a0244a0adf2431bbea75db53effac2d18cf8c50564736f6c634300060c0033",
  "immutableReferences": {},
  "source": "// Contract for voting for the governance proposals of this project\n\npragma solidity ^0.6.0;\n\nimport \"./Tokens.sol\";\n\ncontract Governance {\n  Tokens public tokensContract;\n  uint256 proposal_ids;\n\n  struct Proposal {\n    uint256 votes_against; // Keep track of votes against\n    uint256 votes_for; // Keep track of votes for\n    bytes32 description; // An optional description for the proposal (Note: Not using array for now as a temporary fix)\n    uint256 start_date; // Start date of the proposal\n    uint256 end_date; // End date of the proposal\n  }\n\n  // Mapping proposal ids to Proposal\n  mapping(uint256 => Proposal) public proposals;\n\n  // Keep track of addresses to their proposal ids to verify votes.\n  mapping(address => mapping(uint256 => bool)) private proposal_voted;\n\n  // A proposal was created by a user owning > 100 governance tokens\n  event ProposalCreated(uint256 proposal_id);\n  // A user has voted on a proposal\n  event Vote(uint256 proposal_id, address voter);\n\n  constructor(address _address) public {\n    tokensContract = Tokens(_address);\n    proposal_ids = 0;\n  }\n\n  // Babylonian method of square root computation\n  // https://ethereum.stackexchange.com/questions/2910/can-i-square-root-in-solidity\n  function sqrt(uint256 x) public pure returns (uint256 y) {\n    uint256 z = (x + 1) / 2;\n    y = x;\n    while (z < y) {\n      y = z;\n      z = (x / z + z) / 2;\n    }\n  }\n\n  function createProposal(uint256 end_date, bytes32 description) public returns(uint256) {\n    // Find out a way to require that the proposal creator has the most amount of tokens\n    // Currently requires that the user has a governance token balance >= 100\n    require(tokensContract.balanceOf(msg.sender, 3) >= 100, \"Insufficient Governance tokens\");\n\n    // Get the proposal id\n    uint256 proposal_id = proposal_ids;\n\n    // Create a new proposal\n    Proposal memory newProposal = Proposal(0, 0, description, now, end_date);\n\n    proposals[proposal_id] = newProposal;\n\n    // Increment proposal ids count\n    proposal_ids++;\n\n    // Emit Proposal Creation event\n    emit ProposalCreated(proposal_id);\n    return proposal_id;\n  }\n\n  function voteAgainstProposal(uint256 proposal_id) public returns (bool) {\n    // Require the proposal is still open for voting\n    require(proposals[proposal_id].end_date > now, \"Too late to vote.\");\n    // Voter governance token balance should be greater than or equal to 1\n    require(tokensContract.balanceOf(msg.sender, 3) >= 1, \"Voter balance too low\");\n    // Voters cannot vote twice.\n    require(!proposal_voted[msg.sender][proposal_id], \"Voter can not vote twice.\");\n\n    // Assign votes to the proposal\n    Proposal storage proposal = proposals[proposal_id];\n    proposal.votes_against += sqrt(tokensContract.balanceOf(msg.sender, 3));\n\n    // voted.\n    proposal_voted[msg.sender][proposal_id] = true;\n\n    // Emit the voting event\n    emit Vote(proposal_id, msg.sender);\n    return true;\n  }\n\n  function voteForProposal(uint256 proposal_id) public returns (bool) {\n    // Require the proposal is still open for voting\n    require(proposals[proposal_id].end_date > now, \"Too late to vote.\");\n    // Voter governance token balance should be greater than or equal to 1\n    require(tokensContract.balanceOf(msg.sender, 3) >= 1, \"Voter balance too low\");\n    // Voters cannot vote twice.\n    require(!proposal_voted[msg.sender][proposal_id], \"Voter can not vote twice.\");\n\n    // Assign votes to the proposal\n    Proposal storage proposal = proposals[proposal_id];\n    proposal.votes_for += sqrt(tokensContract.balanceOf(msg.sender, 3));\n    \n    // voted.\n    proposal_voted[msg.sender][proposal_id] = true;\n\n    // Emit the voting event\n    emit Vote(proposal_id, msg.sender);\n    return true;\n  }\n\n  // work around to get a mapping value stored in the parent mapping\n  function verify_votes(address addr, uint256 id) external view returns(bool) {\n    return proposal_voted[addr][id];\n  }\n}",
  "sourcePath": "/mnt/d/Projects/Solidity/minecraft-nft/Minecraft-NFT-Server/smart-contracts/contracts/Governance.sol",
  "compiler": {
    "name": "solc",
    "version": "0.6.12+commit.27d51765.Emscripten.clang"
  },
  "schemaVersion": "3.3.2",
  "updatedAt": "2020-12-29T05:26:42.052Z",
  "devdoc": {
    "kind": "dev",
    "methods": {},
    "version": 1
  },
  "userdoc": {
    "kind": "user",
    "methods": {},
    "version": 1
  }
}