{
  "contractName": "Staking",
  "abi": [
    {
      "inputs": [
        {
          "internalType": "address",
          "name": "_address",
          "type": "address"
        }
      ],
      "stateMutability": "nonpayable",
      "type": "constructor"
    },
    {
      "anonymous": false,
      "inputs": [
        {
          "indexed": false,
          "internalType": "uint256",
          "name": "nft_id",
          "type": "uint256"
        },
        {
          "indexed": false,
          "internalType": "uint256",
          "name": "points",
          "type": "uint256"
        }
      ],
      "name": "NFTAdded",
      "type": "event"
    },
    {
      "anonymous": false,
      "inputs": [
        {
          "indexed": false,
          "internalType": "address",
          "name": "user",
          "type": "address"
        },
        {
          "indexed": false,
          "internalType": "uint256",
          "name": "nft_id",
          "type": "uint256"
        }
      ],
      "name": "Redeemed",
      "type": "event"
    },
    {
      "anonymous": false,
      "inputs": [
        {
          "indexed": false,
          "internalType": "address",
          "name": "user",
          "type": "address"
        },
        {
          "indexed": false,
          "internalType": "uint256",
          "name": "amount",
          "type": "uint256"
        }
      ],
      "name": "Staked",
      "type": "event"
    },
    {
      "anonymous": false,
      "inputs": [
        {
          "indexed": false,
          "internalType": "address",
          "name": "user",
          "type": "address"
        },
        {
          "indexed": false,
          "internalType": "uint256",
          "name": "amount",
          "type": "uint256"
        }
      ],
      "name": "Withdrawn",
      "type": "event"
    },
    {
      "inputs": [
        {
          "internalType": "address",
          "name": "",
          "type": "address"
        }
      ],
      "name": "lastUpdateTime",
      "outputs": [
        {
          "internalType": "uint256",
          "name": "",
          "type": "uint256"
        }
      ],
      "stateMutability": "view",
      "type": "function",
      "constant": true
    },
    {
      "inputs": [
        {
          "internalType": "uint256",
          "name": "",
          "type": "uint256"
        }
      ],
      "name": "nft_cost",
      "outputs": [
        {
          "internalType": "uint256",
          "name": "",
          "type": "uint256"
        }
      ],
      "stateMutability": "view",
      "type": "function",
      "constant": true
    },
    {
      "inputs": [
        {
          "internalType": "address",
          "name": "",
          "type": "address"
        },
        {
          "internalType": "address",
          "name": "",
          "type": "address"
        },
        {
          "internalType": "uint256[]",
          "name": "",
          "type": "uint256[]"
        },
        {
          "internalType": "uint256[]",
          "name": "",
          "type": "uint256[]"
        },
        {
          "internalType": "bytes",
          "name": "",
          "type": "bytes"
        }
      ],
      "name": "onERC1155BatchReceived",
      "outputs": [
        {
          "internalType": "bytes4",
          "name": "",
          "type": "bytes4"
        }
      ],
      "stateMutability": "nonpayable",
      "type": "function"
    },
    {
      "inputs": [
        {
          "internalType": "address",
          "name": "",
          "type": "address"
        },
        {
          "internalType": "address",
          "name": "",
          "type": "address"
        },
        {
          "internalType": "uint256",
          "name": "",
          "type": "uint256"
        },
        {
          "internalType": "uint256",
          "name": "",
          "type": "uint256"
        },
        {
          "internalType": "bytes",
          "name": "",
          "type": "bytes"
        }
      ],
      "name": "onERC1155Received",
      "outputs": [
        {
          "internalType": "bytes4",
          "name": "",
          "type": "bytes4"
        }
      ],
      "stateMutability": "nonpayable",
      "type": "function"
    },
    {
      "inputs": [],
      "name": "owner",
      "outputs": [
        {
          "internalType": "address",
          "name": "",
          "type": "address"
        }
      ],
      "stateMutability": "view",
      "type": "function",
      "constant": true
    },
    {
      "inputs": [
        {
          "internalType": "address",
          "name": "",
          "type": "address"
        }
      ],
      "name": "points",
      "outputs": [
        {
          "internalType": "uint256",
          "name": "",
          "type": "uint256"
        }
      ],
      "stateMutability": "view",
      "type": "function",
      "constant": true
    },
    {
      "inputs": [
        {
          "internalType": "address",
          "name": "",
          "type": "address"
        }
      ],
      "name": "stakers",
      "outputs": [
        {
          "internalType": "uint256",
          "name": "",
          "type": "uint256"
        }
      ],
      "stateMutability": "view",
      "type": "function",
      "constant": true
    },
    {
      "inputs": [
        {
          "internalType": "bytes4",
          "name": "interfaceId",
          "type": "bytes4"
        }
      ],
      "name": "supportsInterface",
      "outputs": [
        {
          "internalType": "bool",
          "name": "",
          "type": "bool"
        }
      ],
      "stateMutability": "view",
      "type": "function",
      "constant": true
    },
    {
      "inputs": [],
      "name": "tokensContract",
      "outputs": [
        {
          "internalType": "contract Tokens",
          "name": "",
          "type": "address"
        }
      ],
      "stateMutability": "view",
      "type": "function",
      "constant": true
    },
    {
      "inputs": [
        {
          "internalType": "uint256",
          "name": "amount",
          "type": "uint256"
        },
        {
          "internalType": "uint256",
          "name": "cost",
          "type": "uint256"
        }
      ],
      "name": "addNFT",
      "outputs": [
        {
          "internalType": "uint256",
          "name": "",
          "type": "uint256"
        }
      ],
      "stateMutability": "nonpayable",
      "type": "function"
    },
    {
      "inputs": [
        {
          "internalType": "address",
          "name": "account",
          "type": "address"
        }
      ],
      "name": "earned",
      "outputs": [
        {
          "internalType": "uint256",
          "name": "",
          "type": "uint256"
        }
      ],
      "stateMutability": "view",
      "type": "function",
      "constant": true
    },
    {
      "inputs": [
        {
          "internalType": "uint256",
          "name": "amount",
          "type": "uint256"
        }
      ],
      "name": "stake",
      "outputs": [],
      "stateMutability": "nonpayable",
      "type": "function"
    },
    {
      "inputs": [
        {
          "internalType": "uint256",
          "name": "amount",
          "type": "uint256"
        }
      ],
      "name": "withdraw",
      "outputs": [],
      "stateMutability": "nonpayable",
      "type": "function"
    },
    {
      "inputs": [],
      "name": "exit",
      "outputs": [],
      "stateMutability": "nonpayable",
      "type": "function"
    },
    {
      "inputs": [
        {
          "internalType": "uint256",
          "name": "nft_id",
          "type": "uint256"
        }
      ],
      "name": "redeem",
      "outputs": [],
      "stateMutability": "nonpayable",
      "type": "function"
    }
  ],
  "bytecode": "0x608060405234801561001057600080fd5b5060405162001cba38038062001cba8339818101604052602081101561003557600080fd5b810190808051906020019092919050505061005c6301ffc9a760e01b61010360201b60201c565b61007b63bc197c8160e01b63f23a6e6160e01b1861010360201b60201c565b80600160006101000a81548173ffffffffffffffffffffffffffffffffffffffff021916908373ffffffffffffffffffffffffffffffffffffffff16021790555033600660006101000a81548173ffffffffffffffffffffffffffffffffffffffff021916908373ffffffffffffffffffffffffffffffffffffffff1602179055505061020b565b63ffffffff60e01b817bffffffffffffffffffffffffffffffffffffffffffffffffffffffff1916141561019f576040517f08c379a000000000000000000000000000000000000000000000000000000000815260040180806020018281038252601c8152602001807f4552433136353a20696e76616c696420696e746572666163652069640000000081525060200191505060405180910390fd5b6001600080837bffffffffffffffffffffffffffffffffffffffffffffffffffffffff19167bffffffffffffffffffffffffffffffffffffffffffffffffffffffff1916815260200190815260200160002060006101000a81548160ff02191690831515021790555050565b611a9f806200021b6000396000f3fe608060405234801561001057600080fd5b50600436106100f45760003560e01c80638da5cb5b11610097578063bc197c8111610066578063bc197c811461040e578063db006a7514610664578063e9fad8ee14610692578063f23a6e611461069c576100f4565b80638da5cb5b146103085780639168ae721461033c578063a694fc3a14610394578063b532b95d146103c2576100f4565b80632e1a7d4d116100d35780632e1a7d4d1461020c578063358b81661461023a578063552e3624146102925780637518fa98146102d4576100f4565b80628cc262146100f957806301ffc9a7146101515780632ce9aead146101b4575b600080fd5b61013b6004803603602081101561010f57600080fd5b81019080803573ffffffffffffffffffffffffffffffffffffffff1690602001909291905050506107de565b6040518082815260200191505060405180910390f35b61019c6004803603602081101561016757600080fd5b8101908080357bffffffffffffffffffffffffffffffffffffffffffffffffffffffff19169060200190929190505050610967565b60405180821515815260200191505060405180910390f35b6101f6600480360360208110156101ca57600080fd5b81019080803573ffffffffffffffffffffffffffffffffffffffff1690602001909291905050506109ce565b6040518082815260200191505060405180910390f35b6102386004803603602081101561022257600080fd5b81019080803590602001909291905050506109e6565b005b61027c6004803603602081101561025057600080fd5b81019080803573ffffffffffffffffffffffffffffffffffffffff169060200190929190505050610d88565b6040518082815260200191505060405180910390f35b6102be600480360360208110156102a857600080fd5b8101908080359060200190929190505050610da0565b6040518082815260200191505060405180910390f35b6102dc610db8565b604051808273ffffffffffffffffffffffffffffffffffffffff16815260200191505060405180910390f35b610310610dde565b604051808273ffffffffffffffffffffffffffffffffffffffff16815260200191505060405180910390f35b61037e6004803603602081101561035257600080fd5b81019080803573ffffffffffffffffffffffffffffffffffffffff169060200190929190505050610e04565b6040518082815260200191505060405180910390f35b6103c0600480360360208110156103aa57600080fd5b8101908080359060200190929190505050610e1c565b005b6103f8600480360360408110156103d857600080fd5b8101908080359060200190929190803590602001909291905050506111b7565b6040518082815260200191505060405180910390f35b61062f600480360360a081101561042457600080fd5b81019080803573ffffffffffffffffffffffffffffffffffffffff169060200190929190803573ffffffffffffffffffffffffffffffffffffffff1690602001909291908035906020019064010000000081111561048157600080fd5b82018360208201111561049357600080fd5b803590602001918460208302840111640100000000831117156104b557600080fd5b919080806020026020016040519081016040528093929190818152602001838360200280828437600081840152601f19601f8201169050808301925050505050505091929192908035906020019064010000000081111561051557600080fd5b82018360208201111561052757600080fd5b8035906020019184602083028401116401000000008311171561054957600080fd5b919080806020026020016040519081016040528093929190818152602001838360200280828437600081840152601f19601f820116905080830192505050505050509192919290803590602001906401000000008111156105a957600080fd5b8201836020820111156105bb57600080fd5b803590602001918460018302840111640100000000831117156105dd57600080fd5b91908080601f016020809104026020016040519081016040528093929190818152602001838380828437600081840152601f19601f820116905080830192505050505050509192919290505050611328565b60405180827bffffffffffffffffffffffffffffffffffffffffffffffffffffffff1916815260200191505060405180910390f35b6106906004803603602081101561067a57600080fd5b810190808035906020019092919050505061133d565b005b61069a61199a565b005b6107a9600480360360a08110156106b257600080fd5b81019080803573ffffffffffffffffffffffffffffffffffffffff169060200190929190803573ffffffffffffffffffffffffffffffffffffffff16906020019092919080359060200190929190803590602001909291908035906020019064010000000081111561072357600080fd5b82018360208201111561073557600080fd5b8035906020019184600183028401116401000000008311171561075757600080fd5b91908080601f016020809104026020016040519081016040528093929190818152602001838380828437600081840152601f19601f8201169050808301925050505050505091929192905050506119e4565b60405180827bffffffffffffffffffffffffffffffffffffffffffffffffffffffff1916815260200191505060405180910390f35b600080429050670de0b6b3a76400006161a8600160009054906101000a900473ffffffffffffffffffffffffffffffffffffffff1673ffffffffffffffffffffffffffffffffffffffff1662fdd58e8660006040518363ffffffff1660e01b8152600401808373ffffffffffffffffffffffffffffffffffffffff1681526020018281526020019250505060206040518083038186803b15801561088157600080fd5b505afa158015610895573d6000803e3d6000fd5b505050506040513d60208110156108ab57600080fd5b810190808051906020019092919050505002816108c457fe5b0462015180670de0b6b3a7640000600460008773ffffffffffffffffffffffffffffffffffffffff1673ffffffffffffffffffffffffffffffffffffffff16815260200190815260200160002054028161091a57fe5b04028103600260008573ffffffffffffffffffffffffffffffffffffffff1673ffffffffffffffffffffffffffffffffffffffff1681526020019081526020016000205401915050919050565b6000806000837bffffffffffffffffffffffffffffffffffffffffffffffffffffffff19167bffffffffffffffffffffffffffffffffffffffffffffffffffffffff1916815260200190815260200160002060009054906101000a900460ff169050919050565b60046020528060005260406000206000915090505481565b33600073ffffffffffffffffffffffffffffffffffffffff168173ffffffffffffffffffffffffffffffffffffffff1614610aac57610a24816107de565b600260008373ffffffffffffffffffffffffffffffffffffffff1673ffffffffffffffffffffffffffffffffffffffff1681526020019081526020016000208190555042600460008373ffffffffffffffffffffffffffffffffffffffff1673ffffffffffffffffffffffffffffffffffffffff168152602001908152602001600020819055505b60008211610b22576040517f08c379a00000000000000000000000000000000000000000000000000000000081526004018080602001828103825260118152602001807f43616e6e6f74207769746864726177203000000000000000000000000000000081525060200191505060405180910390fd5b600360003373ffffffffffffffffffffffffffffffffffffffff1673ffffffffffffffffffffffffffffffffffffffff16815260200190815260200160002054821115610bd7576040517f08c379a000000000000000000000000000000000000000000000000000000000815260040180806020018281038252601a8152602001807f416d6f756e74207374616b65642069736e277420656e6f75676800000000000081525060200191505060405180910390fd5b600160009054906101000a900473ffffffffffffffffffffffffffffffffffffffff1673ffffffffffffffffffffffffffffffffffffffff1663f242432a30336000866040518563ffffffff1660e01b8152600401808573ffffffffffffffffffffffffffffffffffffffff1681526020018473ffffffffffffffffffffffffffffffffffffffff16815260200183815260200182815260200180602001828103825260038152602001807f307830000000000000000000000000000000000000000000000000000000000081525060200195505050505050600060405180830381600087803b158015610cca57600080fd5b505af1158015610cde573d6000803e3d6000fd5b5050505081600360003373ffffffffffffffffffffffffffffffffffffffff1673ffffffffffffffffffffffffffffffffffffffff168152602001908152602001600020600082825403925050819055507f7084f5476618d8e60b11ef0d7d3f06914655adb8793e28ff7f018d4c76d505d53383604051808373ffffffffffffffffffffffffffffffffffffffff1681526020018281526020019250505060405180910390a15050565b60026020528060005260406000206000915090505481565b60056020528060005260406000206000915090505481565b600160009054906101000a900473ffffffffffffffffffffffffffffffffffffffff1681565b600660009054906101000a900473ffffffffffffffffffffffffffffffffffffffff1681565b60036020528060005260406000206000915090505481565b33600073ffffffffffffffffffffffffffffffffffffffff168173ffffffffffffffffffffffffffffffffffffffff1614610ee257610e5a816107de565b600260008373ffffffffffffffffffffffffffffffffffffffff1673ffffffffffffffffffffffffffffffffffffffff1681526020019081526020016000208190555042600460008373ffffffffffffffffffffffffffffffffffffffff1673ffffffffffffffffffffffffffffffffffffffff168152602001908152602001600020819055505b6000600160009054906101000a900473ffffffffffffffffffffffffffffffffffffffff1673ffffffffffffffffffffffffffffffffffffffff1662fdd58e3360006040518363ffffffff1660e01b8152600401808373ffffffffffffffffffffffffffffffffffffffff1681526020018281526020019250505060206040518083038186803b158015610f7557600080fd5b505afa158015610f89573d6000803e3d6000fd5b505050506040513d6020811015610f9f57600080fd5b810190808051906020019092919050505011611006576040517f08c379a0000000000000000000000000000000000000000000000000000000008152600401808060200182810382526022815260200180611a486022913960400191505060405180910390fd5b600160009054906101000a900473ffffffffffffffffffffffffffffffffffffffff1673ffffffffffffffffffffffffffffffffffffffff1663f242432a33306000866040518563ffffffff1660e01b8152600401808573ffffffffffffffffffffffffffffffffffffffff1681526020018473ffffffffffffffffffffffffffffffffffffffff16815260200183815260200182815260200180602001828103825260038152602001807f307830000000000000000000000000000000000000000000000000000000000081525060200195505050505050600060405180830381600087803b1580156110f957600080fd5b505af115801561110d573d6000803e3d6000fd5b5050505081600360003373ffffffffffffffffffffffffffffffffffffffff1673ffffffffffffffffffffffffffffffffffffffff168152602001908152602001600020600082825401925050819055507f9e71bc8eea02a63969f509818f2dafb9254532904319f9dbda79b67bd34a5f3d3383604051808373ffffffffffffffffffffffffffffffffffffffff1681526020018281526020019250505060405180910390a15050565b6000600660009054906101000a900473ffffffffffffffffffffffffffffffffffffffff1673ffffffffffffffffffffffffffffffffffffffff163373ffffffffffffffffffffffffffffffffffffffff161461121357600080fd5b6000600160009054906101000a900473ffffffffffffffffffffffffffffffffffffffff1673ffffffffffffffffffffffffffffffffffffffff1663a0712d68856040518263ffffffff1660e01b815260040180828152602001915050602060405180830381600087803b15801561128a57600080fd5b505af115801561129e573d6000803e3d6000fd5b505050506040513d60208110156112b457600080fd5b810190808051906020019092919050505090508260056000838152602001908152602001600020819055507fe3b607f961c2e42f121175b28052f87521fd49b234f69f5acbbc257718ab3b938185604051808381526020018281526020019250505060405180910390a18091505092915050565b600063bc197c8160e01b905095945050505050565b33600073ffffffffffffffffffffffffffffffffffffffff168173ffffffffffffffffffffffffffffffffffffffff16146114035761137b816107de565b600260008373ffffffffffffffffffffffffffffffffffffffff1673ffffffffffffffffffffffffffffffffffffffff1681526020019081526020016000208190555042600460008373ffffffffffffffffffffffffffffffffffffffff1673ffffffffffffffffffffffffffffffffffffffff168152602001908152602001600020819055505b600160009054906101000a900473ffffffffffffffffffffffffffffffffffffffff1673ffffffffffffffffffffffffffffffffffffffff16639b0c81d36040518163ffffffff1660e01b815260040160206040518083038186803b15801561146b57600080fd5b505afa15801561147f573d6000803e3d6000fd5b505050506040513d602081101561149557600080fd5b8101908080519060200190929190505050821061151a576040517f08c379a00000000000000000000000000000000000000000000000000000000081526004018080602001828103825260188152602001807f54686520696420697320612076616c6964206e6674206964000000000000000081525060200191505060405180910390fd5b6000821415611574576040517f08c379a00000000000000000000000000000000000000000000000000000000081526004018080602001828103825260228152602001806119fa6022913960400191505060405180910390fd5b60018214156115ce576040517f08c379a000000000000000000000000000000000000000000000000000000000815260040180806020018281038252602c815260200180611a1c602c913960400191505060405180910390fd5b6005600083815260200190815260200160002054600260003373ffffffffffffffffffffffffffffffffffffffff1673ffffffffffffffffffffffffffffffffffffffff168152602001908152602001600020541015611696576040517f08c379a000000000000000000000000000000000000000000000000000000000815260040180806020018281038252601f8152602001807f4e6f7420656e6f75676820706f696e747320746f2072656465656d204e46540081525060200191505060405180910390fd5b6000600160009054906101000a900473ffffffffffffffffffffffffffffffffffffffff1673ffffffffffffffffffffffffffffffffffffffff1662fdd58e30856040518363ffffffff1660e01b8152600401808373ffffffffffffffffffffffffffffffffffffffff1681526020018281526020019250505060206040518083038186803b15801561172857600080fd5b505afa15801561173c573d6000803e3d6000fd5b505050506040513d602081101561175257600080fd5b8101908080519060200190929190505050116117d6576040517f08c379a00000000000000000000000000000000000000000000000000000000081526004018080602001828103825260108152602001807f4d6178206361726473206d696e7465640000000000000000000000000000000081525060200191505060405180910390fd5b6005600083815260200190815260200160002054600260003373ffffffffffffffffffffffffffffffffffffffff1673ffffffffffffffffffffffffffffffffffffffff16815260200190815260200160002060008282540392505081905550600160009054906101000a900473ffffffffffffffffffffffffffffffffffffffff1673ffffffffffffffffffffffffffffffffffffffff1663f242432a30338560016040518563ffffffff1660e01b8152600401808573ffffffffffffffffffffffffffffffffffffffff1681526020018473ffffffffffffffffffffffffffffffffffffffff16815260200183815260200182815260200180602001828103825260038152602001807f307830000000000000000000000000000000000000000000000000000000000081525060200195505050505050600060405180830381600087803b15801561192957600080fd5b505af115801561193d573d6000803e3d6000fd5b505050507f4896181ff8f4543cc00db9fe9b6fb7e6f032b7eb772c72ab1ec1b4d2e03b93693383604051808373ffffffffffffffffffffffffffffffffffffffff1681526020018281526020019250505060405180910390a15050565b6119e2600360003373ffffffffffffffffffffffffffffffffffffffff1673ffffffffffffffffffffffffffffffffffffffff168152602001908152602001600020546109e6565b565b600063f23a6e6160e01b90509594505050505056fe546865206964206d75737420626520612066756e6769626c6520746f6b656e2069645468652069642073686f756c64206e6f742062652074686520676f7665726e616e636520746f6b656e2069644e65656420736f6d652066756e6769626c6520746f6b656e7320746f207374616b65a2646970667358221220a7b07ca38fe033736f1f6400fb227374a7e0e6c9237bfa552e1eb54c32b6605b64736f6c634300060c0033",
  "immutableReferences": {},
  "source": "// Contract for staking fungible tokens to earn points and redeem NFTs\n\npragma solidity ^0.6.0;\n\nimport \"@openzeppelin/contracts/token/ERC1155/ERC1155Holder.sol\";\nimport \"./Tokens.sol\";\n\ncontract Staking is ERC1155Holder{\n  Tokens public tokensContract;\n  \n  mapping (address => uint256) public points;\n  mapping (address => uint256) public stakers;\n  mapping (address => uint256) public lastUpdateTime;\n  mapping (uint256 => uint256) public nft_cost;\n\n  // owner of the contract\n  address public owner;\n\n  // A user has staked his/her tokens\n  event Staked(address user, uint256 amount);\n  // An user has unstaked his/her tokens\n  event Withdrawn(address user, uint256 amount);\n  // A NFT token was redeemed by the user\n  event Redeemed(address user, uint256 nft_id);\n  // A NFT token was added to the project\n  event NFTAdded(uint256 nft_id, uint256 points);\n\n  // Updates the count of points rewarded\n  modifier updateReward(address account) {\n\t\tif (account != address(0)) {\n\t\t\tpoints[account] = earned(account);\n\t\t\tlastUpdateTime[account] = block.timestamp;\n\t\t}\n    _;\n\t}\n\n  // Checks if the function caller is the owner of the contract\n  modifier onlyOwner() {\n    require(msg.sender == owner);\n    _;\n  }\n\n  // initialize token contract and assign contract ownership.\n  constructor (address _address) public {\n    tokensContract = Tokens(_address);\n    owner = msg.sender;\n  }\n\n  // Adds an NFT to the project and returns the generated nft id\n  function addNFT(uint256 amount, uint256 cost) public onlyOwner() returns (uint256) {\n    uint256 nft_id = tokensContract.mint(amount);\n    nft_cost[nft_id] = cost;\n\t\temit NFTAdded(nft_id, amount);\n    return nft_id;\n\t}\n\n  // Returns the points earned by a user\n\tfunction earned(address account) public view returns (uint256) {\n\t\tuint256 blockTime = block.timestamp;\n\t\treturn\n\t\t\tpoints[account] + (\n\t\t\t\tblockTime - (lastUpdateTime[account]) * (1e18) / (86400) * (\n\t\t\t\t\t(tokensContract.balanceOf(account, 0) * (25000)) / (1e18)\n\t\t\t\t)\n\t\t\t);\n\t}\n\n  // Stakes some fungible tokens\n\tfunction stake(uint256 amount) public updateReward(msg.sender) {\n\t\trequire(tokensContract.balanceOf(msg.sender, 0) > 0, \"Need some fungible tokens to stake\");\n\n    // Transfer the fungible tokens from the user to the contract\n    tokensContract.safeTransferFrom(msg.sender, address(this), 0, amount, \"0x0\");\n    // Make sure the amount is removed from the staking\n    stakers[msg.sender] += amount;\n\n\t\temit Staked(msg.sender, amount);\n\t}\n\n  // Withdraws staked fungible tokens\n\tfunction withdraw(uint256 amount) public updateReward(msg.sender) {\n\t\trequire(amount > 0, \"Cannot withdraw 0\");\n    require(amount <= stakers[msg.sender], \"Amount staked isn't enough\");\n\n    // Transfer the fungible tokens from the contract to the user\n    tokensContract.safeTransferFrom(address(this), msg.sender, 0, amount, \"0x0\");\n    // Make sure the amount is removed from the staking\n    stakers[msg.sender] -= amount;\n\n\t\temit Withdrawn(msg.sender, amount);\n\t}\n\n  // Withdraws all the staked fungible tokens of a user\n\tfunction exit() external {\n\t\twithdraw(stakers[msg.sender]);\n\t}\n\n  // Redeems an NFT with the acrued points\n\tfunction redeem(uint256 nft_id) public updateReward(msg.sender) {\n\t\trequire(nft_id < tokensContract.get_num_of_token_types(), \"The id is a valid nft id\");\n    require(nft_id != 0, \"The id must be a fungible token id\");\n    require(nft_id != 1, \"The id should not be the governance token id\");\n\t\trequire(points[msg.sender] >= nft_cost[nft_id], \"Not enough points to redeem NFT\");\n\t\trequire(tokensContract.balanceOf(address(this), nft_id) > 0, \"Max cards minted\");\n\n    // Remove the points and transfer the token from the \n    // owner of the contract (since he/she will have the token) to the redeemer\n\t\tpoints[msg.sender] -= nft_cost[nft_id];\n    tokensContract.safeTransferFrom(address(this), msg.sender, nft_id, 1, \"0x0\");\n\n\t\temit Redeemed(msg.sender, nft_id);\n\t}\n}\n\n\n\n  \n",
  "sourcePath": "/mnt/d/Projects/Solidity/minecraft-nft/Minecraft-NFT-Server/smart-contracts/contracts/Staking.sol",
  "compiler": {
    "name": "solc",
    "version": "0.6.12+commit.27d51765.Emscripten.clang"
  },
  "schemaVersion": "3.3.2",
  "updatedAt": "2021-01-15T14:31:47.594Z",
  "networkType": "ethereum",
  "devdoc": {
    "kind": "dev",
    "methods": {
      "supportsInterface(bytes4)": {
        "details": "See {IERC165-supportsInterface}. Time complexity O(1), guaranteed to always use less than 30 000 gas."
      }
    },
    "version": 1
  },
  "userdoc": {
    "kind": "user",
    "methods": {},
    "version": 1
  }
}