{
  "contractName": "Staking",
  "abi": [
    {
      "inputs": [
        {
          "internalType": "address",
          "name": "_address",
          "type": "address"
        }
      ],
      "stateMutability": "nonpayable",
      "type": "constructor"
    },
    {
      "anonymous": false,
      "inputs": [
        {
          "indexed": false,
          "internalType": "uint256",
          "name": "nft_id",
          "type": "uint256"
        },
        {
          "indexed": false,
          "internalType": "uint256",
          "name": "points",
          "type": "uint256"
        }
      ],
      "name": "NFTAdded",
      "type": "event"
    },
    {
      "anonymous": false,
      "inputs": [
        {
          "indexed": false,
          "internalType": "address",
          "name": "user",
          "type": "address"
        },
        {
          "indexed": false,
          "internalType": "uint256",
          "name": "nft_id",
          "type": "uint256"
        }
      ],
      "name": "Redeemed",
      "type": "event"
    },
    {
      "anonymous": false,
      "inputs": [
        {
          "indexed": false,
          "internalType": "address",
          "name": "user",
          "type": "address"
        },
        {
          "indexed": false,
          "internalType": "uint256",
          "name": "amount",
          "type": "uint256"
        }
      ],
      "name": "Staked",
      "type": "event"
    },
    {
      "anonymous": false,
      "inputs": [
        {
          "indexed": false,
          "internalType": "address",
          "name": "user",
          "type": "address"
        },
        {
          "indexed": false,
          "internalType": "uint256",
          "name": "amount",
          "type": "uint256"
        }
      ],
      "name": "Withdrawn",
      "type": "event"
    },
    {
      "inputs": [
        {
          "internalType": "address",
          "name": "",
          "type": "address"
        }
      ],
      "name": "lastUpdateTime",
      "outputs": [
        {
          "internalType": "uint256",
          "name": "",
          "type": "uint256"
        }
      ],
      "stateMutability": "view",
      "type": "function"
    },
    {
      "inputs": [
        {
          "internalType": "uint256",
          "name": "",
          "type": "uint256"
        }
      ],
      "name": "nft_cost",
      "outputs": [
        {
          "internalType": "uint256",
          "name": "",
          "type": "uint256"
        }
      ],
      "stateMutability": "view",
      "type": "function"
    },
    {
      "inputs": [
        {
          "internalType": "address",
          "name": "",
          "type": "address"
        },
        {
          "internalType": "address",
          "name": "",
          "type": "address"
        },
        {
          "internalType": "uint256[]",
          "name": "",
          "type": "uint256[]"
        },
        {
          "internalType": "uint256[]",
          "name": "",
          "type": "uint256[]"
        },
        {
          "internalType": "bytes",
          "name": "",
          "type": "bytes"
        }
      ],
      "name": "onERC1155BatchReceived",
      "outputs": [
        {
          "internalType": "bytes4",
          "name": "",
          "type": "bytes4"
        }
      ],
      "stateMutability": "nonpayable",
      "type": "function"
    },
    {
      "inputs": [
        {
          "internalType": "address",
          "name": "",
          "type": "address"
        },
        {
          "internalType": "address",
          "name": "",
          "type": "address"
        },
        {
          "internalType": "uint256",
          "name": "",
          "type": "uint256"
        },
        {
          "internalType": "uint256",
          "name": "",
          "type": "uint256"
        },
        {
          "internalType": "bytes",
          "name": "",
          "type": "bytes"
        }
      ],
      "name": "onERC1155Received",
      "outputs": [
        {
          "internalType": "bytes4",
          "name": "",
          "type": "bytes4"
        }
      ],
      "stateMutability": "nonpayable",
      "type": "function"
    },
    {
      "inputs": [
        {
          "internalType": "address",
          "name": "",
          "type": "address"
        }
      ],
      "name": "points",
      "outputs": [
        {
          "internalType": "uint256",
          "name": "",
          "type": "uint256"
        }
      ],
      "stateMutability": "view",
      "type": "function"
    },
    {
      "inputs": [
        {
          "internalType": "address",
          "name": "",
          "type": "address"
        }
      ],
      "name": "stakers",
      "outputs": [
        {
          "internalType": "uint256",
          "name": "",
          "type": "uint256"
        }
      ],
      "stateMutability": "view",
      "type": "function"
    },
    {
      "inputs": [
        {
          "internalType": "bytes4",
          "name": "interfaceId",
          "type": "bytes4"
        }
      ],
      "name": "supportsInterface",
      "outputs": [
        {
          "internalType": "bool",
          "name": "",
          "type": "bool"
        }
      ],
      "stateMutability": "view",
      "type": "function"
    },
    {
      "inputs": [],
      "name": "tokensContract",
      "outputs": [
        {
          "internalType": "contract Tokens",
          "name": "",
          "type": "address"
        }
      ],
      "stateMutability": "view",
      "type": "function"
    },
    {
      "inputs": [
        {
          "internalType": "uint256",
          "name": "amount",
          "type": "uint256"
        },
        {
          "internalType": "uint256",
          "name": "cost",
          "type": "uint256"
        }
      ],
      "name": "addNFT",
      "outputs": [
        {
          "internalType": "uint256",
          "name": "",
          "type": "uint256"
        }
      ],
      "stateMutability": "nonpayable",
      "type": "function"
    },
    {
      "inputs": [
        {
          "internalType": "address",
          "name": "account",
          "type": "address"
        }
      ],
      "name": "earned",
      "outputs": [
        {
          "internalType": "uint256",
          "name": "",
          "type": "uint256"
        }
      ],
      "stateMutability": "view",
      "type": "function"
    },
    {
      "inputs": [
        {
          "internalType": "uint256",
          "name": "amount",
          "type": "uint256"
        }
      ],
      "name": "stake",
      "outputs": [],
      "stateMutability": "nonpayable",
      "type": "function"
    },
    {
      "inputs": [
        {
          "internalType": "uint256",
          "name": "amount",
          "type": "uint256"
        }
      ],
      "name": "withdraw",
      "outputs": [],
      "stateMutability": "nonpayable",
      "type": "function"
    },
    {
      "inputs": [],
      "name": "exit",
      "outputs": [],
      "stateMutability": "nonpayable",
      "type": "function"
    },
    {
      "inputs": [
        {
          "internalType": "uint256",
          "name": "nft_id",
          "type": "uint256"
        }
      ],
      "name": "redeem",
      "outputs": [],
      "stateMutability": "nonpayable",
      "type": "function"
    }
  ],
  "bytecode": "0x608060405234801561001057600080fd5b5060405162001c6b38038062001c6b8339818101604052602081101561003557600080fd5b810190808051906020019092919050505061005c6301ffc9a760e01b61010360201b60201c565b61007b63bc197c8160e01b63f23a6e6160e01b1861010360201b60201c565b80600160006101000a81548173ffffffffffffffffffffffffffffffffffffffff021916908373ffffffffffffffffffffffffffffffffffffffff16021790555033600660006101000a81548173ffffffffffffffffffffffffffffffffffffffff021916908373ffffffffffffffffffffffffffffffffffffffff1602179055505061020b565b63ffffffff60e01b817bffffffffffffffffffffffffffffffffffffffffffffffffffffffff1916141561019f576040517f08c379a000000000000000000000000000000000000000000000000000000000815260040180806020018281038252601c8152602001807f4552433136353a20696e76616c696420696e746572666163652069640000000081525060200191505060405180910390fd5b6001600080837bffffffffffffffffffffffffffffffffffffffffffffffffffffffff19167bffffffffffffffffffffffffffffffffffffffffffffffffffffffff1916815260200190815260200160002060006101000a81548160ff02191690831515021790555050565b611a50806200021b6000396000f3fe608060405234801561001057600080fd5b50600436106100e95760003560e01c80639168ae721161008c578063bc197c8111610066578063bc197c81146103cf578063db006a7514610625578063e9fad8ee14610653578063f23a6e611461065d576100e9565b80639168ae72146102fd578063a694fc3a14610355578063b532b95d14610383576100e9565b80632e1a7d4d116100c85780632e1a7d4d14610201578063358b81661461022f578063552e3624146102875780637518fa98146102c9576100e9565b80628cc262146100ee57806301ffc9a7146101465780632ce9aead146101a9575b600080fd5b6101306004803603602081101561010457600080fd5b81019080803573ffffffffffffffffffffffffffffffffffffffff16906020019092919050505061079f565b6040518082815260200191505060405180910390f35b6101916004803603602081101561015c57600080fd5b8101908080357bffffffffffffffffffffffffffffffffffffffffffffffffffffffff19169060200190929190505050610928565b60405180821515815260200191505060405180910390f35b6101eb600480360360208110156101bf57600080fd5b81019080803573ffffffffffffffffffffffffffffffffffffffff16906020019092919050505061098f565b6040518082815260200191505060405180910390f35b61022d6004803603602081101561021757600080fd5b81019080803590602001909291905050506109a7565b005b6102716004803603602081101561024557600080fd5b81019080803573ffffffffffffffffffffffffffffffffffffffff169060200190929190505050610d49565b6040518082815260200191505060405180910390f35b6102b36004803603602081101561029d57600080fd5b8101908080359060200190929190505050610d61565b6040518082815260200191505060405180910390f35b6102d1610d79565b604051808273ffffffffffffffffffffffffffffffffffffffff16815260200191505060405180910390f35b61033f6004803603602081101561031357600080fd5b81019080803573ffffffffffffffffffffffffffffffffffffffff169060200190929190505050610d9f565b6040518082815260200191505060405180910390f35b6103816004803603602081101561036b57600080fd5b8101908080359060200190929190505050610db7565b005b6103b96004803603604081101561039957600080fd5b810190808035906020019092919080359060200190929190505050611153565b6040518082815260200191505060405180910390f35b6105f0600480360360a08110156103e557600080fd5b81019080803573ffffffffffffffffffffffffffffffffffffffff169060200190929190803573ffffffffffffffffffffffffffffffffffffffff1690602001909291908035906020019064010000000081111561044257600080fd5b82018360208201111561045457600080fd5b8035906020019184602083028401116401000000008311171561047657600080fd5b919080806020026020016040519081016040528093929190818152602001838360200280828437600081840152601f19601f820116905080830192505050505050509192919290803590602001906401000000008111156104d657600080fd5b8201836020820111156104e857600080fd5b8035906020019184602083028401116401000000008311171561050a57600080fd5b919080806020026020016040519081016040528093929190818152602001838360200280828437600081840152601f19601f8201169050808301925050505050505091929192908035906020019064010000000081111561056a57600080fd5b82018360208201111561057c57600080fd5b8035906020019184600183028401116401000000008311171561059e57600080fd5b91908080601f016020809104026020016040519081016040528093929190818152602001838380828437600081840152601f19601f8201169050808301925050505050505091929192905050506112c4565b60405180827bffffffffffffffffffffffffffffffffffffffffffffffffffffffff1916815260200191505060405180910390f35b6106516004803603602081101561063b57600080fd5b81019080803590602001909291905050506112d9565b005b61065b611975565b005b61076a600480360360a081101561067357600080fd5b81019080803573ffffffffffffffffffffffffffffffffffffffff169060200190929190803573ffffffffffffffffffffffffffffffffffffffff1690602001909291908035906020019092919080359060200190929190803590602001906401000000008111156106e457600080fd5b8201836020820111156106f657600080fd5b8035906020019184600183028401116401000000008311171561071857600080fd5b91908080601f016020809104026020016040519081016040528093929190818152602001838380828437600081840152601f19601f8201169050808301925050505050505091929192905050506119bf565b60405180827bffffffffffffffffffffffffffffffffffffffffffffffffffffffff1916815260200191505060405180910390f35b600080429050670de0b6b3a76400006161a8600160009054906101000a900473ffffffffffffffffffffffffffffffffffffffff1673ffffffffffffffffffffffffffffffffffffffff1662fdd58e8660006040518363ffffffff1660e01b8152600401808373ffffffffffffffffffffffffffffffffffffffff1681526020018281526020019250505060206040518083038186803b15801561084257600080fd5b505afa158015610856573d6000803e3d6000fd5b505050506040513d602081101561086c57600080fd5b8101908080519060200190929190505050028161088557fe5b0462015180670de0b6b3a7640000600460008773ffffffffffffffffffffffffffffffffffffffff1673ffffffffffffffffffffffffffffffffffffffff1681526020019081526020016000205402816108db57fe5b04028103600260008573ffffffffffffffffffffffffffffffffffffffff1673ffffffffffffffffffffffffffffffffffffffff1681526020019081526020016000205401915050919050565b6000806000837bffffffffffffffffffffffffffffffffffffffffffffffffffffffff19167bffffffffffffffffffffffffffffffffffffffffffffffffffffffff1916815260200190815260200160002060009054906101000a900460ff169050919050565b60046020528060005260406000206000915090505481565b33600073ffffffffffffffffffffffffffffffffffffffff168173ffffffffffffffffffffffffffffffffffffffff1614610a6d576109e58161079f565b600260008373ffffffffffffffffffffffffffffffffffffffff1673ffffffffffffffffffffffffffffffffffffffff1681526020019081526020016000208190555042600460008373ffffffffffffffffffffffffffffffffffffffff1673ffffffffffffffffffffffffffffffffffffffff168152602001908152602001600020819055505b60008211610ae3576040517f08c379a00000000000000000000000000000000000000000000000000000000081526004018080602001828103825260118152602001807f43616e6e6f74207769746864726177203000000000000000000000000000000081525060200191505060405180910390fd5b600360003373ffffffffffffffffffffffffffffffffffffffff1673ffffffffffffffffffffffffffffffffffffffff16815260200190815260200160002054821115610b98576040517f08c379a000000000000000000000000000000000000000000000000000000000815260040180806020018281038252601a8152602001807f416d6f756e74207374616b65642069736e277420656e6f75676800000000000081525060200191505060405180910390fd5b600160009054906101000a900473ffffffffffffffffffffffffffffffffffffffff1673ffffffffffffffffffffffffffffffffffffffff1663f242432a30336000866040518563ffffffff1660e01b8152600401808573ffffffffffffffffffffffffffffffffffffffff1681526020018473ffffffffffffffffffffffffffffffffffffffff16815260200183815260200182815260200180602001828103825260038152602001807f307830000000000000000000000000000000000000000000000000000000000081525060200195505050505050600060405180830381600087803b158015610c8b57600080fd5b505af1158015610c9f573d6000803e3d6000fd5b5050505081600360003373ffffffffffffffffffffffffffffffffffffffff1673ffffffffffffffffffffffffffffffffffffffff168152602001908152602001600020600082825403925050819055507f7084f5476618d8e60b11ef0d7d3f06914655adb8793e28ff7f018d4c76d505d53383604051808373ffffffffffffffffffffffffffffffffffffffff1681526020018281526020019250505060405180910390a15050565b60026020528060005260406000206000915090505481565b60056020528060005260406000206000915090505481565b600160009054906101000a900473ffffffffffffffffffffffffffffffffffffffff1681565b60036020528060005260406000206000915090505481565b33600073ffffffffffffffffffffffffffffffffffffffff168173ffffffffffffffffffffffffffffffffffffffff1614610e7d57610df58161079f565b600260008373ffffffffffffffffffffffffffffffffffffffff1673ffffffffffffffffffffffffffffffffffffffff1681526020019081526020016000208190555042600460008373ffffffffffffffffffffffffffffffffffffffff1673ffffffffffffffffffffffffffffffffffffffff168152602001908152602001600020819055505b6000600160009054906101000a900473ffffffffffffffffffffffffffffffffffffffff1673ffffffffffffffffffffffffffffffffffffffff1662fdd58e3360006040518363ffffffff1660e01b8152600401808373ffffffffffffffffffffffffffffffffffffffff1681526020018281526020019250505060206040518083038186803b158015610f1057600080fd5b505afa158015610f24573d6000803e3d6000fd5b505050506040513d6020811015610f3a57600080fd5b81019080805190602001909291905050501015610fa2576040517f08c379a00000000000000000000000000000000000000000000000000000000081526004018080602001828103825260228152602001806119f96022913960400191505060405180910390fd5b600160009054906101000a900473ffffffffffffffffffffffffffffffffffffffff1673ffffffffffffffffffffffffffffffffffffffff1663f242432a33306000866040518563ffffffff1660e01b8152600401808573ffffffffffffffffffffffffffffffffffffffff1681526020018473ffffffffffffffffffffffffffffffffffffffff16815260200183815260200182815260200180602001828103825260038152602001807f307830000000000000000000000000000000000000000000000000000000000081525060200195505050505050600060405180830381600087803b15801561109557600080fd5b505af11580156110a9573d6000803e3d6000fd5b5050505081600360003373ffffffffffffffffffffffffffffffffffffffff1673ffffffffffffffffffffffffffffffffffffffff168152602001908152602001600020600082825401925050819055507f9e71bc8eea02a63969f509818f2dafb9254532904319f9dbda79b67bd34a5f3d3383604051808373ffffffffffffffffffffffffffffffffffffffff1681526020018281526020019250505060405180910390a15050565b6000600660009054906101000a900473ffffffffffffffffffffffffffffffffffffffff1673ffffffffffffffffffffffffffffffffffffffff163373ffffffffffffffffffffffffffffffffffffffff16146111af57600080fd5b6000600160009054906101000a900473ffffffffffffffffffffffffffffffffffffffff1673ffffffffffffffffffffffffffffffffffffffff1663a0712d68856040518263ffffffff1660e01b815260040180828152602001915050602060405180830381600087803b15801561122657600080fd5b505af115801561123a573d6000803e3d6000fd5b505050506040513d602081101561125057600080fd5b810190808051906020019092919050505090508260056000838152602001908152602001600020819055507fe3b607f961c2e42f121175b28052f87521fd49b234f69f5acbbc257718ab3b938185604051808381526020018281526020019250505060405180910390a18091505092915050565b600063bc197c8160e01b905095945050505050565b33600073ffffffffffffffffffffffffffffffffffffffff168173ffffffffffffffffffffffffffffffffffffffff161461139f576113178161079f565b600260008373ffffffffffffffffffffffffffffffffffffffff1673ffffffffffffffffffffffffffffffffffffffff1681526020019081526020016000208190555042600460008373ffffffffffffffffffffffffffffffffffffffff1673ffffffffffffffffffffffffffffffffffffffff168152602001908152602001600020819055505b600160009054906101000a900473ffffffffffffffffffffffffffffffffffffffff1673ffffffffffffffffffffffffffffffffffffffff16639b0c81d36040518163ffffffff1660e01b815260040160206040518083038186803b15801561140757600080fd5b505afa15801561141b573d6000803e3d6000fd5b505050506040513d602081101561143157600080fd5b810190808051906020019092919050505082106114b6576040517f08c379a00000000000000000000000000000000000000000000000000000000081526004018080602001828103825260188152602001807f54686520696420697320612076616c6964206e6674206964000000000000000081525060200191505060405180910390fd5b600082141561152d576040517f08c379a000000000000000000000000000000000000000000000000000000000815260040180806020018281038252601f8152602001807f546865206964206973207468652066756e6769626c6520746f6b656e2069640081525060200191505060405180910390fd5b6001821415611587576040517f08c379a00000000000000000000000000000000000000000000000000000000081526004018080602001828103825260248152602001806119d56024913960400191505060405180910390fd5b6005600083815260200190815260200160002054600260003373ffffffffffffffffffffffffffffffffffffffff1673ffffffffffffffffffffffffffffffffffffffff16815260200190815260200160002054101561164f576040517f08c379a000000000000000000000000000000000000000000000000000000000815260040180806020018281038252601f8152602001807f4e6f7420656e6f75676820706f696e747320746f2072656465656d204e46540081525060200191505060405180910390fd5b6000600160009054906101000a900473ffffffffffffffffffffffffffffffffffffffff1673ffffffffffffffffffffffffffffffffffffffff1662fdd58e600660009054906101000a900473ffffffffffffffffffffffffffffffffffffffff16856040518363ffffffff1660e01b8152600401808373ffffffffffffffffffffffffffffffffffffffff1681526020018281526020019250505060206040518083038186803b15801561170357600080fd5b505afa158015611717573d6000803e3d6000fd5b505050506040513d602081101561172d57600080fd5b8101908080519060200190929190505050116117b1576040517f08c379a00000000000000000000000000000000000000000000000000000000081526004018080602001828103825260108152602001807f4d6178206361726473206d696e7465640000000000000000000000000000000081525060200191505060405180910390fd5b6005600083815260200190815260200160002054600260003373ffffffffffffffffffffffffffffffffffffffff1673ffffffffffffffffffffffffffffffffffffffff16815260200190815260200160002060008282540392505081905550600160009054906101000a900473ffffffffffffffffffffffffffffffffffffffff1673ffffffffffffffffffffffffffffffffffffffff1663f242432a30338560016040518563ffffffff1660e01b8152600401808573ffffffffffffffffffffffffffffffffffffffff1681526020018473ffffffffffffffffffffffffffffffffffffffff16815260200183815260200182815260200180602001828103825260038152602001807f307830000000000000000000000000000000000000000000000000000000000081525060200195505050505050600060405180830381600087803b15801561190457600080fd5b505af1158015611918573d6000803e3d6000fd5b505050507f4896181ff8f4543cc00db9fe9b6fb7e6f032b7eb772c72ab1ec1b4d2e03b93693383604051808373ffffffffffffffffffffffffffffffffffffffff1681526020018281526020019250505060405180910390a15050565b6119bd600360003373ffffffffffffffffffffffffffffffffffffffff1673ffffffffffffffffffffffffffffffffffffffff168152602001908152602001600020546109a7565b565b600063f23a6e6160e01b90509594505050505056fe5468652069642069736e27742074686520676f7665726e616e636520746f6b656e2069644e65656420736f6d652066756e6769626c6520746f6b656e7320746f207374616b65a2646970667358221220000ce178a4493df89d866beb317388cd2f6502e4635ff08e715e01fab6dc9ff764736f6c634300060c0033",
  "immutableReferences": {},
  "source": "// Contract for staking fungible tokens to earn points and redeem NFTs\n\npragma solidity ^0.6.0;\n\nimport \"@openzeppelin/contracts/token/ERC1155/ERC1155Holder.sol\";\nimport \"./Tokens.sol\";\n\ncontract Staking is ERC1155Holder{\n  Tokens public tokensContract;\n  \n  mapping (address => uint256) public points;\n  mapping (address => uint256) public stakers;\n  mapping (address => uint256) public lastUpdateTime;\n  mapping (uint256 => uint256) public nft_cost;\n\n  // owner of the contract\n  address owner;\n\n  // A user has staked his/her tokens\n  event Staked(address user, uint256 amount);\n  // An user has unstaked his/her tokens\n  event Withdrawn(address user, uint256 amount);\n  // A NFT token was redeemed by the user\n  event Redeemed(address user, uint256 nft_id);\n  // A NFT token was added to the project\n  event NFTAdded(uint256 nft_id, uint256 points);\n\n  // Updates the count of points rewarded\n  modifier updateReward(address account) {\n\t\tif (account != address(0)) {\n\t\t\tpoints[account] = earned(account);\n\t\t\tlastUpdateTime[account] = block.timestamp;\n\t\t}\n    _;\n\t}\n\n  // Checks if the function caller is the owner of the contract\n  modifier onlyOwner() {\n    require(msg.sender == owner);\n    _;\n  }\n\n  // initialize token contract and assign contract ownership.\n  constructor (address _address) public {\n    tokensContract = Tokens(_address);\n    owner = msg.sender;\n  }\n\n  // Adds an NFT to the project and returns the generated nft id\n  function addNFT(uint256 amount, uint256 cost) public onlyOwner returns (uint256) {\n    uint256 nft_id = tokensContract.mint(amount);\n    nft_cost[nft_id] = cost;\n\t\temit NFTAdded(nft_id, amount);\n    return nft_id;\n\t}\n\n  // Returns the points earned by a user\n\tfunction earned(address account) public view returns (uint256) {\n\t\tuint256 blockTime = block.timestamp;\n\t\treturn\n\t\t\tpoints[account] + (\n\t\t\t\tblockTime - (lastUpdateTime[account]) * (1e18) / (86400) * (\n\t\t\t\t\t(tokensContract.balanceOf(account, 0) * (25000)) / (1e18)\n\t\t\t\t)\n\t\t\t);\n\t}\n\n  // Stakes some fungible tokens\n\tfunction stake(uint256 amount) public updateReward(msg.sender) {\n\t\trequire(tokensContract.balanceOf(msg.sender, 0) >= 0, \"Need some fungible tokens to stake\");\n\n    // Transfer the fungible tokens from the user to the contract\n    tokensContract.safeTransferFrom(msg.sender, address(this), 0, amount, \"0x0\");\n    // Make sure the amount is removed from the staking\n    stakers[msg.sender] += amount;\n\n\t\temit Staked(msg.sender, amount);\n\t}\n\n  // Withdraws staked fungible tokens\n\tfunction withdraw(uint256 amount) public updateReward(msg.sender) {\n\t\trequire(amount > 0, \"Cannot withdraw 0\");\n    require(amount <= stakers[msg.sender], \"Amount staked isn't enough\");\n\n    // Transfer the fungible tokens from the contract to the user\n    tokensContract.safeTransferFrom(address(this), msg.sender, 0, amount, \"0x0\");\n    // Make sure the amount is removed from the staking\n    stakers[msg.sender] -= amount;\n\n\t\temit Withdrawn(msg.sender, amount);\n\t}\n\n  // Withdraws all the staked fungible tokens of a user\n\tfunction exit() external {\n\t\twithdraw(stakers[msg.sender]);\n\t}\n\n  // Redeems an NFT with the acrued points\n\tfunction redeem(uint256 nft_id) public updateReward(msg.sender) {\n\t\trequire(nft_id < tokensContract.get_num_of_token_types(), \"The id is a valid nft id\");\n    require(nft_id != 0, \"The id is the fungible token id\");\n    require(nft_id != 1, \"The id isn't the governance token id\");\n\t\trequire(points[msg.sender] >= nft_cost[nft_id], \"Not enough points to redeem NFT\");\n\t\trequire(tokensContract.balanceOf(owner, nft_id) > 0, \"Max cards minted\");\n\n    // Remove the points and transfer the token from the \n    // owner of the contract (since he/she will have the token) to the redeemer\n\t\tpoints[msg.sender] -= nft_cost[nft_id];\n    tokensContract.safeTransferFrom(address(this), msg.sender, nft_id, 1, \"0x0\");\n\n\t\temit Redeemed(msg.sender, nft_id);\n\t}\n}\n\n\n\n  \n",
  "sourcePath": "/mnt/d/Projects/Solidity/minecraft-nft/Minecraft-NFT-Server/smart-contracts/contracts/Staking.sol",
  "compiler": {
    "name": "solc",
    "version": "0.6.12+commit.27d51765.Emscripten.clang"
  },
  "schemaVersion": "3.3.2",
  "updatedAt": "2020-12-29T05:26:42.063Z",
  "devdoc": {
    "kind": "dev",
    "methods": {
      "supportsInterface(bytes4)": {
        "details": "See {IERC165-supportsInterface}. Time complexity O(1), guaranteed to always use less than 30 000 gas."
      }
    },
    "version": 1
  },
  "userdoc": {
    "kind": "user",
    "methods": {},
    "version": 1
  }
}